:020000040800F2
:100000000080012001520008A9410008AB4100080E
:10001000AD410008AF410008B141000800000000F8
:10002000000000000000000000000000B3410008D4
:10003000B541000800000000B7410008B9410008C0
:1000400069520008695200086952000869520008A4
:100050006952000869520008695200086952000894
:100060006952000869520008695200086952000884
:100070006952000869520008695200086952000874
:100080006952000869520008695200086952000864
:10009000695200086952000869520008B11E000840
:1000A0006952000869520008695200086952000844
:1000B0006952000869520008695200086952000834
:1000C0006952000869520008695200086952000824
:1000D0006952000869520008695200086952000814
:1000E0006952000869520008695200086952000804
:1000F00069520008695200086952000869520008F4
:1001000069520008ED410008695200086952000870
:1001100069520008695200086952000869520008D3
:10012000695200086952000869520008D541000868
:1001300069520008695200086952000869520008B3
:100140006952000869520008911E0008C941000860
:100150006952000869520008695200086952000893
:100160006952000869520008695200086952000883
:100170006952000869520008695200080000000036
:080180006952000869520008F1
:1001900010B5054C237833B9044B13B10448AFF3C1
:1001A00000800123237010BD7804002000000000AF
:1001B00030CC000808B5034B1BB103490348AFF32B
:1001C000008008BD000000007C04002030CC000846
:1001D000034613F8012B002AFBD1181A0138704787
:1001E00001F0FF01102A2BDB10F0070F08D010F8E8
:1001F000013B013A8B422DD010F0070F42B3F6D1EC
:10020000F0B441EA012141EA014122F007047FF004
:1002100000070023F0E80256083C85EA010586EA5B
:10022000010685FA47F5A3FA87F586FA47F6A5FA97
:1002300087F68EB9EED1F0BC01F0FF0102F00702A3
:1002400032B110F8013B013A83EA010313B1F8D14E
:100250000020704701387047002D06BF354603382F
:10026000073815F0010F07D1013015F4807F02BF68
:10027000013015F4C03F0130F0BC0138704700BFB9
:1002800081F0004102E000BF83F0004330B54FEA47
:1002900041044FEA430594EA050F08BF90EA020FB4
:1002A0001FBF54EA000C55EA020C7FEA645C7FEA47
:1002B000655C00F0E2804FEA5454D4EB5555B8BF6A
:1002C0006D420CDD2C4480EA020281EA030382EADB
:1002D000000083EA010180EA020281EA0303362D6D
:1002E00088BF30BD11F0004F4FEA01314FF4801C40
:1002F0004CEA113102D0404261EB410113F0004F52
:100300004FEA03334CEA133302D0524263EB430308
:1003100094EA050F00F0A780A4F10104D5F1200EA6
:100320000DDB02FA0EFC22FA05F2801841F1000101
:1003300003FA0EF2801843FA05F359410EE0A5F1D5
:1003400020050EF1200E012A03FA0EFC28BF4CF006
:10035000020C43FA05F3C01851EBE37101F00045BC
:1003600007D54FF0000EDCF1000C7EEB00006EEBC9
:100370000101B1F5801F1BD3B1F5001F0CD3490853
:100380005FEA30004FEA3C0C04F101044FEA4452AA
:1003900012F5800F80F09A80BCF1004F08BF5FEA31
:1003A000500C50F1000041EB045141EA050130BD11
:1003B0005FEA4C0C404141EB010111F4801FA4F1B4
:1003C0000104E9D191F0000F04BF01460020B1FA09
:1003D00081F308BF2033A3F10B03B3F120020CDA41
:1003E0000C3208DD02F1140CC2F10C0201FA0CF01F
:1003F00021FA02F10CE002F11402D8BFC2F1200C84
:1004000001FA02F120FA0CFCDCBF41EA0C01904039
:10041000E41AA2BF01EB0451294330BD6FEA040482
:100420001F3C1CDA0C340EDC04F11404C4F120026D
:1004300020FA04F001FA02F340EA030021FA04F37F
:1004400045EA030130BDC4F10C04C4F1200220FAD6
:1004500002F001FA04F340EA0300294630BD21FA14
:1004600004F0294630BD94F0000F83F4801306BFDA
:1004700081F480110134013D4EE77FEA645C18BFCE
:100480007FEA655C29D094EA050F08BF90EA020F65
:1004900005D054EA000C04BF1946104630BD91EA5D
:1004A000030F1EBF0021002030BD5FEA545C05D160
:1004B0004000494128BF41F0004130BD14F580049F
:1004C0003CBF01F5801130BD01F0004545F0FE4113
:1004D00041F470014FF0000030BD7FEA645C1ABF48
:1004E000194610467FEA655C1CBF0B46024650EA7F
:1004F000013406BF52EA033591EA030F41F40021AB
:1005000030BD00BF90F0000F04BF0021704730B530
:100510004FF4806404F132044FF000054FF0000105
:1005200050E700BF90F0000F04BF0021704730B5C6
:100530004FF4806404F1320410F0004548BF40429B
:100540004FF000013EE700BF42004FEAE2014FEAF0
:1005500031014FEA02701FBF12F07F4393F07F4FCB
:1005600081F06051704792F0000F14BF93F07F4FFD
:10057000704730B54FF4607401F0004521F0004140
:1005800020E700BF50EA010208BF704730B54FF0C6
:1005900000050AE050EA010208BF704730B511F0CB
:1005A000004502D5404261EB41014FF4806404F103
:1005B00032045FEA915C3FF4DCAE4FF003025FEA85
:1005C000DC0C18BF03325FEADC0C18BF033202EB0D
:1005D000DC02C2F1200300FA03FC20FA02F001FA67
:1005E00003FE40EA0E0021FA02F11444C1E600BF06
:1005F00070B54FF0FF0C4CF4E06C1CEA11541DBFB9
:100600001CEA135594EA0C0F95EA0C0F00F0DEF883
:100610002C4481EA030621EA4C5123EA4C5350EA68
:10062000013518BF52EA033541F4801143F48013B9
:1006300038D0A0FB02CE4FF00005E1FB02E506F04A
:100640000042E0FB03E54FF00006E1FB03569CF09F
:10065000000F18BF4EF0010EA4F1FF04B6F5007FA5
:1006600064F5407404D25FEA4E0E6D4146EB060617
:1006700042EAC62141EA55514FEAC52040EA5E50A0
:100680004FEACE2EB4F1FD0C88BFBCF5E06F1ED84A
:10069000BEF1004F08BF5FEA500E50F1000041EB81
:1006A000045170BD06F0004646EA010140EA02002E
:1006B00081EA0301B4EB5C04C2BFD4EB0C0541EA50
:1006C000045170BD41F480114FF0000E013C00F365
:1006D000AB8014F1360FDEBF002001F0004170BD89
:1006E000C4F10004203C35DA0C341BDC04F11404A2
:1006F000C4F1200500FA05F320FA04F001FA05F22E
:1007000040EA020001F0004221F0004110EBD370FA
:1007100021FA04F642EB06015EEA430E08BF20EA26
:10072000D37070BDC4F10C04C4F1200500FA04F3C9
:1007300020FA05F001FA04F240EA020001F000415B
:1007400010EBD37041F100015EEA430E08BF20EACE
:10075000D37070BDC4F1200500FA05F24EEA020E16
:1007600020FA04F301FA05F243EA020321FA04F045
:1007700001F0004121FA04F220EA020000EBD370FC
:100780005EEA430E08BF20EAD37070BD94F0000FFC
:100790000FD101F00046400041EB010111F4801F30
:1007A00008BF013CF7D041EA060195F0000F18BFE1
:1007B000704703F00046520043EB030313F4801F1D
:1007C00008BF013DF7D043EA0603704794EA0C0FD7
:1007D0000CEA135518BF95EA0C0F0CD050EA4106ED
:1007E00018BF52EA4306D1D181EA030101F000416A
:1007F0004FF0000070BD50EA410606BF1046194692
:1008000052EA430619D094EA0C0F02D150EA01369D
:1008100013D195EA0C0F05D152EA03361CBF1046DE
:1008200019460AD181EA030101F0004141F0FE417D
:1008300041F470014FF0000070BD41F0FE4141F401
:10084000780170BD70B54FF0FF0C4CF4E06C1CEA01
:1008500011541DBF1CEA135594EA0C0F95EA0C0FB6
:1008600000F0A7F8A4EB050481EA030E52EA033571
:100870004FEA013100F088804FEA03334FF0805592
:1008800045EA131343EA12634FEA022245EA1115BF
:1008900045EA10654FEA00260EF000419D4208BF70
:1008A000964244F1FD0404F5407402D25B084FEA1D
:1008B0003202B61A65EB03055B084FEA32024FF4C9
:1008C00080104FF4002CB6EB020E75EB030E22BF26
:1008D000B61A754640EA0C005B084FEA3202B6EBE6
:1008E000020E75EB030E22BFB61A754640EA5C0095
:1008F0005B084FEA3202B6EB020E75EB030E22BF25
:10090000B61A754640EA9C005B084FEA3202B6EB25
:10091000020E75EB030E22BFB61A754640EADC00E4
:1009200055EA060E18D04FEA051545EA16754FEA46
:1009300006164FEAC30343EA52734FEAC2025FEA64
:100940001C1CC0D111F4801F0BD141EA00014FF0F3
:1009500000004FF0004CB6E711F4801F04BF0143C4
:100960000020B4F1FD0C88BFBCF5E06F3FF6AFAEE0
:10097000B5EB030C04BFB6EB020C5FEA500C50F170
:10098000000041EB045170BD0EF0004E4EEA1131F3
:1009900014EB5C04C2BFD4EB0C0541EA045170BDFA
:1009A00041F480114FF0000E013C90E645EA060E3E
:1009B0008DE60CEA135594EA0C0F08BF95EA0C0F6C
:1009C0003FF43BAF94EA0C0F0AD150EA01347FF4B4
:1009D00034AF95EA0C0F7FF425AF104619462CE78B
:1009E00095EA0C0F06D152EA03353FF4FDAE1046EE
:1009F000194622E750EA410618BF52EA43067FF43F
:100A0000C5AE50EA41047FF40DAF52EA43057FF4CE
:100A1000EBAE12E74FF0FF3C06E000BF4FF0010CD9
:100A200002E000BF4FF0010C4DF804CD4FEA410C3D
:100A30007FEA6C5C4FEA430C18BF7FEA6C5C1BD00A
:100A400001B050EA410C0CBF52EA430C91EA030F8B
:100A500002BF90EA020F0020704710F1000F91EAE8
:100A6000030F58BF994208BF90422CBFD8176FEAB6
:100A7000E37040F0010070474FEA410C7FEA6C5C84
:100A800002D150EA013C07D14FEA430C7FEA6C5C8B
:100A9000D6D152EA033CD3D05DF8040B704700BFB7
:100AA0008446104662468C461946634600E000BF05
:100AB00001B5FFF7B7FF002848BF10F1000F01BDD7
:100AC0004DF808EDFFF7F4FF0CBF012000205DF8A2
:100AD00008FB00BF4DF808EDFFF7EAFF34BF012027
:100AE00000205DF808FB00BF4DF808EDFFF7E0FFC0
:100AF00094BF012000205DF808FB00BF4DF808ED11
:100B0000FFF7CEFF94BF012000205DF808FB00BF77
:100B10004DF808EDFFF7C4FF34BF012000205DF859
:100B200008FB00BF4FEA410C7FEA6C5C02D150EA3F
:100B3000013C0AD14FEA430C7FEA6C5C02D152EAD5
:100B4000033C02D14FF0000070474FF001007047A6
:100B50004FEA410212F5001215D211D56FF47873E5
:100B6000B3EB625212D94FEAC12343F0004343EA88
:100B7000505311F0004F23FA02F018BF4042704763
:100B80004FF00000704750EA013005D111F00040ED
:100B900008BF6FF0004070474FF00000704700BF83
:100BA0004FEA4102B2F1E04324BFB3F5001CDCF18F
:100BB000FE5C0DD901F0004C4FEAC0024CEA5070C7
:100BC000B2F1004F40EB830008BF20F001007047F6
:100BD00011F0804F21D113F13872BCBF01F00040F9
:100BE000704741F480114FEA5252C2F11802C2F12B
:100BF000200C10FA0CF320FA02F018BF40F00100AC
:100C00004FEAC1234FEAD32303FA0CFC40EA0C005D
:100C100023FA02F34FEA4303CCE77FEA625307D19A
:100C200050EA01331EBF4FF0FE4040F440007047D1
:100C300001F0004040F0FE4040F40000704700BF6B
:100C400053B94AB9002908BF00281CBF4FF0FF3133
:100C50004FF0FF3000F07AB9ADF1080C6DE904CE29
:100C600000F006F8DDF804E0DDE9022304B0704787
:100C70002DE9F0478C460D460446089E002B51D1C5
:100C80008A4217466DD9B2FA82FEBEF1000F0BD030
:100C9000CEF1200C01FA0EF520FA0CFC02FA0EF748
:100CA0004CEA050C00FA0EF44FEA174A250CBCFB7F
:100CB000FAF81FFA87F90AFB18CC45EA0C4508FB3D
:100CC00009F3AB420AD9ED1908F1FF3280F0238114
:100CD000AB4240F22081A8F102083D44ED1AA4B2D3
:100CE000B5FBFAF00AFB105544EA054400FB09F98C
:100CF000A14509D9E41900F1FF3380F00A81A1452B
:100D000040F2078102383C44A4EB090440EA084061
:100D10000021002E61D024FA0EF4002334607360A9
:100D2000BDE8F0878B4207D9002E54D0002186E819
:100D300021000846BDE8F087B3FA83F1002940F0AE
:100D40008E80AB4202D3824200F2FA80841A65EBB5
:100D500003050120AC46002E3FD086E81010BDE808
:100D6000F08712B90127B7FBF2F7B7FA87FEBEF199
:100D7000000F34D1EB1B3A0C1FFA87FC0121B3FBA7
:100D8000F2F8250C02FB183345EA03450CFB08F387
:100D9000AB4207D9ED1908F1FF3002D2AB4200F2A5
:100DA000D1808046ED1AA3B2B5FBF2F002FB1055DC
:100DB00043EA05440CFB00FCA44507D9E41900F103
:100DC000FF3302D2A44500F2B8801846A4EB0C040D
:100DD00040EA08409DE731463046BDE8F087CEF155
:100DE000200405FA0EF307FA0EF720FA04F83A0C7D
:100DF00025FA04F448EA0308B4FBF2F14FEA184577
:100E000002FB11441FFA87FC45EA044501FB0CF381
:100E1000AB4200FA0EF409D9ED1901F1FF3080F070
:100E20008A80AB4240F2878002393D44EB1A1FFAB8
:100E300088F5B3FBF2F002FB103345EA034500FBF3
:100E40000CF3AB4207D9ED1900F1FF386FD2AB427A
:100E50006DD902383D44EB1A40EA01418FE7C1F1F8
:100E6000200722FA07F88B4005FA01F448EA030349
:100E700020FA07FE4FEA134CFD404EEA040EB5FB84
:100E8000FCF94FEA1E440CFB19551FFA83F844EA9B
:100E9000054509FB08F4AC4202FA01F200FA01FA36
:100EA00008D9ED1809F1FF3043D2AC4241D9A9F17C
:100EB00002091D442D1B1FFA8EFEB5FBFCF00CFB36
:100EC00010554EEA054400FB08F8A04507D9E41880
:100ED00000F1FF3529D2A04527D902381C4440EA49
:100EE0000940A4EB0804A0FB02894C45C6464D46C8
:100EF00015D312D056B1BAEB0E0364EB050404FA15
:100F000007F7CB401F43CC40376074600021BDE839
:100F1000F0871846F8E69046E0E6C245EAD2B8EB1C
:100F2000020E69EB03050138E4E72846D7E740469F
:100F300091E78146BEE7014678E702383C4445E741
:100F4000084608E7A8F102083D442BE7704700BFB8
:100F500010B5C2701A0A222441700371090A427145
:100F60001A0C1B0E047081708271C37110BD13B511
:100F70000B4604460022684646F26001FFF7E8FF90
:100F80006A460821204601F054F842F2107003F03E
:100F90006BF902B010BD07B522238DF80030402355
:100FA0008DF801300F2260238DF802308DF8042077
:100FB00000236A4608218DF803308DF805308DF83E
:100FC00006308DF8073001F034F842F2107003F06B
:100FD0004BF903B05DF804FB13B522238DF8003004
:100FE00040238DF801300622602308218DF802305D
:100FF0008DF8042000236A4604468DF803308DF8EE
:1010000005308DF806308DF8073001F012F842F205
:10101000107003F029F92046FFF7BDFF02B010BDA4
:1010200013B50B4604460022684646F27101FFF7ED
:101030008FFF6A460821204600F0FBFF322003F0B4
:1010400013F902B010BD07B522238DF800304023FC
:101050008DF80130802260238DF802308DF8042055
:1010600000236A4608218DF803308DF805308DF88D
:1010700006308DF8073000F0DCFF03B05DF804FBAC
:1010800030B553EC102B87B051EC140B8DED041BD5
:101090008DED003B8DED022BFFF7F6F89DED022B59
:1010A00053EC122BFFF7A4FA9DED041B9DED003BC2
:1010B00053EC112B04460D4651EC130BFFF798FA35
:1010C00002460B4620462946FFF7DEF8024601F1AC
:1010D000004343EC102B07B030BD82B001238DF8E4
:1010E00007309DF8070002B070470000014805F086
:1010F0003FBE00BFC4880020014BD86D04F082BA07
:10110000C4880020014B986D04F07CBAC48800208C
:10111000014806F07BBA00BFC488002001460148A0
:1011200005F086BEC488002010B5154C84650723E1
:1011300063600023A360E360802323614FF40073A6
:1011400063614FF40063A3614FF440532362A062D4
:101150000C4B2360204604F037FA204604F0AEF929
:10116000204604F03BF9084B302283F83B2300284B
:101170004FF000625A6014BF2920002010BD00BF4C
:10118000940400204404024000E100E0F7B5104C54
:1011900005461F46204600231646E365FFF7C4FFB9
:1011A00098B9099B0193089B009332463B46294618
:1011B000204605F0E3FC40B90649204606F0F5F963
:1011C000003018BF012003B0F0BD0120FBE700BFD5
:1011D000C48800208096980010B5154CC46507237C
:1011E00063601023A3600023E360802323614FF436
:1011F000007363614FF40063A3614FF440532362B3
:10120000A0620C4B2360204604F0DEF9204604F077
:1012100055F9204604F0E2F8074B302283F83B23CF
:1012200000284FF000625A6014BF2920002010BD32
:10123000DC0400204404024000E100E0F0B5142288
:101240008BB0384C384B2360002101250DEB020098
:101250006160A160E16021616161A5610AF0EBF864
:10126000324B33481A6E334E42F480621A661A6E5D
:1012700002F480620092009A9A6C42F002029A6430
:101280009A6C02F002020192019ADA6C42F00402B6
:10129000DA64DA6C02F004020292029ADA6C42F02A
:1012A0000802DA64DA6C02F008020392039ADA6C3C
:1012B0002A43DA64DB6C07952B400493049B0223DA
:1012C0000693032308930C23099305A94FF4F853BD
:1012D00005934FF4003704F0DDF904231648059315
:1012E00005A904F0D7F977602046FFF775FF00B92C
:1012F00077608DF814509DF81430012B02D0012036
:101300000BB0F0BD0D49074805F0CCFE0028F6D122
:101310004FF40061034806F09DF8003018BF01202B
:10132000EEE700BFC4880020002801400010024002
:101330000008004800E100E0000C004828050020FB
:10134000F7B5104C05461F46204600231646A365F8
:10135000FFF742FF98B9099B0193089B009332461F
:101360003B462946204605F083FC40B90649204605
:1013700006F071F9003018BF012003B0F0BD012064
:10138000FBE700BFC48800208096980000000000A2
:101390002DE9F3413C4FDFF804813B783B4C064696
:1013A00010EE105A10EE900A9BB1012B3FD0384D31
:1013B0003B782B60D8E90001FFF7F2FB23686860F7
:1013C000AB6095E8070086E80700304602B0BDE84C
:1013D000F081FFF7B9F8CDE900012846FFF7B4F82E
:1013E0009FED1D4B9FED1E3B9FED1F2B9DED001BA9
:1013F00041EC100BFFF744FE1DA3D3E9002351EC91
:10140000100B88ED000BFFF71DFA0022214BFFF7B0
:10141000EFF8FFF79DFBB0F5966F16DB4FF4966380
:101420002360216840F20160FFF7FAFDBFE7FFF794
:101430008BF8CDE900012846FFF786F89FED0E4BAB
:101440009FED073B9FED0E2BD0E7134B9842ACBFAF
:1014500020602360E5E700BFF6285C8FC2F513C06B
:101460000000000000000000000000000000044038
:101470006666666666663E4000000000008041C009
:10148000CDCCCCCCCCCCE43F900500208005002016
:101490002489002000408F4050FBFFFF880500207A
:1014A00000207047054BDA6C0243DA64DB6C82B0D3
:1014B00018400190019B02B0704700BF001002402D
:1014C0002DE9F74F0420FFF7EDFF8020FFF7EAFF3B
:1014D00001206A4CDFF8A881DFF8A8A1FFF7E2FF3E
:1014E00002204FF09049FFF7DDFF0820002501267C
:1014F000FFF7D8FF0C2721464FF090402760666029
:10150000A560E560256106F049FCC9F82870214610
:101510004FF48047404627606660A560E56025611E
:1015200006F03CFC4FF40073C8F82870214684E8AC
:101530002800484602230327236106F02FFC40229F
:1015400021465046226001924FF0800B6660A760F2
:10155000E560256106F022FC022321465046236106
:10156000C4F800B0656006F019FC21464046C4F896
:1015700000B066604FF4807BA760E560256106F0EF
:101580000DFC21464846C4F800B06660A760E560DF
:10159000256106F003FCC9F818B021464FF4805BC2
:1015A0004046C4F800B06660A760E560256106F0BB
:1015B000F5FBC8F818B0DFF8D0B0266021465846D1
:1015C0006660A760E560256106F0E8FBCBF818606F
:1015D0004FF4004321464846236000936660A760AD
:1015E000E560256106F0DAFB009BC9F8183021465A
:1015F0000223584684E8C800E560256106F0CEFB6A
:101600000223CBF8183021464FF0100B50462361CF
:10161000C4F800B0656006F0C1FB4FF4806321465A
:10162000484684E82800266106F0B8FB019A22604B
:101630002146404600926660A760E560256106F09D
:10164000ADFB009AC8F8182021465046C4F800B0F7
:101650006660A760E560256106F0A0FB4FF40063BB
:1016600021464046CAF818B084E8C800E560256104
:1016700003B0BDE8F04F06F091BB00BF30890020F9
:101680000004004800080048001C0048024B4FF4CA
:1016900080429A61704700BF00040048054B4FF438
:1016A00080429A614FF0904304229A6108229A6125
:1016B000704700BF000400484FF0904304229A6234
:1016C000034A4FF48041916108229A61704700BF3C
:1016D00000040048704770474FF0904308229A6218
:1016E000034A4FF48041916104229A61704700BF20
:1016F00000040048054B4FF480429A624FF090433B
:1017000004229A6108229A61704700BF00040048D1
:10171000054B4FF480429A624FF0904304229A6145
:1017200008229A62704700BF00040048054B4FF43E
:1017300080429A624FF0904304229A6208229A6291
:10174000704700BF00040048FFF7F0BF70477047C4
:101750002DE9F04F2DED048BC34B1B78012B91B07D
:1017600040F0328102F058FBC04FC14BC14C83EDB9
:10177000000A3B78C04DC14E012BB0EE408A40F0CC
:101780002881002323602368336085ED008A01F0FF
:1017900025FC0490BDF810A0B94E01F04BFC05905B
:1017A000BDF8143003933B78012B40F03281B54BE8
:1017B000BDF80C20A3F800A007EE90AAB24BF8EEFB
:1017C000677AC3ED007AC6ED007ADDED037AAF4BA0
:1017D000F8EE677AC3ED007AAD4B1A80AD4BC3EDDE
:1017E000007A02233B70AC4CAC4DDFF8F4B2A04F52
:1017F000DFF8F0A29F4E9FEDAA9A0CA802F0AAF87B
:101800000C9B23600D9B63600E9BA360E388DFED60
:10181000A50A206895ED000A3C33E38023896168BE
:101820001D332381638910336381B4F90230A268C8
:101830005B4207EE903AF8EEE77ACBED007A02F0E1
:1018400003FB9FED997A994B85ED000A60EE077ACC
:1018500083ED000A17EE900AFEF776FE7CA3D3E92B
:101860000023FEF7EFFF97ED008A914D804618EEBA
:10187000100A8946FEF768FE02460B464046494676
:10188000FEF702FDFFF78CF9DFF85C82DFF8F091DC
:10189000C8F800004FF40063CAF8183006937B4B79
:1018A0009BED002A93ED001AD9ED001AD6ED000A3F
:1018B00008AA02EE900AB0EE480A10460392FFF71B
:1018C00067FD039A069B07CA85E80700CAF8283017
:1018D00001F0DCFB02F01CFAB4F90AE0B4F90630BE
:1018E000B4F90420B4F90210B4F90000CDF804E012
:1018F000B4F90840009402F06FF898ED008AD9ED31
:10190000008A3868BDF8104028EE098AFEF71CFEF0
:10191000FDEEE88A50A3D3E90023BDEEC88AFEF7A6
:1019200091FFFFF715F918EE903A224618EE101ABB
:1019300002F090F8D6ED007AD5ED016A534BBDF870
:10194000140093ED007A67EE897AFDEEE77A17EEE0
:10195000903AFDEEE67A17EE902AFDEEC77A17EE82
:10196000901A02F0A7F8534B1A68052A18D1524D65
:10197000524C28785249226801EB803002F07F32C5
:1019800043F6F87622F0FE4282512878626801EB35
:10199000803122F07F4243F6FC7022F0C0020A50F0
:1019A0001A68B2F5F07F40F0628100211960454B62
:1019B000454801221A70404B1C7804F0FF05002CAA
:1019C00040F0528105701A7011B0BDEC048BBDE877
:1019D000F08FD5ED007A9FED3D7A70EE677A67EE75
:1019E000877A17EE900AFEF7AFFD80463068894689
:1019F000FEF7AAFD1AA3D3E90023FEF7F9FD02467C
:101A00000B4640464946FEF741FCFFF7C9F8206007
:101A1000B9E6022B2E4D2F4C6AD107EE90AAF8EEB4
:101A2000677A1A4BC6ED007AC4ED007ADDED037AD1
:101A3000BDF80C20A5F800A0F8EE677AC3ED007A97
:101A4000254B1A80254BC3ED007A0323CAE600BF5D
:101A5000A7E8482EFF210940BA490C022B87B63F60
:101A6000F1F44A598638EC3F7989002000000020C3
:101A700098050020A00500209C050020AC05002052
:101A80005C89002048890020608900204C89002062
:101A90004A8900206889002050890020A80500207C
:101AA0000000C8420000003B000034437089002061
:101AB00024890020B4050020BA0500200028004039
:101AC000800800208089002008000020EC517B4223
:101AD000648900206C8900206689002074890020B8
:101AE0009405002000040048A4050020B3EAD33F79
:101AF00094ED008A5FED037ADFF8A8B12F8868EED5
:101B0000277A17EE900AFEF71FFD8046DBF80000EB
:101B10008946FEF719FD58A3D3E90023FEF768FDB7
:101B200002460B4640464946FEF7AEFB8046BDF8EE
:101B300010008946FEF7F6FC51A3D3E90023FEF717
:101B400057FD02460B4640464946FEF79FFB80463E
:101B500038468946FEF7E6FC4BA3D3E90023FEF79F
:101B600047FD02460B4640464946FEF78FFBDFF82D
:101B70003881CDE90601B8F80000FEF7D3FC40A398
:101B8000D3E90023FEF734FD02460B46DDE90601EA
:101B9000FEF77CFBFFF704F8A5F800A0DFF80CA126
:101BA0002060DAF800403060A8F800708BED008A01
:101BB0002046FEF7C9FC39A3D3E90023FEF718FD40
:101BC000334F344DDFF8E8B02E88804638688946B8
:101BD000FEF7BAFC28A3D3E90023FEF709FD02466D
:101BE0000B4640464946FEF74FFB8046BDF81400C1
:101BF0008946FEF797FC22A3D3E90023FEF7F8FC01
:101C000002460B4640464946FEF740FB80463046BA
:101C10008946FEF787FC1CA3D3E90023FEF7E8FC06
:101C200002460B4640464946FEF730FB8046BBF86D
:101C300000008946FEF776FC11A3D3E90023FEF7E6
:101C4000D7FC0B46024649464046FEF71FFBFEF70F
:101C5000A7FF114BABF800601860BDF80C302B806B
:101C60003C60CAF80000BEE502701970ACE61A6864
:101C700001321A60A8E600BF75029A081B9EE63F73
:101C80002D431CEBE2368A3F2D431CEBE2369A3F94
:101C900068890020668900204C890020211FF46C8F
:101CA000567DFA3F60890020488900207489002011
:101CB0004A8900202DE9F843674C0125257002F080
:101CC00015FB2946654800F0BDFE43F2F223984219
:101CD00001D000F025FE624D624FDFF8B081FFF7C2
:101CE000EFFB03F0D7FA00F0BFFB01F0C1FA5E4949
:101CF0005E4809F0B5FC32215C4801F0F3FA01F0CE
:101D0000F9FF01F0CDF800F0CBF92888FFF764F96E
:101D10000A212888FFF72BF92888FFF794F940F269
:101D2000DC5002F0A1FA2888514DFFF755F900F078
:101D30008DFE02F04BFB00F045FB00F035FB01F09F
:101D4000DBFDFFF7B9FC00263B7813B1FFF700FD80
:101D50003E702378013B062BF6D801A252F823F0FF
:101D60007D1D0008B71D0008491D00083D1E000824
:101D7000D51D0008431E0008F11D000802F0A0FA5E
:101D80002B78012B04D10423237000232B70DAE776
:101D9000384B1B78012B05D1364B00221A700723D4
:101DA0002370D0E7344B1A78012A11D10222227015
:101DB00000221A70C7E7314B40F6C4121A8001F0B6
:101DC0005BFD2B78012BDED02A4B1B78012BE3D057
:101DD0000123E5E72A4B0422C3F88820FFF75EFCC5
:101DE00000F082FD00F076FB00F06AFB0623D7E7E7
:101DF000FFF772FC00F02AFC224B234A00261E70DB
:101E00001D4B1E701E4B4FF00409C3F88890936859
:101E100023F002039360FFF79AFCD8F84C3023F4C8
:101E20000053C8F84C3002F04BFA2B78012BDDD16F
:101E300084F800902E70FFF789FC84E701F0AEFC77
:101E400081E702F03DFA2B78012BCFD104232370D8
:101E500000232B70EFE700BFC0880020002800405F
:101E600004000020B905002054CC0008E08B0020BD
:101E7000B80500206C8F002080890020488F00204A
:101E800000E100E079890020009400400010024049
:101E9000054B1A68920706D5044A012111705A6849
:101EA00042F002025A60704700940040B9050020D9
:101EB000054B5A69920505D5044A012111704FF46A
:101EC00000725A61704700BF00040140B80500204D
:101ED0000B4B4FF480529A620A4AC02111739168E9
:101EE0000906FCD44FF480529A61064B9A6812F4AA
:101EF000C06F02D1322002F0B7B9DA68F6E700BF4E
:101F000000040048003800400D4B4FF480529A62A4
:101F10000C4B02221A73187319739A6812F4C05F7B
:101F2000FBD19A681206FCD4054B4FF480529A619B
:101F3000044B9A6812F4C06F00D17047DA68F8E772
:101F400000040048003800400C4B4FF480529A6265
:101F50000B4B03221A73002218731A739A6812F437
:101F6000C05FFBD19A681206FCD4DA68DA68D868D8
:101F7000024B4FF480529A61C0B27047000400488F
:101F800000380040124B10B54FF480549C62114B46
:101F900014461873A01AC0B2814210D89A6812F47D
:101FA000C05FFBD19A681206FCD4094B4FF48052F3
:101FB0009A61084B9A6812F4C06F07D110BD9868F7
:101FC0008007FCD514F8010B1873E3E7DA68F1E732
:101FD0000004004800380040014608B55020FFF7D3
:101FE000B3FFC0060AD40A4644200D21FFF7CAFFFA
:101FF0000B215020BDE80840FFF786BF4020FFF7C7
:10200000A3FFC20607D40A4642200D21FFF7BAFFFC
:102010000B214020EEE73020FFF796FFC30607D4E0
:102020000A4640200D21FFF7ADFF0B213020E1E7EC
:1020300008BD7FB504460D46164600210D226846B0
:1020400009F0F9F9E30864018DF800308DF80140DA
:102050008DF804500023DAB2954204D86846FFF7A1
:10206000BBFF04B070BD0DEB0302F15C5171013395
:10207000F1E7000008B540F276220021064809F099
:10208000DAF901F095FF054B4FF480529A61BDE8F3
:102090000840FFF71DBF00BFBB050020000400483B
:1020A00008B5FFF7E7FFC0212A20FFF72DFF8921A0
:1020B0002920FFF729FF04212820FFF725FF082109
:1020C0000F20BDE80840FFF71FBF0000BFF34F8F90
:1020D0000549064BCA6802F4E0621343CB60BFF3C4
:1020E0004F8F00BFFDE700BF00ED00E00400FA05E0
:1020F000836823F0004323F03F0343F0040383602D
:1021000070470000054BDA6C0243DA64DB6C82B086
:1021100018400190019B02B0704700BF00100240C0
:10212000054B1A6E02431A661B6E82B0184001906E
:10213000019B02B0704700BF0010024030B5036839
:1021400091FAA1F4B4FA84F491FAA1F10325B1FA59
:1021500081F1640005FA04F4490023EA040302FA59
:1021600001F11943016030BD30B54FF4407393FA6B
:10217000A3F3B3FA83F301F44074DC40303001F090
:102180001F011F2303FA01F550F8243002F0F84232
:10219000C1F11A0123EA050322FA01F1194340F8BB
:1021A000241030BD70B54FF0007696FAA6F6B6FA58
:1021B00086F301F00076DE40143001F0F8714FF044
:1021C000F87393FAA3F5B5FA85F593FAA3F3072408
:1021D00021FA05F504FA05F5B3FA83F350F8264021
:1021E000D94024EA050402FA01F1214340F82610FF
:1021F00070BD30B5036A91FAA1F4B4FA84F491FA8F
:10220000A1F10F25B1FA81F1A40005FA04F48900C7
:1022100023EA040302FA01F11943016230BD30B52B
:10222000C36891FAA1F4B4FA84F491FAA1F10325F8
:10223000B1FA81F1640005FA04F4490023EA0403C9
:1022400002FA01F11943C16030BD10B5826891FAFC
:10225000A1F3B3FA83F391FAA1F10324B1FA81F166
:102260005B0004FA03F3490022EA030304FA01F1D4
:102270001943816010BD00000A4B30205B6890FA62
:10228000A0F00F22B0FA80F092FAA2F203F030012F
:10229000B2FA82F203F00F0321FA00F0D34043EACE
:1022A00000107047002800400B4B4FF480505B68D3
:1022B00090FAA0F04FF47062B0FA80F092FAA2F2B5
:1022C00003F48051B2FA82F203F4706321FA00F051
:1022D000D34043EA00107047002800400B4B4FF4F6
:1022E00070005B6890FAA0F04FF47022B0FA80F0B2
:1022F00092FAA2F203F47001B2FA82F203F47023AC
:1023000021FA00F0D34043EA001070470028004053
:102310000A4B70201B6890FAA0F00F22B0FA80F0F0
:1023200092FAA2F203F07001B2FA82F203F00F0304
:1023300021FA00F0D34043EA001070470028004023
:102340000B4B4FF4E0401B6890FAA0F04FF4706222
:10235000B0FA80F092FAA2F203F4E041B2FA82F20B
:1023600003F4706321FA00F0D34043EA0010704791
:10237000002800400B4B4FF440101B6890FAA0F06F
:102380004FF47022B0FA80F092FAA2F203F44011F6
:10239000B2FA82F203F4702321FA00F0D34043EA48
:1023A000001070470028004008B5044B044A196823
:1023B000914202D01A60FFF789FE08BDF07E01202D
:1023C000EFBEADDE0A4AD36823F4E0631B041B0CA6
:1023D00043F0BF6343F40033D360064B002283F81D
:1023E0001723202283F83123102283F842237047D9
:1023F00000ED00E000E100E00A4A536810B523F464
:102400008063094C5360094B002220461A7007F084
:1024100034F8204607F013F8054AD36C23F48053B0
:10242000D36410BD0070004088890020B8050020EA
:10243000001002400A4B5A6842F4806282B05A602F
:102440005A685205FCD5074BDA6C42F48052DA64C4
:10245000DB6C03F480530193019B02B0704700BF13
:1024600000700040001002404FF0904310481A697D
:1024700002F40071C2F3402270B502601A6992053D
:10248000FCD40C4B0C4C1A68A24210D01C6071B1E9
:1024900005254FF09046C82006F030FB33699B05B8
:1024A00003D5064B1C60FFF711FE013DF3D170BD53
:1024B000FC8C0020F07C0120EFBEADDEF07F01201F
:1024C000034A936823F002039360FFF740B900BF0B
:1024D00000940040014B00221A7070478089002050
:1024E00030B5ADF5117D014608A808F030FE4FF07B
:1024F000FF34E0B9104D02A908A808F076FEB0B983
:102500009DF811309BB129460DF1110009F0B0F88A
:102510000028F0D001AA09490DF1110009F074F862
:102520000128E8D1019B9C42B8BF1C46E3E7601C30
:102530000DF5117D30BD00BF88CC000881CC0008AE
:10254000104B10B51C68012C1AD100221A60FFF73D
:10255000FEF842F2107001F087FEFFF7F7F80A4824
:1025600001F082FE09490A4808F006FF28B9224610
:102570000649084808F02EFA10B1074B01221A70DC
:1025800010BD00BF148C002040420F00098D0020B8
:10259000F0CE0008188D00206D8F002008B5074888
:1025A00008F075FC12220649044808F049FA054B68
:1025B0001B7813B1044B01221A6008BD788F0020EC
:1025C0005C8C0020FA9100201C8C002008B5074884
:1025D00008F05DFC12220649044808F031FA054B68
:1025E0001B7813B1044B01221A6008BD788F0020BC
:1025F0005C8C0020FA910020188C002008B50C4952
:102600000C4808F0B9FE28B9012209490A4808F027
:10261000E1F918B1094B01221A6008BD12220849DC
:10262000084808F00DFA084B18700028F2D108BDD0
:10263000098D0020F0CE0008188D0020C08C0020ED
:102640005C8C0020788F0020FA91002008B50D499D
:102650000D4808F091FE58B901220A490B4808F0CC
:10266000B9F910B90A4808F0EBFD642001F0FCFD4F
:1026700000220849104608F0ADF90248BDE80840BC
:1026800008F096BE098D0020F0CE0008188D0020BD
:1026900074CC00081BCE000808B51049104808F09B
:1026A0006BFE88B901220D490E4808F093F940B934
:1026B00012220D490D4808F0C3F910B90B4808F073
:1026C000E6FB642001F0D0FD00220949104608F025
:1026D00081F90248BDE8084008F06ABE098D002073
:1026E000F0CE0008188D002074CC0008788F0020F0
:1026F0001BCE000810B50B4C0B490022204606F0FB
:1027000082FE0A49204606F0ACFE0949204606F042
:10271000D2FA204606F0ACFE0648BDE8104001F0B3
:10272000A3BD00BF8889002010000020FC0100200C
:10273000DC01002040420F0010B50B4C0B49002279
:10274000204606F060FE0A49204606F08AFE094946
:10275000204602F0F7FA204606F08AFE0648BDE859
:10276000104001F081BD00BF888900207400002066
:10277000BC000020CC01002040420F0010B5FFF744
:10278000F9FD0446FFF7F6FDC4F303132B4A00F0EE
:102790000F0003EB830300EB43031370FFF7D0FD3F
:1027A0000446FFF7CDFDC4F30313254A00F00F00E4
:1027B00003EB830300EB43031370FFF7A9FD04460B
:1027C000FFF7A6FDC4F303131E4A00F00F0003EB4E
:1027D000830300EB43031370FFF766FD0446FFF726
:1027E00063FDC4F30313184A00F00F0003EB8303E7
:1027F00000EB43031370FFF73FFD0446FFF73CFD7A
:10280000C4F30313114A00F00F0003EB830300EB42
:1028100043031370FFF762FD0446FFF75FFDC4F347
:1028200003130B4A03EB830300F00F0000EB430399
:102830001370084B5A681B6810BD00BF6E8C0020D7
:102840002C8C0020788C00205C8F00204A8F002088
:10285000758F00200028004008B5FFF78FFF0F4B51
:102860000F491A780F4B10481B7843EA42130F4A5E
:102870001278143243EA42238B800D4B1A780D4BA9
:102880001B785B0143EAC2230B4A127843EA5203E6
:10289000CB80BDE8084008F024BD00BF5C8F00205D
:1028A000408C00204A8F00205C8C0020758F002017
:1028B0006E8C00202C8C0020788C002008B50748F6
:1028C00008F0E5FAFFF7C8FF00220549104608F0B6
:1028D00081F80448BDE8084008F06ABD788F002000
:1028E0001BCE0008098D0020FFF7E8BF034B4FF017
:1028F000FF32DA60DA685206FCD5704700280040E3
:10290000064B6FF08002DA60DA6802F0800262F053
:10291000A002DA60DA689206FCD570470028004011
:102920001FB5294BD3F8902042F48032C3F8902091
:10293000D3F8902022F48032C3F89020D3F890206E
:1029400042F00102C3F89020D3F890209207FBD503
:10295000D3F890201D4C22F4407242F48072C3F8E8
:102960009020D3F8902004A942F40042C3F89020AC
:10297000002341F80C3D204605F08AFBCA23636220
:1029800053236362FFF7B2FF23694FF4FE0292FA0A
:10299000A2F27F21B2FA82F201FA02F223F4FE03DC
:1029A00013432361236923F4FF4323F07F0343F0A0
:1029B000FF032361FFF7A4FFFF236362044B43F28D
:1029C000F2225A6004B010BD0010024000280040FE
:1029D00050280040F0B5194C0F461946CA236362CF
:1029E000532385B0636206461546FFF77FFF9DF8C7
:1029F00028308DF80C108DF80D3002AA9DF82C307F
:102A00008DF80E300021204605F0B2FB012301AA0B
:102A1000002120468DF804308DF805708DF8076090
:102A20008DF8065005F0E8FBFFF76AFFFF236362AD
:102A3000034B43F2F2225A6005B0F0BD002800407B
:102A400050280040503050F82100704708B50C4B1A
:102A50004FF400021A600120FFF762FB094A136974
:102A6000F02123F0F00391FAA1F11361064B1A68EB
:102A700042F400721A609A6842F400729A6008BDCB
:102A800000E100E00000014000040140064B1A682C
:102A900001321A601968054A914204D900221A606D
:102AA000034B01221A7070473C8C0020003E490005
:102AB000FB910020064A0749136801338B4283BF0C
:102AC00000231360044B136084BF01221A70704707
:102AD000FC910020003E4900F291002073B50023D4
:102AE0002C48019383682C4A23F0204323F03F03B2
:102AF0008360836823F0104323F03F0343F0805347
:102B00008360264B1B68B3FBF2F30A225343B3FBEB
:102B1000F2F30193019A002A2FD18368204D214CB2
:102B200023F0404323F03F0343F0004383604FF022
:102B300090462A6022708368002B04DB3369990574
:102B400001D42378E3B180230193019ADAB9836831
:102B500023F0004323F03F0343F0010383602A6026
:102B600022704FF090450368DA0704D42B699B0567
:102B700001D4237853B102B070BD019B013BC8E77B
:102B8000FFF798FFD7E7019B013BDDE7FFF792FFD7
:102B9000E9E700BF00020450A08601000C000020FD
:102BA000FC910020F291002073B500232C48019382
:102BB00083682C4A23F0204323F03F03836083681B
:102BC00023F0104323F03F0343F080538360264BF0
:102BD0001B68B3FBF2F30A225343B3FBF2F30193F6
:102BE000019A002A2FD18368204D214C23F04043C5
:102BF00023F03F0343F0004383604FF090462A6088
:102C000022708368002B04DB3369990501D4237893
:102C1000E3B180230193019ADAB9836823F000437A
:102C200023F03F0343F0010383602A6022704FF0DA
:102C300090450368DA0704D42B699B0501D42378F7
:102C400053B102B070BD019B013BC8E7FFF732FFF3
:102C5000D7E7019B013BDDE7FFF72CFFE9E700BF6A
:102C600000010450A08601000C000020FC9100200F
:102C7000F291002073B5002301932D4B2D499A68E2
:102C800022F0204222F03F029A609A6822F010421D
:102C900022F03F0242F080529A60274A1268B2FB4B
:102CA000F1F20A214A43B2FBF1F2019201990029A3
:102CB00032D19A68214C22481D4D22F0404222F028
:102CC0003F0242F000429A604FF09046216001704E
:102CD000AB68002B04DB3369990501D40378F3B1A9
:102CE000802301930199E9B9114A936823F00043C5
:102CF00023F03F0343F0010393604FF090452160C0
:102D0000017014462368DA0704D42B699B0501D4AB
:102D1000037853B102B070BD019A013AC5E7FFF7DD
:102D2000C9FED5E7019B013BDBE7FFF7C3FEE9E7FF
:102D300000000450A08601000C000020FC9100203F
:102D4000F29100204F4BDA6A42F4005270B5DA6219
:102D5000DA6A4D4D4D4C4E4E22F40052DA624FF479
:102D60000050FFF7CFF9AB6823F47C1343F4003332
:102D7000AB60E36843F48043E360E36823F47C637F
:102D8000E360E36823F40053E360E36843F48053B3
:102D9000E360236B23F00F032363204632460621B2
:102DA000FFF7E2F9204631460722FFF7FBF9AB684F
:102DB000384E23F47C1304F5807443F40033AB6085
:102DC000E36843F48043E360E36823F47C63E360F7
:102DD000E36823F40053E360E36843F48053E36063
:102DE000236B23F00F032363324620460621FFF7AF
:102DF000BBF9314620460722FFF7D4F9AB6823F42C
:102E00007C1343F40033AB60D4F80C31224D43F40F
:102E10008043C4F80C31D4F80C3123F47C63C4F83B
:102E20000C31D4F80C3123F40053C4F80C31D4F82D
:102E30000C3143F48053C4F80C31D4F8303123F012
:102E40000F03C4F8303104F580742A462046062169
:102E5000FFF78AF92946114D20460722FFF7A2F90C
:102E60002A4620460621FFF77FF9294620460722F9
:102E7000FFF798F9FFF732FEFFF796FEBDE87040C6
:102E8000FFF7F8BE00100240000304500000045099
:102E90000800900C1000C01004006008020030040C
:102EA00010B5164C0420FFF72DF92046032204210B
:102EB000FFF744F9E36A43F00403E3622046032288
:102EC0000821FFF73BF9E36A43F00803E362204679
:102ED00003220221FFF732F9E36A43F00203E362BF
:102EE000204603220121FFF729F9E36A43F0010399
:102EF000E362BDE81040FFF725BF00BF00080048AF
:102F00004FF090434FF4807210B59A620C4A13460A
:102F10009468A407FCD510739A68D407FCD5DA68C6
:102F20009A689007FCD51973054B9A68D207FCD5AF
:102F3000D8684FF090434FF480729A61C0B210BDD0
:102F4000003001404FF090434FF4004210B59A62B8
:102F50000C4A13469468A407FCD510739A68D407EA
:102F6000FCD5DA689A689007FCD51973054B9A6806
:102F7000D207FCD5D8684FF090434FF400429A61D5
:102F8000C0B210BD003001404FF0904330B54FF457
:102F900080749C62104B1C469D68AD07FCD540F0C8
:102FA00080001873A368DB07FCD5E3680A4B0A446A
:102FB0000020914205D14FF090434FF480729A6106
:102FC00030BD9C68A507FCD518739C68E407FCD548
:102FD000DC6801F8014BECE70030014008B5104A0D
:102FE00010480621FFF7C0F80F48FFF781F80F4A95
:102FF0000D48002313600E4A137003685B070BD55E
:1030000004230360006C4FF42F6380B2434340F607
:10301000FF70B3FBF0F008BDFFF738FDEDE700BF30
:103020000200300400020450000104503C8C0020D7
:10303000FB91002008B5104A10480621FFF794F8CC
:103040000F48FFF755F80F4A0D48002313600E4A4A
:10305000137003685B070BD504230360006C4FF407
:103060002F6380B2434340F6FF70B3FBF0F008BD1E
:10307000FFF70CFDEDE700BF020030040002045032
:10308000000004503C8C0020FB910020F8B5284A39
:103090002848294D294C0621FFF766F82848FFF7F4
:1030A00027F8002326482B60237003685A0739D578
:1030B0000423244F244E036097F800E03368234A2A
:1030C000006C03EB4E3303F5D253183302EB43038A
:1030D00080B24FF42F61414340F6FF70B1FBF0F135
:1030E0001B485980FFF704F800232B602370184C0D
:1030F000104623685B0718D50423236039783368AA
:10310000226C03EB413303F5E153183300EB430327
:1031100091B24FF42F624A4340F6FF71B2FBF1F2D5
:103120009A80F8BDFFF7B2FCBFE7FFF7AFFCE0E71E
:1031300002003004000204503C8C0020FB9100206F
:1031400000010450BA050020B405002080080020CA
:103150000000045010B5022220214FF090404FF0A3
:103160009044FEF7EBFF052220214FF09040FFF73F
:1031700040F820214FF09040FFF767F8636823F094
:1031800020036360204600222021FFF748F82046F4
:1031900002224021FEF7D2FF052220464021FFF700
:1031A00028F820464021FFF750F8636823F04003D9
:1031B0006360204600224021FFF731F820460222BA
:1031C0008021FEF7BBFF052220468021FFF711F882
:1031D00020468021FFF739F8636823F0800363609D
:1031E000204600228021BDE81040FFF718B80000FB
:1031F00008B54FF48050FEF793FFFFF7ABFF1B4B72
:103200001A6822F0380242F008021A601A6822F4A2
:1032100044421A601A6842F001021A601A6842F0C9
:1032200002021A601A6822F080021A605A6822F4B8
:10323000706242F4E0625A601A6842F400721A60E6
:103240005A6822F004025A605A6842F480525A6066
:103250001A6842F482721A601A6842F040021A60D8
:103260005A6842F008025A6008BD00BF00300140B1
:1032700010B5184C022240212046FEF75FFF0722BE
:1032800040212046FEF7B5FF40212046FEF7DDFF36
:10329000636823F040036360012240212046FEF76B
:1032A000BEFF0D4A136E43F4804313660B4B1A683E
:1032B00042F00C021A600A4A12684FF4E13102F53A
:1032C0006142B2FBF1F2DA601A6842F001021A6060
:1032D00010BD00BF0004004800100240003801404B
:1032E0000C000020094B0144884200D17047DA6984
:1032F0001206FCD510F8012B1A85DA695206FCD5A6
:10330000DA6922F04002DA61EEE700BF00380140DE
:10331000024A00231370024A13607047818900201B
:103320008489002008B50D4B002119600C4B1960F1
:103330000C4B01221A700C4B19700C4B19700C4B72
:103340001970FFF7E5FF0B4B0A46A3F108000A547A
:1033500001310A2943F8042FF9D108BD708F0020EC
:10336000B405002008000020BA0500208089002054
:10337000B00500208C880020F8B5214B0646187057
:10338000FEF7F8FF0446FEF7F5FF0546FEF7D8FF07
:10339000C4F303140746FEF7D3FF04EB840305F0E0
:1033A0000F0404EB4304C7F3031303EB830300F0A0
:1033B0000F0000EB4300C0B2642310FB03F0E4B243
:1033C00042F2107303FB0404FEF7A2FF0546FEF76A
:1033D0009FFFC5F3031303EB830300F00F0000EB23
:1033E00043000849084B094A54FA80F41C600B78E2
:1033F000D65402EB830201330B70D460F8BD00BFDA
:1034000081890020728C002084890020848800201B
:10341000013810B50F2862D8DFE800F01E612E39A0
:103420000F61614661616154616161081020FFF7BD
:10343000A3FF2B4B01221A7010BDFFF7C7F8294BD1
:103440001C68012C4BD1284B002205201A60FFF785
:1034500093FF264B1C7018E0FFF7D0F8224B1C6836
:10346000012C3CD1002220461A60FFF785FF1C4B3F
:103470001C701F4B1C7010BDFFF762F81C4B1C78B2
:10348000012C2CD10320FFF777FF154BF2E7FFF754
:1034900085F8184B1C68012C21D1002204201A60E9
:1034A000FFF76AFF144BD5E7144A1378032B14D99E
:1034B000002313700A4B01221A700820BDE8104047
:1034C000FFF75ABF0E4A1378032B06D90023137057
:1034D000034B01221A700C20F0E70133137010BD6A
:1034E0006C8F0020188C0020C08C0020388C0020AD
:1034F0006D8F00201C8C0020028D00200092002087
:10350000748F002010B50B490B480C4C07F034FFAA
:1035100028B9012207490A4807F05CFA08B10123DB
:1035200023602368012B04D10320BDE81040FFF77E
:103530006FBF10BD098D0020F0CE0008148C002054
:10354000188D0020F8B5314C31493248324E0023F5
:10355000237007F011FF30B901222D492F4807F0E1
:1035600039FA054648B1012333603368012B4BD14A
:103570000320BDE8F840FFF74BBF01222849294846
:1035800007F05EFA074660B301222749254807F095
:1035900057FAF0B1254B1A68012A04D124481D605E
:1035A00007F04EFE06E0012221491E4807F048FAC6
:1035B00048B1257000221F49104607F00BFA144845
:1035C00007F0F6FED1E701231648237007F05FFCF1
:1035D000F0E7194B20701870124807F058FC124899
:1035E000DEE7104807F053FC0D4807F029FE3A4685
:1035F0001049384607F0EEF9054807F0D9FE0F4BA1
:103600000F4A1A60FEF762FDF8BD00BF79890020FD
:10361000098D0020F0CE0008148C0020188D0020A9
:103620005ACC0008788F002067CC00080C97002047
:1036300074CC00081BCE000838920020F07F0120D7
:10364000EFBEADDE104A116838B5104C00230129D9
:10365000237002D11360FEF739FD0D4A116801296C
:1036600004D113600B4B0C4A1A60F4E70B4A15683F
:10367000012D07D11360FFF70FF82570BDE8384022
:10368000FFF760BF38BD00BFF89F00207989002098
:10369000E8AB0020F07F0120EFBEADDE8897002070
:1036A00038B5154B1B782BBB1448154C154DFEF740
:1036B00017FF154B154918600246154807F080FFA3
:1036C00012221349204607F0BBF9287040B10120AF
:1036D000FFF79EFE4FF47A70BDE8384000F0C4BD9D
:1036E000D4F80C12204607F0E3FB204607F06FFBEE
:1036F0002870EFE738BD00BF6D8F00201BCE00089B
:10370000788F0020FA910020708F002084CC000870
:103710005C8C002008B5FFF7F5FEFFF7C1FF044BF6
:103720001B781BB9BDE80840FFF7FCBD08BD00BF12
:103730006D8F002010B5124C2178D9B9114B40F68D
:10374000C4121A80104B1B78012B0CD1FFF7E2FF3B
:1037500023787BB90D4A936843F0020393600C4BC6
:1037600004229A6010BD0B4A0B4C1378012B02D136
:103770001170237010BDFEF7A3FE0623F9E700BF0A
:103780006D8F0020488F0020798900200094004030
:1037900000E100E0158D0020C088002070B5FDF725
:1037A000D5FF2D4B2D492E4D01221A700423C1F84F
:1037B0008830FEF73FFE4FF40003C1F880302A78CE
:1037C000012A01D1FFF77AF8264E00242C7001F06F
:1037D0008FFD3378244D012B18D1FDF799FF3470FC
:1037E000FEF788FF2C704FF09042146914F40074B7
:1037F000FBD1FDF753FFFEF7FFFD1C4B1C70FFF7DD
:1038000099FF164B4FF400021A6070BDFDF78EFF52
:10381000FEF792FF164805F00BFE60B928704FF0D6
:10382000904213699B05FCD4FEF7E6FDFDF736FFD9
:10383000FFF788FEE3E72C704FF09042146914F410
:103840000074FBD1FEF7D8FDFDF728FF094B1C7073
:10385000FFF7F8FED3E700BFC088002000E100E0DA
:1038600079890020389200206C8F0020168D00206E
:1038700088890020A28C002038B5174B174918788A
:10388000174B184C01EB80314FF48042164807F07B
:10389000AFF92070B8B10520FFF7BAFD134B1B78C4
:1038A000C3B9134A134B11781B68994215460DD1C1
:1038B0000D4807F08CFA207010B10420FFF7A8FD26
:1038C00000232B7038BDFDF706FFE7E713780133BF
:1038D000DBB2137038BD00BF080000208008002054
:1038E000748C0020FA910020788F0020388C002002
:1038F000B0050020DF8B002010B5FDF727FF0F4B30
:1039000003221A600E4B01241C70FFF7FBFDFFF72A
:10391000C7FEFFF707FD402000F0B0FC094A93689E
:1039200043F002039360084B04229A60074A147024
:10393000074A14704FF400021A6010BDDF8B00209C
:10394000798900200094004000E100E0C088002058
:1039500038920020F0B58C2187B004462520FFF76F
:10396000CFFA03212620FFF7CBFA87212720FFF784
:10397000C7FA694615223B20FFF706FB9DF8023087
:103980009DF803509DF805009DF809109DF80B2047
:103990009DF80C609DF8007045EA03259DF8043001
:1039A000658040EA03209DF80830A08041EA0321A9
:1039B0009DF80A30E18042EA03229DF80D30228111
:1039C00043EA06239DF80160638146EA0726204604
:1039D000268007B0F0BD0000F0B51B4E1B4D96F8D9
:1039E00000E02F681A4C07EB4E3704EB4707F882CC
:1039F0003778286800EB473000F5F67024F810108F
:103A00003078296801EB403104EB4101A1F89A2795
:103A100031782A6802EB413204EB4202A2F85C3BA7
:103A200032782B6803EB423304EB4303059AA3F887
:103A30001E2F32782B6803EB423303F51763069A87
:103A400024F81320F0BD00BFBA050020B405002003
:103A500080080020F0B5144E144D96F800E02F6851
:103A6000134C07EB4E3707F5356704EB47077880B3
:103A70003778286800EB473000F5536004EB4000CE
:103A800081803078296801EB403101F5716104EBE8
:103A90004101CA8031782A6802EB413202F587522F
:103AA000143224F81230F0BDBA050020B40500200D
:103AB00080080020F0B5164E164D96F800E02F68ED
:103AC000154C07EB4E3707F59657143704EB4707AD
:103AD00078803778286800EB473000F5A55014301F
:103AE00004EB400081803078296801EB403101F51A
:103AF000B451143104EB4101CA8031782A6802EBD9
:103B0000413202F5C352183224F81230F0BD00BF22
:103B1000BA050020B40500208008002030B58BB025
:103B20006B228DF805208DF807206C228DF8092076
:103B3000334A12788DF80A201A228DF80B201022B1
:103B40008DF80C208DF80E201C228DF80F202D4AA8
:103B500012788DF810201D228DF8112012228DF878
:103B6000122037228DF8132030228DF814206A227B
:103B70008DF815200D228DF8162024228DF817209F
:103B80000C2280238DF8182025228DF804301B216B
:103B900001238DF819200B2226208DF806308DF890
:103BA0000D108DF81A208DF81C30632181222723F7
:103BB0000A2500248DF81B008DF820508DF8084050
:103BC0008DF81D108DF81E208DF81F308DF8210006
:103BD00016208DF822008DF823108DF824208DF802
:103BE000253001AD2B19295D5878FFF789F902348A
:103BF0004FF47A7000F038FB222CF3D10BB030BDBB
:103C00000A0000200B00002030B58BB06B228DF82D
:103C100005208DF807206C228DF80920334A127890
:103C20008DF80A201A228DF80B2010228DF80C2016
:103C30008DF80E201C228DF80F202D4A12788DF859
:103C400010201D228DF8112012228DF8122037220B
:103C50008DF8132030228DF814206A228DF815205B
:103C60000D228DF8162024228DF817200C22802397
:103C70008DF8182025228DF804301B2101238DF8A2
:103C800019200B2226208DF806308DF80D108DF8A6
:103C90001A208DF81C306321812227230A25002455
:103CA0008DF81B008DF820508DF808408DF81D1000
:103CB0008DF81E208DF81F308DF8210016208DF80C
:103CC00022008DF823108DF824208DF8253001ADC9
:103CD0002B19295D5878FFF735F902344FF47A70C3
:103CE00000F0C2FA222CF3D10BB030BD0A00002044
:103CF0000B00002008B5FFF77BFA41F6583000F0C2
:103D0000B3FAFFF70BFFBDE80840FFF77DBF0000E7
:103D10001F4B2DE9F041402280271E4E9A620B2452
:103D20000025B8460A20C6F8288000F09DFAB76141
:103D30000A2000F099FA164B1B69C3F3C013A34085
:103D400014F1FF3445EA0305ECD28027114E062416
:103D5000B8460A20C6F8288000F086FAB7610A2023
:103D600000F082FA0A4B013C1A69F2D140229A61B2
:103D7000094B1A78094B1B6803EB423303F5F053E8
:103D8000074A183302EB4303DD80BDE8F08100BF32
:103D90000008004800040048BA050020B4050020CF
:103DA000800800201A4B40222DE9F04101209A6240
:103DB00000F05AFA8027174E0B240025B846012040
:103DC000C6F8288000F050FAB761012000F04CFAE4
:103DD0000F4B1B69C3F3C013A34014F1FF3445EA32
:103DE0000305ECD280270B4E0624B8460120C6F806
:103DF000288000F039FAB761012000F035FA044B51
:103E0000013C1A69F2D140229A612846BDE8F0814E
:103E1000000800480004004808B5FFF7C3FFA0F6FB
:103E2000C900FCF77FFB06A3D3E90023FCF7E0FB06
:103E3000FCF7B6FE00EE100A08BD00BFAFF300802D
:103E4000BA490C022B87B63F2DE9F0432DED048BC8
:103E500085B004AB03E90700BDF90E00DFED4E8A23
:103E600007EE900AF8EEE77AB0EE608A17EE900A55
:103E7000F0EE409AFCF768FB43A3D3E90023FCF77C
:103E8000E1FC43A3D3E90023FCF7B2FBFCF788FE77
:103E9000BDF9043007EE903AF8EEE77A09EE100A21
:103EA00067EEA87A17EE900AFCF74EFBBDF90630D4
:103EB00007EE903AF8EEE77A044667EEA87A0D46E8
:103EC00017EE900AFCF740FBBDF9083007EE903A78
:103ED000F8EEE77A064667EEA87A0F4617EE900AE4
:103EE000FCF732FB3246804689463B46304639462F
:103EF000FCF77EFB424606460F464B464046494687
:103F0000FCF776FB02460B4630463946FCF7BEF915
:103F100041EC100B08F06CFD204653EC102B2946A9
:103F2000FCF790FC41EC100B08F0B2FB51EC100BCD
:103F3000FCF736FE194A1378012B194B0CBF9FED85
:103F4000190A93ED000A83ED009A1EBFF6EE007A7F
:103F500039EE000A28EE278ADFED137A18BF20EE2B
:103F6000080A07EE100A30EE290A08BF022120EEE7
:103F7000270ADFED0E7A08BF1170A7EE270A05B0F9
:103F8000BDEC048BBDE8F0836666666666664040FD
:103F9000000000A045DF913F0000803909000020AB
:103FA0003408002000000000EE7C7F3F6F12033BCE
:103FB0003D4B2DE9F041DA6C3C4E42F00402DA64EC
:103FC000DA6C94B002F004020392039ADA6C42F0C5
:103FD0000202DA64DA6C02F002020292029A9A6D2C
:103FE00042F480429A659B6D03F480430193002460
:103FF00002254FF003080527019B07944FF4005357
:1040000004A93046049308940595CDF818800997C3
:1040100003F0C4FE4FF4804304A930460493079490
:1040200008940595CDF81880099703F0B7FE4FF472
:10403000004304A930460493079408940595CDF8ED
:104040001880099703F0AAFE4FF482730B934FF484
:10405000E0630C9301230A940E93119412944FF48D
:104060000073134C0F93082310930AA907232046CB
:1040700013930D9504F060F9636823F008036360FF
:10408000636843F480536360636823F040036360B4
:10409000236843F04003236042F2107000F0E4F81C
:1040A00014B0BDE8F08100BF0010024000040048D9
:1040B00000380040214B07B51A6E42F001021A6623
:1040C0001A6E02F001020092009A9A6D42F080523C
:1040D0009A659B6D03F0805301930320019B01F0CF
:1040E0000FF9002211466FF00B0001F01BF90022BE
:1040F00011466FF00A0001F015F9002211466FF029
:10410000090001F00FF9002211466FF0040001F0E0
:1041100009F9002211466FF0030001F003F90022B3
:1041200011466FF0010001F0FDF8002211464FF03A
:10413000FF3001F0F7F803B05DF804FB0010024017
:10414000F0B50268154B9A4287B024D103F5684355
:1041500002271A6E124842F480621A661B6E02979A
:1041600003F480630093009B00264FF4F85303256B
:104170000C2401A9019303960495059401F08AFA91
:1041800004230DEB0301074801930297039604955E
:10419000059401F07FFA07B0F0BD00BF0028014090
:1041A00000080048000C00487047FEE7FEE7FEE705
:1041B000FEE770477047704708B501F077F8BDE833
:1041C000084001F006B90000014801F003BC00BF3F
:1041D0003C920020044B5A6D012A01D05B6D0BB953
:1041E000FCF790BFFCF788BFC4880020FCF77EBFB7
:1041F0000F49D1F8883043F47003C1F888300D4B73
:104200001A68002042F001021A6098601A6822F0D1
:10421000A85222F410221A604FF48052DA601A6811
:1042200022F480221A6098614FF000638B6070471F
:1042300000ED00E000100240054B9A6D02439A65C4
:104240009B6D82B018400190019B02B0704700BF87
:1042500000100240034AD2F8883043F04063C2F8AD
:1042600088307047001002400023834200D170471D
:104270000B2200BF013AFCD10133F6E7084A13696B
:1042800043F00103136193691B0C1B0418439061F5
:10429000136923F0060343F004031361704700BF62
:1042A00000940040054BD3F8902042F00102C3F87F
:1042B0009020D3F890209207FBD570470010024061
:1042C00008B501F00DF8074A136823F0070343F01F
:1042D00001031360044A136943F00403136130BF00
:1042E00008BD00BF0070004000ED00E010B54FF0C9
:1042F000805092B0FFF7A0FF314B1A6842F48072F1
:104300001A605A6842F480625A605A685205FCD5B5
:1043100010230193012307930C9306230D93282365
:104320000E930723274C0F93B022042309920DEB21
:10433000030002220B921093119302F09FF8D4F81D
:10434000903023F02003C4F89030A36923F4007365
:10435000A361FFF7A7FF02F005FBFFF77BFFFFF765
:1043600079FFA36823F0F003A360A36823F4E0635C
:1043700043F48063A360A36823F4605343F40053C1
:10438000A360A36823F00303A3600F4B1A6822F015
:10439000070242F004021A601A6802F00702042AB7
:1043A000FAD1A36823F40043A360E36C43F4805381
:1043B000E364E36C03F480530093009B12B010BDE0
:1043C0000070004000100240002002400F4BD3F864
:1043D000882042F44012C3F88820DA6D42F02002AF
:1043E000DA65DB6D82B003F020030193019B084B7B
:1043F0000422C3F88820074B9A6822F002029A60D0
:104400001A6922F001021A6102B0704700100240DE
:1044100000E100E00094004070B51D4CE36C43F0F7
:104420000103E364E36C88B003F001030193019B93
:104430004FF4C053039302230493002503230A2659
:1044400003A94FF0904006930595079601F022F9D5
:104450004FF4806303931223049303A901234FF0C5
:1044600090400593079601F015F9E36C43F48053EF
:10447000E364E36C03F4805302932A46072143204C
:10448000029B00F04FFF432000F080FF08B070BD9A
:1044900000100240044BDA6C22F48052DA641A6E87
:1044A00022F001021A6670470010024000F56271A6
:1044B000D0F8C80304F0FFBF1C2303FB0103D0F8AE
:1044C000C803D3F8EC2105F023B81C2303FB010338
:1044D000D0F8C8039A6C05F04DB8D0F8C80305F0C1
:1044E000C9B810B50446D0F8C80305F092F8D4F85E
:1044F000C8030121BDE8104005F0AAB8D0F8C803F0
:1045000005F0A9B8D0F8C80305F0AEB8D0F8C803D4
:1045100005F0BEB8D0F8C80305F0B8B8D0F8C803A5
:1045200005F0B8B8D0F8C80305F0B6B8F8B5154C22
:10453000002505234FF0A0420126C4F8C8034027F8
:10454000C0F82042204684E80C002563676125619D
:1045500025626562A562A661E561E660E56201F03B
:1045600075F98021204601F086FE3A46294620460C
:1045700001F060FE80223146204601F05BFE2846B5
:10458000F8BD00BF3C92002008B5D0F8200201F031
:104590000FFA002008BD08B5D0F8200201F0DBF9C1
:1045A000002008BD08B5D0F8200201F0E9F900208C
:1045B00008BD10B51C46D0F820021346224601F073
:1045C0002DFD002010BD08B5D0F8200201F04BFDF4
:1045D000002008BD08B5D0F8200201F011FE00202F
:1045E00008BD08B5D0F8200201F0B9FD002008BDD3
:1045F00008B5D0F8200201F0DEFD002008BD11F062
:10460000800FD0F820324FF01C021BBF01F07F0159
:1046100002FB013102FB013191F83E0008BF91F825
:10462000E201704708B5D0F8200201F0E3FC002059
:1046300008BD08B5D0F8200201F06AFD002008BDD1
:1046400008B5D0F8200201F031FD002008BD08B502
:10465000D0F8200201F054FD08BD000012230B80A9
:10466000004870474000002012230B80004870472C
:104670002C00002004230B800048704754000020C9
:10468000002330B51D46DCB2A24200D830BD040F75
:10469000092C94BF3034373401F8134001EB430444
:1046A000000165700133EEE71A2310B50B80094B4A
:1046B000186808331B68C0180AD0074B07491C68E4
:1046C0000822FFF7DDFF042205492046FFF7D8FF47
:1046D000044810BD307AFF1F347AFF1F5A000020B3
:1046E0006A000020580000201A2310B50B80094BE7
:1046F000186808331B68C0180AD0074B07491C68A4
:104700000822FFF7BDFF042205492046FFF7B8FF46
:10471000044810BD107AFF1F147AFF1F5A000020B2
:104720006A0000205800002010B5044C04480A46D6
:10473000214605F05BF9204610BD00BF0896002019
:1047400035CD000810B5044C04480A46214605F052
:104750004DF9204610BD00BF0896002004CD00088A
:1047600010B5044C04480A46214605F03FF920469E
:1047700010BD00BF08960020F1CC000810B5044C15
:1047800004480A46214605F031F9204610BD00BF15
:10479000089600201CCD000810B5044C04480A46B9
:1047A000214605F023F9204610BD00BF08960020E1
:1047B000D8CC000810B5044C04480A46214605F040
:1047C00015F9204610BD00BF0896002027CD00082F
:1047D00010B5044C04480A46214605F007F9204666
:1047E00010BD00BF08960020E3CC000804230B8016
:1047F000004870475400002010B5044C04480A4695
:10480000214605F0F3F8204610BD00BF08960020B1
:10481000F1CC00080020704700207047D0F8183213
:104820001BB10020C3F81402704702207047D0F873
:104830001C3210B5D0F818425BB194F80002FF2882
:1048400007D09B6894F8012221469847FF2384F8FB
:104850000032002010BD0000432303800048704751
:10486000F4000020432303800048704738010020F3
:104870004323038000487047880100200A230380F7
:10488000004870477C01002008B5FCF7D7FC0020E9
:1048900008BD30B597B00D461446FCF71EFC78B144
:1048A0006846FCF73BFC129B139A5B0A43EAC2532F
:1048B000013B2B604FF400732380002017B030BD04
:1048C0004FF0FF30FAE773B50C4615461E46FCF76D
:1048D00004FC58B14FF40073009301966A02002360
:1048E0002046FCF753FC002002B070BD4FF0FF30B3
:1048F000FAE773B50C4615461E46FCF7EEFB58B1B9
:104900004FF40073009301966A0200232046FCF7DF
:1049100017FD002002B070BD4FF0FF30FAE738B548
:104920000546D0F81842FFF792FED5F81832C4F8C1
:104930000C024BB1D5F81C32D4F80402DB6804F544
:1049400003719847002038BD022038BDF8B50F78B4
:1049500017F0600306460C4623D0202B19D1CA88D5
:104960004B78C2B13906D0F818520BD5D0F81C12CA
:1049700018468F682946B847E2882946304605F030
:1049800051F806E085F8003285F80122294605F045
:104990005EF80020F8BDD0F81C0284681846A047D5
:1049A000F7E74B780A2BF4D101220149E7E700BF72
:1049B0003C08002010B583210446FFF704FE0321C4
:1049C0002046FFF700FE82212046FFF7FCFDD4F8C9
:1049D000183253B1D4F81C325B689847D4F81802E7
:1049E00006F016FD0023C4F81832002010BDF8B5FB
:1049F000037C04467BBB4FF4007302228321FFF744
:104A0000D8FD4FF40073022203212046FFF7D1FDA9
:104A10000823032282212046FFF7CBFD4FF40770C5
:104A200006F0EEFC0646C4F8180220B3D4F81C3297
:104A30001B689847277C0025C6F81452C6F8185200
:104A400087B94FF40073D6F8042203212046FFF7FC
:104A5000F7FD3846F8BD402302228321FFF7A9FD68
:104A60004023D0E74023D6F8042203212046FFF755
:104A7000E7FD2846F8BD0120F8BD000008B5024852
:104A800002F0ACFE002008BD1897002070B5184A4F
:104A9000184C194E00254FF4E13384E82C002046D1
:104AA0000C236361E5602561A56103F045F90122EE
:104AB00031462046114C02F0ABFE114B236041F20F
:104AC0008733E3602046532363602561A56002F0CD
:104AD00069FE204602F0F8FD0A4B0B4AD3F8183263
:104AE0002846C3F80862C3F81052C3F8042270BD08
:104AF0000038014018970020F1970020F0AB00200B
:104B00000004004088890020E4A3002010B5FCF7D1
:104B1000E4FA0B4C94F9003060B1002B03DAFCF797
:104B20008DFB00232370FCF7F3FA003018BF01203F
:104B3000404210BD0BB9FF2323704FF0FF3010BD72
:104B40003D080020202838B503D0212848D0002077
:104B500038BD2C4C0B6823602B4D0B7923714B799E
:104B6000637128468B79A37102F038FE23792846B9
:104B70002BB1022B01D0002301E04FF400536279E6
:104B8000C360012A20D04FF0000301D3022A1ED0B7
:104B9000A2790361072A4FF0000301D0082A19D037
:104BA0008360236843600C22002383614261C361F8
:104BB000154803F0C1F8154B15491B68124801222E
:104BC000194402F025FEC2E74FF4C063E0E74FF45A
:104BD0008063DDE70369002BE2D04FF48053DFE709
:104BE000084B1A680A701A68120A4A705A888A7042
:104BF000DA78CA701A790A715A794A719B798B717D
:104C0000A5E700BF9000002018970020380800207A
:104C1000F19700200A4B30205B6890FAA0F00F2239
:104C2000B0FA80F092FAA2F203F03001B2FA82F206
:104C300003F00F0321FA00F0D34043EA001070475D
:104C4000002800400B4B4FF480505B6890FAA0F0B6
:104C50004FF47062B0FA80F092FAA2F203F480513D
:104C6000B2FA82F203F4706321FA00F0D34043EA0F
:104C700000107047002800400B4B4FF470005B6839
:104C800090FAA0F04FF47022B0FA80F092FAA2F2FB
:104C900003F47001B2FA82F203F4702321FA00F0F7
:104CA000D34043EA00107047002800400A4B7020B0
:104CB0001B6890FAA0F00F22B0FA80F092FAA2F2EC
:104CC00003F07001B2FA82F203F00F0321FA00F050
:104CD000D34043EA00107047002800400B4B4FF4CC
:104CE000E0401B6890FAA0F04FF47062B0FA80F0D8
:104CF00092FAA2F203F4E041B2FA82F203F4706392
:104D000021FA00F0D34043EA001070470028004029
:104D10000B4B4FF440101B6890FAA0F04FF4702238
:104D2000B0FA80F092FAA2F203F44011B2FA82F2E1
:104D300003F4702321FA00F0D34043EA00107047D7
:104D40000028004019B1C0F81C1200207047022052
:104D50007047D0F8182210B572B1D2F8144201236E
:104D600064B9C2F814328321B2F81032D2F80822A2
:104D7000FFF75FFC204610BD022010BD184610BD95
:104D8000D0F8182210B562B1047C44B94FF4007316
:104D9000D2F804220321FFF753FC002010BD40236A
:104DA000F6E7022010BD00002DE9F04FC14DC24CC6
:104DB000002387B02B6002460E68131A9E4200F251
:104DC00089802378672B40F08C8094F802C0E378C8
:104DD00094F806E0E27AE17BE07C94F816A0DFF834
:104DE00024B3B64FB64EDFF82093DFF82083ACF142
:104DF000300C303B0CEB8C0C03EB4C0CE379AEF13C
:104E0000300E303B0EEB8E0E03EB4E0EA37A303B92
:104E1000303A03EB830302EB4303A27B303A303991
:104E200002EB820201EB4202A17C3039303801EB07
:104E3000810100EB4101E07DAAF1300A0AEB8A0A08
:104E4000303800EB4A00DFF894A25FFA8CFC5FFA7E
:104E50008EFEDBB2D2B2C9B2C0B287F800C086F80B
:104E600000E08BF8003089F8002088F800108AF8FC
:104E70000000CDF804C0CDF800E0FDF7ABFD9AF8D6
:104E800000209BF80030049299F80020039298F8D3
:104E9000002002923A78DFF850B201923278009204
:104EA0008849894A584606F08BFB884A03461070A9
:104EB0008748D0F81822DBB2C2F81032C2F808B224
:104EC000FFF747FF0023834A237001231370824AB0
:104ED000136011E02B6812F8016BE65401332B606C
:104EE0006AE76F2B4FF0000614D1FCF7F3FBFCF7D9
:104EF000F2FBFCF7CBFB267000232A686E491846AC
:104F0000934240F054817248FFF73AFF002007B007
:104F1000BDE8F08F422B02D1FCF7ECFBEBE7622BF4
:104F200004D1FCF7BBFB00232370E5E7452B02D13E
:104F3000FCF7C2FBDFE7652BF3D0462B02D1FCF771
:104F4000CBFBD8E7662BECD06C2B02D1FCF7FCFB3B
:104F5000E9E7722B40F08680FFF7DAFE0646FFF79E
:104F6000D7FEC6F30313DFF89CA1554E00F00F00E7
:104F700003EB830300EB43038AF80030FFF7AEFE38
:104F80000746FFF7ABFEC7F3031300F00F0003EB78
:104F9000830300EB43033370FFF788FE8046FFF77F
:104FA00085FEC8F30313454FDFF8608100F00F0062
:104FB00003EB830300EB43033B70FFF743FE8146A3
:104FC000FFF740FEC9F3031300F00F0003EB830368
:104FD00000EB430388F80030FFF71CFE8346FFF721
:104FE00019FECBF30313DFF8209100F00F0003EB61
:104FF000830300EB430389F80030FFF73DFE83464F
:10500000FFF73AFECBF3031303EB830300F00F002B
:1050100000EB4300314B3249C0B21870314B5A6833
:105020001B689AF80030049099F80020039298F8D1
:10503000002002923A78DFF8B0A001923278009214
:105040005046214A06F0BCFA204A03461070204818
:10505000D0F81822DBB2C2F808A2C2F81032FFF76B
:1050600078FE60E7552B53D11F4E2049164A304633
:1050700006F0A6FA154A034610701548D0F8182213
:10508000DBB2C2F81032C2F80862FFF762FE1149C3
:1050900001220A7016490A60164900230B6016495E
:1050A00023700B600C490A6014490A70144A13708B
:1050B00022E700BF149700202CAC0020E4AB0020B6
:1050C000E5AB002056CD000814C30200E6AB00207B
:1050D000888900203892002088970020F0970020CF
:1050E00092CD000800280040FC9F0020D7CD00088A
:1050F0000C970020F89F0020E8AB0020158D0020C1
:105100007989002010970020ECAB00200897002040
:105110005A2B18D1274E284A2849304606F050FA13
:10512000274A034610702748D0F81822DBB2C2F88D
:105130001032C2F80862FFF70CFE00232370224BE6
:1051400001221A60D8E6582B17D11A4E1A4A1F4965
:10515000304606F035FA1A4A034610701948D0F85E
:105160001822DBB2C2F81032C2F80862FFF7F1FD74
:10517000002323700122164BE3E7592B7FF4BCAECA
:105180000C4E0D4A1349304606F01AFA0C4A0346F3
:1051900010700C48D0F81822DBB2C2F81032C2F8F6
:1051A0000862FFF7D6FD002323700B4A90E658549F
:1051B0000133A5E6FC9F002014C302001CCE0008AA
:1051C000E6AB002088890020F89F00205ACE000816
:1051D000E8AB0020A2CE0008F07C012005480121A8
:1051E00001600548012101600448D0F800D0406802
:1051F0000047000060100240000001400000FF1F57
:1052000011481249026800608A423FF4E7AFDFF8B4
:1052100040D0002103E00F4B5B58435004310E484F
:105220000E4B42189A42F6D30D4A02E0002342F890
:10523000043B0C4B9A42F9D3FEF7DAFF06F0BCF8B8
:10524000FCF738FDFEE70000F07F0120EFBEADDE89
:1052500000800120A8D10008000000207804002070
:10526000780400201CB00020FEE7000010B5084BB9
:10527000044618684FF47A73B0FBF3F000F092F82C
:10528000002221464FF0FF3000F04CF8002010BD06
:105290000C00002008B5032000F032F80020FFF7D2
:1052A000E5FFFEF707FF002008BD0000024A136873
:1052B00001331360704700BF14B00020014B186821
:1052C000704700BF14B0002038B50446FFF7F6FF62
:1052D0000546FFF7F3FF401BA042FAD338BD00009C
:1052E000024A136823F002031360704710E000E0E5
:1052F000024A136843F002031360704710E000E0B5
:10530000074AD36823F4E0631B041B0C43F0BF631C
:10531000000243F4003300F4E0600343D3607047BD
:1053200000ED00E0174B30B5DC68C4F30224C4F193
:105330000703251D042B28BF0423062D4FF001056C
:1053400005FA03F303F1FF338CBF033C002419403B
:10535000A14005FA04F4013C2240002842EA01027F
:105360004FEA0212AFBF00F1604000F00F00064BA1
:10537000D2B2A5BF00F56140D2B21A5480F8002322
:1053800030BD00BF00ED00E014ED00E04209012354
:1053900000F01F0003FA00F0014B43F822007047B1
:1053A00000E100E00138B0F1807F0AD2064B074AE5
:1053B0005860F02182F823100020072298601A60BC
:1053C00070470120704700BF10E000E000ED00E0F2
:1053D000704708B5FFF7FCFF08BD000030B5002896
:1053E0005BD001682E4B99424FF0140441D82D4AEE
:1053F0000A44B2FBF4F292004264A3F2074303644E
:10540000022380F825308468C36805690A6823434D
:105410002B4345692B4385692B43C5692B43056A9B
:1054200022F47F5222F030022B431343B4F5804F15
:105430000B6011D01C4B026C446C9A424FF00F036E
:105440001FD11A490A68A34022EA03030B6042688D
:105450000B68A2401A430A6000230122C363C3629F
:1054600003634363836380F8252080F82430184663
:1054700030BD0F4B0B44B3FBF4F39B0043640D4B67
:10548000BDE70D490A68A34022EA03030B604368A5
:105490000A68A34013430B60DEE7012030BD00BF64
:1054A00007040240F8FFFDBF00000240A8000240D0
:1054B000F8FBFDBF00040240A804024010B500281C
:1054C00034D001680B6823F001030B6000230B60EC
:1054D000174B99424FF0140420D8164A0A44B2FBE5
:1054E000F4F292004264A3F207430364416C026C3D
:1054F00001238B405360104B9A420CBF0F4C104C51
:105500000F2322688B4022EA030323600023C36336
:1055100080F8243080F82530184610BD094B0B4424
:10552000B3FBF4F39B004364074BDEE7012010BD9F
:1055300007040240F8FFFDBF00000240A80002403F
:10554000A8040240F8FBFDBF00040240F0B590F84B
:105550002440012C36D090F825500124EDB2A5420C
:1055600080F824404FF000064FF0020428D180F864
:1055700025400468C6632668476C26F0010626604D
:10558000066CBD407560636083680568102B036B13
:105590000BBFA260A160E160E2604BB1236843F001
:1055A0000E0323602B6843F001032B600020F0BD45
:1055B000236823F004032360236843F00A03F0E721
:1055C00080F824600220F0BD90F82530022B03D033
:1055D0000423C363012070470368016C1A6822F03A
:1055E0000E021A601A6822F001021A60436C01224E
:1055F00002FA03F34B60002380F8252080F8243062
:1056000018467047016C426C036870B40E681D68E0
:105610000424944026420ED015F0040F0BD01A68D3
:1056200092065EBF1A6822F004021A60036B4C6097
:1056300073B370BC184702249440264212D015F070
:10564000020F0FD01A68950606D41A6822F00A02D3
:105650001A60012380F8253000234C6080F8243044
:10566000C36AE5E708249440344211D02C070FD5D3
:105670001C6824F00E041C60012303FA02F24A6045
:10568000C36380F82530002380F82430436BCFE7D4
:1056900070BC70472DE9F04F85B00B68DFF8A8812A
:1056A000674C01930023019ADA4002D105B0BDE8AE
:1056B000F08F0126019A9E4012EA060E00F0B1809A
:1056C0004A6822F01007022F16D14FEAD30900EBE7
:1056D000890903F0070AD9F820504FEA8A0A4FF0E7
:1056E0000F0C0CFA0AFC25EA0C0C0D6905FA0AF5F8
:1056F00045EA0C05C9F820504FEA430C0325D0F8C1
:1057000000B005FA0CF5ED4302F0030A0BEA050BB5
:105710000AFA0CF9013F49EA0B09012FC0F8009081
:1057200011D8876805EA0709CF6807FA0CF747EA36
:1057300009078760476827EA0609C2F300179F40F8
:1057400047EA09074760BAF1030F07D1C76A27EA9A
:105750000606C2F3C0079F403E43C662C668354096
:105760008E6806FA0CF63543C560D50059D5D8F8D1
:10577000605045F00105C8F86050D8F8605023F03B
:10578000030606F1804605F0010506F5803603950F
:1057900003F0030C039DB5684FEA8C0C0F2707FA42
:1057A0000CF7B0F1904F25EA07073CD0254DA842F1
:1057B0003BD005F58065A84239D005F58065A84243
:1057C00037D005F58065A84235D005F58065A8423B
:1057D00033D005F58065A84214BF0725062505FAD4
:1057E0000CF53D43B56025686FEA0E06D70354BF3C
:1057F00035404EEA050525606568970354BF35407E
:105800004EEA05056560A568D70254BF35404EEAEB
:105810000505A560E568920254BF35404EEA0505CE
:10582000E56001333FE70025D9E70125D7E70225E9
:10583000D5E70325D3E70425D1E70525CFE700BF4A
:105840000004014000040048001002402DE9F0412E
:1058500004468AB000287CD090F8853303F0FF021C
:105860001BB980F88423FEF7D7FD2546032355F89E
:10587000100B84F8853302F0A6FD0FCD6E460FC6DF
:105880000FCD0FC695E8030086E8030004F1040875
:1058900098E80E00206802F07CFD0021206802F0EC
:1058A00098FD0022606804F13C0304F11005012614
:1058B0001146824203F11C033BD1002223461746C6
:1058C00083F8E021A3F8422001320F2A83F8E17126
:1058D00083F8E371C3F8E871C3F8EC71C3F8F471AD
:1058E00003F11C03ECD10FCD6E460FC60FCD0FC6D2
:1058F00095E8030086E8030098E80E00206802F0AF
:105900007FFD012384F8387084F88533636A012BA6
:1059100002D1204600F0B3FCA36A012B02D120463D
:1059200000F0C0FC206803F04BF800200AB0BDE88E
:10593000F08103F81C2C23F8162C03F81B6C03F8D9
:10594000191C43F8141C43F8101C43F8081C0132BE
:10595000AFE70120EAE790F88433012B10B5044645
:105960000CD0012380F88433006803F01DF8206810
:1059700002F023FD002084F8840310BD022010BD36
:1059800090F88433012B10B504460FD0012380F822
:105990008433006802F017FD206802F0D4FF20680D
:1059A00003F00EF8002084F8840310BD022010BD1F
:1059B00010B5044658B1032380F88533FFF7E0FFA4
:1059C0002046FEF767FD002084F8850310BD012006
:1059D00010BD00002DE9F04F076887B00446384637
:1059E00003F028F80290002840F05581206802F06A
:1059F000F3FF002800F04F81206802F0EDFF8007E0
:105A000048BF2268206842BF536903F00203536114
:105A100002F0E2FF10F400250CD0206802F0E0FF55
:105A200007F530698046A3464E460025B8F1000FC1
:105A300040F03481206802F0CFFF42030BD520688C
:105A400002F0D6FF2646834607F510690025BBF114
:105A5000000F40F0A181206802F0BEFF002815DA97
:105A6000D7F8043823F00103C7F8043894F8B833A2
:105A7000012B40F02C82002184F8B813204600F05E
:105A80001BFC2268536903F000435361206802F055
:105A9000A3FF03050BD5D7F80838DE0702D520464B
:105AA000FEF72CFD2268536903F4006353612068FC
:105AB00002F092FF000114D523685A6902F00062D7
:105AC0005A6194F8B823002A40F005825B6D0121E9
:105AD000C3F3830384F8B813C4F8BC33204600F042
