:020000040800F2
:1000000000800120C1700008D9B80008DBB80008E2
:10001000DDB80008DFB80008E1B800080000000003
:10002000000000000000000000000000E3B800082D
:10003000E5B8000800000000E7B80008E9B80008CB
:100040002971000829710008297100082971000828
:100050002971000829710008297100082971000818
:100060002971000829710008297100082971000808
:1000700029710008297100082971000829710008F8
:1000800029710008297100082971000829710008E8
:100090002971000829710008297100088D9600084F
:1000A00029710008297100082971000829710008C8
:1000B00029710008297100082971000829710008B8
:1000C00029710008297100082971000829710008A8
:1000D0002971000829710008297100082971000898
:1000E0002971000829710008297100082971000888
:1000F0002971000829710008297100082971000878
:100100002971000821B90008297100082971000827
:100110002971000829710008297100082971000857
:1001200029710008297100082971000809B900081F
:100130002971000829710008297100082971000837
:1001400029710008297100086D960008FDB80008A3
:100150002971000829710008297100082971000817
:100160002971000829710008297100082971000807
:100170002971000829710008297100080000000099
:08018000297100082971000833
:1001900010B5054C237833B9044B13B10448AFF3C1
:1001A00000800123237010BDC00400200000000067
:1001B00064E2000808B5034B1BB103490348AFF3E1
:1001C000008008BD00000000C404002064E20008B4
:1001D000034613F8012B002AFBD1181A0138704787
:1001E00001F0FF01102A2BDB10F0070F08D010F8E8
:1001F000013B013A8B422DD010F0070F42B3F6D1EC
:10020000F0B441EA012141EA014122F007047FF004
:1002100000070023F0E80256083C85EA010586EA5B
:10022000010685FA47F5A3FA87F586FA47F6A5FA97
:1002300087F68EB9EED1F0BC01F0FF0102F00702A3
:1002400032B110F8013B013A83EA010313B1F8D14E
:100250000020704701387047002D06BF354603382F
:10026000073815F0010F07D1013015F4807F02BF68
:10027000013015F4C03F0130F0BC0138704700BFB9
:1002800081F0004102E000BF83F0004330B54FEA47
:1002900041044FEA430594EA050F08BF90EA020FB4
:1002A0001FBF54EA000C55EA020C7FEA645C7FEA47
:1002B000655C00F0E2804FEA5454D4EB5555B8BF6A
:1002C0006D420CDD2C4480EA020281EA030382EADB
:1002D000000083EA010180EA020281EA0303362D6D
:1002E00088BF30BD11F0004F4FEA01314FF4801C40
:1002F0004CEA113102D0404261EB410113F0004F52
:100300004FEA03334CEA133302D0524263EB430308
:1003100094EA050F00F0A780A4F10104D5F1200EA6
:100320000DDB02FA0EFC22FA05F2801841F1000101
:1003300003FA0EF2801843FA05F359410EE0A5F1D5
:1003400020050EF1200E012A03FA0EFC28BF4CF006
:10035000020C43FA05F3C01851EBE37101F00045BC
:1003600007D54FF0000EDCF1000C7EEB00006EEBC9
:100370000101B1F5801F1BD3B1F5001F0CD3490853
:100380005FEA30004FEA3C0C04F101044FEA4452AA
:1003900012F5800F80F09A80BCF1004F08BF5FEA31
:1003A000500C50F1000041EB045141EA050130BD11
:1003B0005FEA4C0C404141EB010111F4801FA4F1B4
:1003C0000104E9D191F0000F04BF01460020B1FA09
:1003D00081F308BF2033A3F10B03B3F120020CDA41
:1003E0000C3208DD02F1140CC2F10C0201FA0CF01F
:1003F00021FA02F10CE002F11402D8BFC2F1200C84
:1004000001FA02F120FA0CFCDCBF41EA0C01904039
:10041000E41AA2BF01EB0451294330BD6FEA040482
:100420001F3C1CDA0C340EDC04F11404C4F120026D
:1004300020FA04F001FA02F340EA030021FA04F37F
:1004400045EA030130BDC4F10C04C4F1200220FAD6
:1004500002F001FA04F340EA0300294630BD21FA14
:1004600004F0294630BD94F0000F83F4801306BFDA
:1004700081F480110134013D4EE77FEA645C18BFCE
:100480007FEA655C29D094EA050F08BF90EA020F65
:1004900005D054EA000C04BF1946104630BD91EA5D
:1004A000030F1EBF0021002030BD5FEA545C05D160
:1004B0004000494128BF41F0004130BD14F580049F
:1004C0003CBF01F5801130BD01F0004545F0FE4113
:1004D00041F470014FF0000030BD7FEA645C1ABF48
:1004E000194610467FEA655C1CBF0B46024650EA7F
:1004F000013406BF52EA033591EA030F41F40021AB
:1005000030BD00BF90F0000F04BF0021704730B530
:100510004FF4806404F132044FF000054FF0000105
:1005200050E700BF90F0000F04BF0021704730B5C6
:100530004FF4806404F1320410F0004548BF40429B
:100540004FF000013EE700BF42004FEAE2014FEAF0
:1005500031014FEA02701FBF12F07F4393F07F4FCB
:1005600081F06051704792F0000F14BF93F07F4FFD
:10057000704730B54FF4607401F0004521F0004140
:1005800020E700BF50EA010208BF704730B54FF0C6
:1005900000050AE050EA010208BF704730B511F0CB
:1005A000004502D5404261EB41014FF4806404F103
:1005B00032045FEA915C3FF4DCAE4FF003025FEA85
:1005C000DC0C18BF03325FEADC0C18BF033202EB0D
:1005D000DC02C2F1200300FA03FC20FA02F001FA67
:1005E00003FE40EA0E0021FA02F11444C1E600BF06
:1005F00070B54FF0FF0C4CF4E06C1CEA11541DBFB9
:100600001CEA135594EA0C0F95EA0C0F00F0DEF883
:100610002C4481EA030621EA4C5123EA4C5350EA68
:10062000013518BF52EA033541F4801143F48013B9
:1006300038D0A0FB02CE4FF00005E1FB02E506F04A
:100640000042E0FB03E54FF00006E1FB03569CF09F
:10065000000F18BF4EF0010EA4F1FF04B6F5007FA5
:1006600064F5407404D25FEA4E0E6D4146EB060617
:1006700042EAC62141EA55514FEAC52040EA5E50A0
:100680004FEACE2EB4F1FD0C88BFBCF5E06F1ED84A
:10069000BEF1004F08BF5FEA500E50F1000041EB81
:1006A000045170BD06F0004646EA010140EA02002E
:1006B00081EA0301B4EB5C04C2BFD4EB0C0541EA50
:1006C000045170BD41F480114FF0000E013C00F365
:1006D000AB8014F1360FDEBF002001F0004170BD89
:1006E000C4F10004203C35DA0C341BDC04F11404A2
:1006F000C4F1200500FA05F320FA04F001FA05F22E
:1007000040EA020001F0004221F0004110EBD370FA
:1007100021FA04F642EB06015EEA430E08BF20EA26
:10072000D37070BDC4F10C04C4F1200500FA04F3C9
:1007300020FA05F001FA04F240EA020001F000415B
:1007400010EBD37041F100015EEA430E08BF20EACE
:10075000D37070BDC4F1200500FA05F24EEA020E16
:1007600020FA04F301FA05F243EA020321FA04F045
:1007700001F0004121FA04F220EA020000EBD370FC
:100780005EEA430E08BF20EAD37070BD94F0000FFC
:100790000FD101F00046400041EB010111F4801F30
:1007A00008BF013CF7D041EA060195F0000F18BFE1
:1007B000704703F00046520043EB030313F4801F1D
:1007C00008BF013DF7D043EA0603704794EA0C0FD7
:1007D0000CEA135518BF95EA0C0F0CD050EA4106ED
:1007E00018BF52EA4306D1D181EA030101F000416A
:1007F0004FF0000070BD50EA410606BF1046194692
:1008000052EA430619D094EA0C0F02D150EA01369D
:1008100013D195EA0C0F05D152EA03361CBF1046DE
:1008200019460AD181EA030101F0004141F0FE417D
:1008300041F470014FF0000070BD41F0FE4141F401
:10084000780170BD70B54FF0FF0C4CF4E06C1CEA01
:1008500011541DBF1CEA135594EA0C0F95EA0C0FB6
:1008600000F0A7F8A4EB050481EA030E52EA033571
:100870004FEA013100F088804FEA03334FF0805592
:1008800045EA131343EA12634FEA022245EA1115BF
:1008900045EA10654FEA00260EF000419D4208BF70
:1008A000964244F1FD0404F5407402D25B084FEA1D
:1008B0003202B61A65EB03055B084FEA32024FF4C9
:1008C00080104FF4002CB6EB020E75EB030E22BF26
:1008D000B61A754640EA0C005B084FEA3202B6EBE6
:1008E000020E75EB030E22BFB61A754640EA5C0095
:1008F0005B084FEA3202B6EB020E75EB030E22BF25
:10090000B61A754640EA9C005B084FEA3202B6EB25
:10091000020E75EB030E22BFB61A754640EADC00E4
:1009200055EA060E18D04FEA051545EA16754FEA46
:1009300006164FEAC30343EA52734FEAC2025FEA64
:100940001C1CC0D111F4801F0BD141EA00014FF0F3
:1009500000004FF0004CB6E711F4801F04BF0143C4
:100960000020B4F1FD0C88BFBCF5E06F3FF6AFAEE0
:10097000B5EB030C04BFB6EB020C5FEA500C50F170
:10098000000041EB045170BD0EF0004E4EEA1131F3
:1009900014EB5C04C2BFD4EB0C0541EA045170BDFA
:1009A00041F480114FF0000E013C90E645EA060E3E
:1009B0008DE60CEA135594EA0C0F08BF95EA0C0F6C
:1009C0003FF43BAF94EA0C0F0AD150EA01347FF4B4
:1009D00034AF95EA0C0F7FF425AF104619462CE78B
:1009E00095EA0C0F06D152EA03353FF4FDAE1046EE
:1009F000194622E750EA410618BF52EA43067FF43F
:100A0000C5AE50EA41047FF40DAF52EA43057FF4CE
:100A1000EBAE12E74FF0FF3C06E000BF4FF0010CD9
:100A200002E000BF4FF0010C4DF804CD4FEA410C3D
:100A30007FEA6C5C4FEA430C18BF7FEA6C5C1BD00A
:100A400001B050EA410C0CBF52EA430C91EA030F8B
:100A500002BF90EA020F0020704710F1000F91EAE8
:100A6000030F58BF994208BF90422CBFD8176FEAB6
:100A7000E37040F0010070474FEA410C7FEA6C5C84
:100A800002D150EA013C07D14FEA430C7FEA6C5C8B
:100A9000D6D152EA033CD3D05DF8040B704700BFB7
:100AA0008446104662468C461946634600E000BF05
:100AB00001B5FFF7B7FF002848BF10F1000F01BDD7
:100AC0004DF808EDFFF7F4FF0CBF012000205DF8A2
:100AD00008FB00BF4DF808EDFFF7EAFF34BF012027
:100AE00000205DF808FB00BF4DF808EDFFF7E0FFC0
:100AF00094BF012000205DF808FB00BF4DF808ED11
:100B0000FFF7CEFF94BF012000205DF808FB00BF77
:100B10004DF808EDFFF7C4FF34BF012000205DF859
:100B200008FB00BF4FEA410C7FEA6C5C02D150EA3F
:100B3000013C0AD14FEA430C7FEA6C5C02D152EAD5
:100B4000033C02D14FF0000070474FF001007047A6
:100B50004FEA410212F5001215D211D56FF47873E5
:100B6000B3EB625212D94FEAC12343F0004343EA88
:100B7000505311F0004F23FA02F018BF4042704763
:100B80004FF00000704750EA013005D111F00040ED
:100B900008BF6FF0004070474FF00000704700BF83
:100BA0004FEA4102B2F1E04324BFB3F5001CDCF18F
:100BB000FE5C0DD901F0004C4FEAC0024CEA5070C7
:100BC000B2F1004F40EB830008BF20F001007047F6
:100BD00011F0804F21D113F13872BCBF01F00040F9
:100BE000704741F480114FEA5252C2F11802C2F12B
:100BF000200C10FA0CF320FA02F018BF40F00100AC
:100C00004FEAC1234FEAD32303FA0CFC40EA0C005D
:100C100023FA02F34FEA4303CCE77FEA625307D19A
:100C200050EA01331EBF4FF0FE4040F440007047D1
:100C300001F0004040F0FE4040F40000704700BF6B
:100C400053B94AB9002908BF00281CBF4FF0FF3133
:100C50004FF0FF3000F07AB9ADF1080C6DE904CE29
:100C600000F006F8DDF804E0DDE9022304B0704787
:100C70002DE9F0478C460D460446089E002B51D1C5
:100C80008A4217466DD9B2FA82FEBEF1000F0BD030
:100C9000CEF1200C01FA0EF520FA0CFC02FA0EF748
:100CA0004CEA050C00FA0EF44FEA174A250CBCFB7F
:100CB000FAF81FFA87F90AFB18CC45EA0C4508FB3D
:100CC00009F3AB420AD9ED1908F1FF3280F0238114
:100CD000AB4240F22081A8F102083D44ED1AA4B2D3
:100CE000B5FBFAF00AFB105544EA054400FB09F98C
:100CF000A14509D9E41900F1FF3380F00A81A1452B
:100D000040F2078102383C44A4EB090440EA084061
:100D10000021002E61D024FA0EF4002334607360A9
:100D2000BDE8F0878B4207D9002E54D0002186E819
:100D300021000846BDE8F087B3FA83F1002940F0AE
:100D40008E80AB4202D3824200F2FA80841A65EBB5
:100D500003050120AC46002E3FD086E81010BDE808
:100D6000F08712B90127B7FBF2F7B7FA87FEBEF199
:100D7000000F34D1EB1B3A0C1FFA87FC0121B3FBA7
:100D8000F2F8250C02FB183345EA03450CFB08F387
:100D9000AB4207D9ED1908F1FF3002D2AB4200F2A5
:100DA000D1808046ED1AA3B2B5FBF2F002FB1055DC
:100DB00043EA05440CFB00FCA44507D9E41900F103
:100DC000FF3302D2A44500F2B8801846A4EB0C040D
:100DD00040EA08409DE731463046BDE8F087CEF155
:100DE000200405FA0EF307FA0EF720FA04F83A0C7D
:100DF00025FA04F448EA0308B4FBF2F14FEA184577
:100E000002FB11441FFA87FC45EA044501FB0CF381
:100E1000AB4200FA0EF409D9ED1901F1FF3080F070
:100E20008A80AB4240F2878002393D44EB1A1FFAB8
:100E300088F5B3FBF2F002FB103345EA034500FBF3
:100E40000CF3AB4207D9ED1900F1FF386FD2AB427A
:100E50006DD902383D44EB1A40EA01418FE7C1F1F8
:100E6000200722FA07F88B4005FA01F448EA030349
:100E700020FA07FE4FEA134CFD404EEA040EB5FB84
:100E8000FCF94FEA1E440CFB19551FFA83F844EA9B
:100E9000054509FB08F4AC4202FA01F200FA01FA36
:100EA00008D9ED1809F1FF3043D2AC4241D9A9F17C
:100EB00002091D442D1B1FFA8EFEB5FBFCF00CFB36
:100EC00010554EEA054400FB08F8A04507D9E41880
:100ED00000F1FF3529D2A04527D902381C4440EA49
:100EE0000940A4EB0804A0FB02894C45C6464D46C8
:100EF00015D312D056B1BAEB0E0364EB050404FA15
:100F000007F7CB401F43CC40376074600021BDE839
:100F1000F0871846F8E69046E0E6C245EAD2B8EB1C
:100F2000020E69EB03050138E4E72846D7E740469F
:100F300091E78146BEE7014678E702383C4445E741
:100F4000084608E7A8F102083D442BE7704700BFB8
:100F500010B5064C0123237006F05CFA234618B93D
:100F6000227802F0FE022270187810BD00000020E6
:100F700010B5064C0123237006F0B6F9234618B9C4
:100F8000227802F0FE022270187810BD00000020C6
:100F900007B501934FF400730093520200230846F3
:100FA00006F0E0F9003018BF012003B05DF804FB43
:100FB00007B501934FF400730093520200230846D3
:100FC00006F0AAFA003018BF012003B05DF804FB58
:100FD00010B5124B1B78DB0796B014461CD40329BE
:100FE00003D8DFE801F00E051014042016B010BD80
:100FF000684606F07FF9129B139A5B0A43EAC253D4
:1010000023600020F2E74FF400731380F9E74FF4F8
:10101000007313600120E9E70320E7E700000020E8
:10102000034B1A1803EB8003107A5B685B68184760
:10103000FC040020064B1A5C42B901221A541A180B
:1010400003EB8003107A5B681B6818470020704729
:10105000FC04002030B4054C251804EB80046068C3
:101060008468287AA44630BC604700BFFC04002096
:1010700030B4054C251804EB80046068C468287AF5
:10108000A44630BC604700BFFC040020054B10B4F0
:101090001C1803EB8003207A5B685DF8044B1B6926
:1010A000184700BFFC04002001380A44914200D1D7
:1010B000704711F8013B00F8013FF7E70244904206
:1010C00000D1704700F8011BF9E70000174AF0B59E
:1010D0000024234616461568C5B1D0F80072BD42FB
:1010E00015D15768D0F80852AF4210D11789B0F81F
:1010F0000652AF420BD1B9B90C2202FB03635B89E4
:10110000B3F5807F14BF00201020F0BD012401330F
:10111000022B02F10C02DED10CB10020F0BD02293D
:101120000CBF00201220F0BD1020F0BDE004002014
:10113000F0B5204CD0F80062002322462568B54265
:1011400009D16768D0F80852AF4204D12789B0F8B6
:101150000652AF4222D00133022B04F10C04EDD130
:10116000136813B1D3681BBB01230C245C4315190E
:101170001651D0F80842B0F80602288100206C60B1
:10118000688191B90C2101FB03214989013189B2A0
:101190000C2000FB0322581C5181F0BD0029F1D026
:1011A0000C2101FB0321498911B94FF48071EFE74C
:1011B0000020F0BDE004002030B5451E012D11D8FF
:1011C0000A490C2202FB05135C8924F4807398B24F
:1011D00008B1013CA0B202FB05F3CA18508118B94E
:1011E000C85030BD022030BD002030BDE0040020DA
:1011F000D0F82432D0F800220433490A92F80222AF
:10120000B1FBF2F1186830B1814202D3091A0833F8
:10121000F8E7586808447047D0F8102270B501F11B
:10122000090322B3D0F814220024551E2E2615F8E7
:10123000010F202804F1010409D0052808BFE5208A
:10124000092C04BF1E700133013303F8010C0B2C71
:10125000EDD1D07A0872D0690860547E107E40EAE1
:1012600004208880D07D927D42EA0022CA8000223C
:101270001A7070BD026810B552B111460B4611F8D4
:10128000014B202C0CD93A2CF8D1511C8B4202D0A6
:101290004FF0FF3010BD1278302AF9D101330360CE
:1012A000002010BD08B590B1D0F800327BB193F8A2
:1012B000002262B1B3F80612B0F80422914206D1BE
:1012C00093F80102FFF7ACFE10F0010000D00920F6
:1012D00008BDCA7E8B7E032843EA022301BF487DF6
:1012E0000A7D42EA002243EA02431846704770B57D
:1012F000D0F82C520446014601232A4690F80102F8
:10130000FFF7B6FED0B9D4F82032D4F8182284F80A
:101310000402EB1A934201D3002070BD94F80362DB
:10132000012EF9D9D4F8183294F801021D442A4646
:1013300001232146FFF79CFE013EF1E7012070BD2D
:1013400090F804320BB1FFF7D2BF1846704738B59A
:101350000446FFF7F5FF0546002854D194F8003203
:10136000032B47D194F80532012B43D101464FF4AA
:1013700000722046FFF7A2FE552284F8FE21AA2221
:1013800084F8FF215222227062706122A27084F8D8
:10139000E721D4F8102284F8E8214121E17084F893
:1013A000E611C2F3072184F8E911110C120E84F83A
:1013B000EB21D4F80C2284F8EA11C2F3072184F857
:1013C000EC2184F8ED11110C120E84F8EF21D4F801
:1013D0001C2284F8EE117220013284F8E40184F8B2
:1013E000E501C4F82C22214694F80102FFF740FEE3
:1013F00084F805520022114694F80102FFF746FED8
:10140000003018BF012038BDD0F82C328B4270B5A7
:1014100006460D4613D0FFF793FF044668B92A46E7
:101420000123314696F80102FFF714FE00281CBF85
:101430004FF0FF350124C6F82C52204670BD002421
:10144000FBE70000002310B580F804324FF0FF33B3
:10145000C0F82C320446FFF7D7FFC0B994F8FF213B
:1014600094F8FE3143EA02234AF65522934210D102
:10147000D4F83630084A23F07F4393420AD0D4F898
:10148000520020F07F40801A18BF012010BD0320B9
:1014900010BD022010BD00BF46415400F0B500232E
:1014A000036085B0074608461546FFF7E3FE061EB3
:1014B000C0F22381954B53F82640002C00F01F8189
:1014C0003C6094F8003273B194F80102FFF7A8FD74
:1014D000C70708D4002D00F0148110F0040000D0DC
:1014E0000A2005B0F0BD0023F0B284F8003284F881
:1014F0000102FFF79FFDC10700F105810DB1420711
:10150000EED400212046FFF79DFF012840F0DC804B
:1015100004F5E371002211F8043C03B10B684DF8A7
:1015200022300132042A01F11001F4D100265DF8C5
:101530002650002D00F0BF8029462046FFF782FF8D
:10154000002840F0B980227BE37A43EA0223B3F516
:10155000007F40F0BC80E37D207CA17D84F8030205
:1015600051EA032100F1FF3308BF616AC4F8181281
:10157000012B00F2AC80667B84F80262002E00F042
:10158000A680731E334240F0A280A37C677C47EAAA
:1015900003273B07A4F8087240F09980227DE37C82
:1015A00094F80FE053EA0223A27B08BF236A52EAB1
:1015B0000E2200F08C8001FB00FE02EB171070443D
:1015C0008342C0F084801B1AB3FBF6F3002B7ED05D
:1015D00040F6F576B3427ED94FF6F576B34294BF26
:1015E0000226032602332A442844032EC4F8143268
:1015F000C4F81C52C4F82022C4F828026DD1002F70
:1016000065D1E26AC4F824229B0003F2FF13B1EB18
:10161000532F5CD34FF0FF33C4F81032C4F80C32B0
:10162000032E4FF0800384F805322DD194F8312039
:1016300094F8303043EA0223012B25D1691C20465F
:10164000FFF7E2FE00BB94F8FF2194F8FE3184F826
:10165000050243EA02234AF65522934214D1226836
:101660002B4B9A4210D103F1FF53D4F8E42103F538
:10167000005320339A4201BFD4F8E831C4F8103245
:10168000D4F8EC31C4F80C32224A84F80062138892
:1016900001339BB21380A4F806321F4B1A689442A0
:1016A00004BF00221A60DA6894424FF000007FF411
:1016B00018AFD86015E702200136042E7FF437AF4B
:1016C000032804D101200CE70328FBD008B10D202A
:1016D00007E7054637E7012684E7002FF7D0724475
:1016E000022EC4F824224FEA43021BBFD21803F093
:1016F0000103134603EB520387E70B20F1E60C20AE
:10170000EFE62846EDE60320EBE600BFDC04002010
:1017100052526141F8040020E0040020D0F8143255
:101720000239023B99423DBF90F80232D0F82802BC
:1017300001FB0300002070470129F8B506460D465D
:1017400059D9D0F81432994255D290F80032022B70
:1017500027D0032B36D0012B4DD101EB5104D0F80B
:10176000201201EB5421FFF74FFE10B14FF0FF3074
:10177000F8BDD6F82012671CC4F3080401EB57210A
:101780003046345DFFF740FE0028EFD1C7F308076D
:10179000EB07F05D44EA00204CBF0009C0F30B00EA
:1017A000F8BDD0F8201201EB1521FFF72DFE00281F
:1017B000DCD16D0005F4FF757319705D5B7840EA4C
:1017C0000320F8BDD0F8201201EBD511FFF71CFE65
:1017D0000028CBD1AD0005F4FE7573199878DA783E
:1017E0005B78000440EA0260725D104340EA032027
:1017F00020F07040F8BD0120F8BDD0F8082270B587
:101800000446012A0D46A4F8061201D1022070BD3B
:10181000D0F80032D3F814128A42F7D2F2B993F812
:101820000012032902D1D3F82412C1B9B3F8081267
:101830008D42EBD2D3F82402C4F80C220028E5D064
:10184000D4F8003200EB151005F00F0503EB451539
:10185000C4F81002C4F81452002070BD114693F869
:1018600002620A463601B5421146D4F8000202D29D
:10187000FFF754FFE0E7FFF75FFF431C024609D084
:101880000128C3D9D4F80032D3F814329842BDD21B
:10189000AD1BE8E7012070BD10B5B0F80612044694
:1018A000FFF7ABFF0346B0B9D4F81012D4F800022A
:1018B000FFF7AAFD034670B901462022D4F81402AE
:1018C000FFF7FCFBD4F81422E5211170D4F80022B4
:1018D000012182F80412184610BD01292DE9F041BA
:1018E00005460C4616466FD9D0F8143299426BD291
:1018F00090F80032022B3DD0032B4BD0012B63D14B
:1019000001EB5107D0F8201201EB5721FFF77CFDC6
:1019100000285AD107F10108C7F3080714F00104A1
:101920001FBFEB5D03F00F02330103F0F00314BFA0
:101930001343F3B2EB55D5F82012012385F8043296
:1019400001EB58212846FFF75FFDF0BBC8F30808FC
:1019500044B1C6F3071205F80820012385F80432C4
:10196000BDE8F08115F80820C6F3032622F00F0227
:101970003243F0E7D0F8201201EB1421FFF744FDC9
:1019800018BB640004F4FF74C6F307222E552C44E0
:101990006270E2E7D0F8201201EBD411FFF734FDBA
:1019A00098B9A40004F4FE742919CB781B0603F03F
:1019B000704343EA0602C2F307232A554B70130C07
:1019C000120E8B70CA70C8E70220BDE8F081F8B52E
:1019D00005460F4689B9D0F80C62FEB1D0F8143232
:1019E0009E4228BF01263446D5F8143201349C4269
:1019F00017D3012E14D8002408E0FFF79DFE01281C
:101A000004463BD9013003D14FF0FF342046F8BDE6
:101A1000D5F814329C42F9D33E46E4E70126E2E7CA
:101A2000022421462846FFF787FE30B1411CEBD047
:101A3000012823D0B442D7D1DDE76FF070422146B0
:101A40002846FFF74AFFB8B97FB9D5F81032C5F874
:101A50000C425A1CDAD0013BC5F8103295F8053219
:101A600043F0010385F80532D0E72246394628467F
:101A7000FFF733FF0028E8D00128C5D00124C5E7CF
:101A80002DE9F843B0F806620136B3B20446894640
:101A900013B90420BDE8F883D0F81032002BF8D039
:101AA00016F00F080BD1D0F80C120133C0F8103229
:101AB000D0F8000271B9B0F808329E42E9D2D4F8E9
:101AC0000032A4F8066203EB4813C4F81432002075
:101AD000BDE8F88390F80272013F17EA1617EED1BD
:101AE000FFF72AFE0128054602D80220BDE8F88348
:101AF000421C02D10120BDE8F883D4F80002D0F8DE
:101B000014329D422FD3B9F1000FC2D0D4F80C1279
:101B1000FFF75DFF054600283ED00128E5D0431CB5
:101B2000E8D0D4F80002FFF70BFC01460028E1D111
:101B30004FF40072D4F80002FFF7C0FAD4F8002284
:101B400029461046FFF7EAFD4FF00109C2F82C02C2
:101B5000D4F8000290F802329F420ED3D0F82C3213
:101B6000DF1BC0F82C72C4F80C522946D4F80002CE
:101B7000FFF7D4FDC4F81002A1E780F80492FFF744
:101B8000B6FB0028B6D1D4F80022D2F82C320133AB
:101B9000C2F82C320137DBE70720BDE8F8830000EC
:101BA0002DE9F8430B782F2B04460D4601D05C2B12
:101BB00000D101350026C4F808622B781F2B36D9D6
:101BC0005F4E2B782F2BA84605F10105F9D05C2B31
:101BD000F7D0D4F818720B2220213846FFF76EFA9E
:101BE0004FF0000E08F1FF39F4460821724619F84B
:101BF000013F202B0CF1010C28D92F2B26D05C2B78
:101C000024D02E2B00F0858071450DD9180648BFD1
:101C1000803B4C4D44BFF35C42F0030215F8010FCA
:101C200000287DD08342F9D10620BDE8F8833146F3
:101C30002046FFF7E2FDC4F81462BDE8F88342F0E5
:101C4000020207F80E300EF1010ED0E7212B08EB4F
:101C50000C0534BF04230023BEF1000FE4D0387814
:101C6000E52804BF05203870082904BF9200D2B2CD
:101C700002F00301012902F00C0208BF43F0100337
:101C8000042A08BF43F00803FB7200212046FFF737
:101C9000B4FDF8B9D4F81012D4F80002FFF7B4FB81
:101CA000C0B9D4F8142213789BB1D37A19070BD496
:101CB000D4F8183203F10B0E73450BD012F8017BE8
:101CC00013F8011B8F42F7D000212046FFF7D8FE02
:101CD000DFE70420D4F81832DB7A38B104282CD19D
:101CE00013F0040F08BF0520BDE8F8835A0724D479
:101CF000D4F81412CB7ADB0608D5D4F8003293F866
:101D00000002FFF7E6FAC4F808025AE70520BDE82A
:101D1000F883082988D192008E46D2B20B2166E75B
:101D2000A3F1410019288AD9A3F1610019289EBFA7
:101D3000203B42F00102DBB283E7BDE8F88300BF3D
:101D4000E0E200085FE3000810B504460420D4F880
:101D5000101209B9B0B11DE0D4F80002FFF754FB2E
:101D6000C0B9D4F814221378C3B1E52B0CD02E2BB4
:101D70000AD0D37A03F03F030F2B05D023F02003C2
:101D8000082B01D0002010BD00212046FFF778FE6F
:101D90000028DCD00023C4F8103210BD0420F9E77D
:101DA00038B500210546FFF728FD044678BBD5F875
:101DB0001012D5F80002FFF727FB044638BBD5F810
:101DC00014321B78E52B1BD1D5F81012D5F8000280
:101DD000FFF71AFB044688B901462022D5F8140201
:101DE000FFF76CF90B22D5F81812D5F81402FFF79B
:101DF0005BF9D5F80032012283F80422204638BD71
:101E0000002BE1D001212846FFF73AFECDE7042C54
:101E100008BF0724F2E7012970B504460D4601D832
:101E2000022070BDD0F814329942F9D2D4F814329D
:101E30009D4205D229462046FFF77EFC064608B99A
:101E4000002070BD0128EBD0411C14D0002229468F
:101E50002046FFF742FD78B9D4F810325A1C08D05A
:101E60000133C4F8103294F8053243F0010384F8CA
:101E700005323546DAE7012070BD00007FB50190DC
:101E800004A8009140F8041D1646FFF7F3F9051E5B
:101E900021DB134951F8254064B1124B1A68944272
:101EA00004BF00221A60DA680020944208BFD8609C
:101EB00084F80002019810B1002380F8003241F844
:101EC000250030B1012E08D10022694601A8FFF794
:101ED000E5FA04B070BD0B20FBE70020F9E700BF76
:101EE000DC040020E00400202DE9F043ADF50F7D77
:101EF000904601910546002800F0A6800023C0F816
:101F0000003202F01E0201A986A8FFF7C7FA0646B2
:101F1000002840F0948003AB01998C9306A8FFF74A
:101F20003FFE08F01F078B9C48B9002C5BD017F0D0
:101F30001E0F14BF0121002106A8FFF7C7F818F0F3
:101F40001C0F5BD0002850D004284AD1514B1A688E
:101F50001AB1DB68002B40F09B8006A8FFF720FF3A
:101F600000283ED18B9C47F008073B0750D505F071
:101F700087FBC0F307234FF00008A073E373030C43
:101F8000000E84F80B8084F81C8084F81D8084F88F
:101F90001E8084F81F8023746074869B214693F80A
:101FA0000002FFF796F984F81A8084F81B8084F801
:101FB000148084F81580869B012283F804228046D1
:101FC00030B301461846D3F82C92FFF724FF40B9EE
:101FD000869808F1FF33C0F80C324946FFF714FA2F
:101FE000B0B106462BE00620A9E7E37A13F0110F03
:101FF0002ED118F0040FB8D0082620E00028F0D128
:10200000E37AD80622D418F0020F01D0DA071FD4E1
:102010003B07869B48BF47F02007D3F82C32C5F812
:102020001C3217F0FE0FC5F8204214BF0121002119
:1020300006A8FFF77DF8C5F8280258B902263046F1
:102040000DF50F7DBDE8F0830926F8E70426F6E7D5
:102050000726F4E785F80672DDF81882002785F870
:10206000077298F800022146FFF733F9C5F810020D
:10207000E369C5F80C32B8F80632C5F80872C5F83D
:102080001872C5F82472C5F80082A5F80432D6E7A4
:102090001220A6E7E00400202DE9F74F9B4600231D
:1020A000CBF80030044689461746FFF7FBF8064692
:1020B00050BB94F80732002B40F0D98094F80632D8
:1020C000990740F1D680D4F80832DF42C0F083800F
:1020D000D4F80832D4F80C22934200F2C58094F868
:1020E000063243F0200384F806320DE0D4F824329F
:1020F00073B12046FFF77CF801460028E8D001299B
:1021000009D1022684F80762304603B0BDE8F08F9B
:10211000D4F814127AE04A1C01D10126F2E7D4F86F
:102120001032C4F814120BB9C4F8101294F8063225
:102130005B0611D5D4F80002D4F8182290F80102F9
:1021400001232146FEF794FF0028E6D194F80632D9
:1021500023F0400384F80632D4F800A2D4F8141215
:102160005046FFF7DBFA0028CBD0019B7D0A00EB3D
:1021700003084ED0019A9AF802329AF801022A44D2
:102180009A4284BF019A9D1A2B4642464946FEF761
:102190006FFF0028C1D1D4F81812A1EB08018D42BD
:1021A0000CD94FF4007209EB41212046FEF77CFF69
:1021B00094F8063223F0400384F806326D02D4F816
:1021C00008322B44C4F80832DBF800302B44A94411
:1021D000CBF800307F1B002F3FF47AAFD4F8081201
:1021E000C1F308035BBBD4F8000290F80232013B54
:1021F00003EA512313F0FF03019397D100297FF4E1
:1022000075AFD4F8101200297FF479AFFFF7DFFB28
:1022100072E7D4F8183298450FD0D4F80822D4F8D1
:102220000C329A4209D20123424621469AF8010211
:10223000FEF710FF00287FF470AFC4F81882D4F8BE
:102240000802C0F30800C0F50075BD4228BF3D4636
:102250002A4649462044FEF727FF94F8063243F009
:10226000400384F80632AAE7C4F80C3237E71E466A
:102270004AE7072648E770B50446FFF713F8002839
:1022800058D194F806329A0654D55B0611D5D4F885
:102290000002D4F8182290F8010201232146FEF72B
:1022A000E7FE002845D194F8063223F0400384F875
:1022B0000632D4F81C12D4F80002FFF7A5F806463F
:1022C000C0BBD4F82052EB7A43F02003EB72D4F871
:1022D0000C322B77B4F80C321B0A6B77B4F80E3241
:1022E000AB7794F80F32EB77D4F81032AB76C3F3B8
:1022F00007221B0C2B751B0A6B75EA7605F0C0F9DB
:10230000C0F30723A875EB75030C000E2B766876D7
:10231000AE74EE7494F80632D4F8000223F0200371
:1023200084F80632012380F80432BDE87040FFF7DC
:102330000EB8012070BD10B50446FFF79CFF50B9E0
:102340002046FEF7AFFF30B9D4F82802FEF734FF7D
:1023500008B9C4F8000210BD2DE9F84F04460D4637
:10236000FEF7A0FF064610BB94F80732002B40F0A2
:102370003E81D4F82432002B00F087806A1C3DD1C6
:10238000D4F81072D3F800B003F1040A02255FB349
:10239000B8464FF000094146D4F80002FFF7CCF9E7
:1023A000012809F1010907D8022684F8076230469E
:1023B000BDE8F88F0746EBE7431C01D10126F4E79F
:1023C00008F1010398428046E5D00235AB4521BFB4
:1023D000534643F8089BCAF804709A46D4F8003272
:1023E000D3F814329842E5D3D4F824325D451D6009
:1023F00000F2FF800023CAF80030D8E7D4F80C02BE
:10240000854228BF0546C4F80852002DCFD005F1FB
:10241000FF3841462046FEF7EBFED4F80072C4F8C0
:10242000140201463846FFF779F90028BCD0C5F3FD
:102430000805002DBBD097F80252D4F81822013DB0
:1024400005EA582505449542B1D094F8063259065C
:102450000DD50123214697F80102FEF709FE002859
:10246000ACD194F8063223F0400384F80632D4F855
:10247000000201232A46214690F80102FEF7EAFDF8
:1024800000289BD1C4F8185291E7D4F80C329D4231
:1024900005D994F8062212F0020F08BF1D4600224B
:1024A000D4F80832C4F80822002D3ED1D4F80832FE
:1024B000D4F80C2293427FF67AAFC4F80C3294F829
:1024C000063243F0200384F8063270E70025D4F882
:1024D0000832C3F30803002BE8D0D4F81822954241
:1024E000E4D094F806325B0610D5D4F8000201233C
:1024F000214690F80102FEF7BBFD00287FF45EAF95
:1025000094F8063223F0400384F80632D4F800022F
:1025100001232A46214690F80102FEF79BFD002880
:102520007FF44CAFC4F81852C0E7D4F8000290F81A
:1025300002727F022BB3013B6A1EB3FBF7F1B2FBC1
:10254000F7F28A421DD37A421340D4F81412C4F829
:102550000832ED1A0029B9D0BD4223D8D4F8083288
:102560002B44C4F80832C5F30803002BAED0D4F8CE
:102570000002FFF7D3F800283FF416AF00EB552513
:10258000A5E7D4F8101251B9FFF721FA0128014646
:102590003FF40AAF421C3FF411AFC4F81002C4F874
:1025A0001412D7E794F80632D4F800029B0705D539
:1025B000FFF70DFA014620B93D46CFE7FFF7BCF81B
:1025C00001464A1C3FF4FAAE01297FF6EDAED4F87D
:1025D0000032D3F814329942BFF4E6AED4F8083290
:1025E000C4F814123B44C4F80832ED1BB4E71E468D
:1025F000DDE61126DBE630B587B0054601910028FF
:1026000045D0002201A902A8FEF748FF044630BBCE
:10261000029BC5F8003203ABC5F818320199284671
:10262000FFF7BEFA0446B8B9D5F8141249B1CB7A0F
:10263000DB0628D5029B93F80002FEF74AFEC5F898
:102640000802029BB3F80632A5F80432002128469E
:10265000FFF7D3F8044630B1042C08BF052400234B
:10266000C5F8003209E0D5F808324BB121462846BA
:10267000FEF75EFDC5F81C0238B1204607B030BD3C
:10268000C5F81C42F9E70524E9E71224E7E7092425
:10269000F3E77FB505460E46FEF704FE0446E8B9AB
:1026A0002EB901462846FFF7A8F8044616E001AB0C
:1026B000C5F818322846FFF747FB042811D1C5F8A2
:1026C000104231462846FEF7A7FD00212846FFF7B5
:1026D000D7F90428E9D10023C5F81032204604B008
:1026E00070BD0028E1D1ECE730B5ADF25C4D0122C0
:1026F000019001A986A8FEF7D1FE88B903AB019924
:102700008C9306A8FFF74CFA50B9022106A8FEF7F1
:10271000DDFC28B98B9969B1CD7AEA070CD5072081
:102720000DF25C4D30BD21468698FFF774FB002802
:10273000F6D126E00620F3E7869B93F80002FEF729
:10274000C8FD0446B0B1EB0614D506A98EA84FF417
:102750000872FEF7A9FC02218EA8CDF84044FFF7CD
:102760004CF80028DCD18EA8FFF7EEFA0028D6D06E
:102770000428D5D106A8FFF78FF80028D0D1002C67
:10278000D1D18698FEF7E3FDCAE710B5ADF50E7D11
:102790000C460190012201A986A8FEF77FFEC0B970
:1027A00003AB01998C9306A8FFF7FAF988B98B9BC4
:1027B00093B1E2889A75E288120ADA75A2881A76CD
:1027C000A288120A5A768698012380F80432FEF70E
:1027D000BEFD0DF50E7D10BD0620FAE730B50F4B9E
:1027E0005C7A012C18D85D7AEDB200245C555D7AD4
:1027F00003EB85056860587A184402725A7AD2B29F
:10280000501CC0B258723A2330324B702F230A70DA
:102810008B70CC70204630BD012030BDFC04002000
:102820000022FFF7DBBF00000A4A537A7BB103782E
:10283000303BDBB202EB8301486840B11344002017
:102840001872537A4860013BDBB253727047012023
:10285000704700BFFC0400200021FFF7E5BF08B56A
:1028600080B1D0F8143213B10023C0F8143209B18A
:10287000C0F81012012380F8FC31027009F060FAF0
:10288000002008BD022008BD90F8FC31012B14BFC8
:10289000022000207047012310B580F8FC31D0F8E9
:1028A000143201795B6804469847204609F084FA9F
:1028B000204609F073FA002010BD19B1C0F81412B7
:1028C000002070470220704708B509F06EFA00201A
:1028D00008BD10B5D0F8143201795B6804469847FA
:1028E000204609F069FA002010BD08B5D0F814326E
:1028F0000BB9022008BD1B6898470028F9D108BD14
:1029000008B5D0F814325B689847002008BD38B588
:10291000044600F50275284600F075FA012394F884
:102920000812C4F8F431B4F80E32C4F8F83101F0EA
:102930001F03012B0ED007D3022B10D001F0800112
:10294000204609F058FA03E02946204600F0E6F850
:10295000002038BD2946204600F0DAF9F8E729467C
:10296000204600F0EDF9F3E738B50446154611BBF3
:10297000D0F8F431032B0FD1D0F80C31D0F810215E
:1029800093420BD99B1A9A4228BF1A46C0F80C31C1
:1029900092B2294600F096FA002038BDD0F81432E1
:1029A0001B6923B190F8FC21032A00D198472046E7
:1029B00000F090FAF0E7D0F814329B69002BEBD0CE
:1029C00090F8FC21032AE7D19847E5E770B5134654
:1029D00004460E4600293DD1D0F8F421022A0FD139
:1029E000C569026A954214D9AA1AC261194692B2FF
:1029F00000F051FA33461A461946204609F02AFAE1
:102A000094F80032012B02D1002384F80032002018
:102A100070BD8369B3FBF2F502FB153565B99A42C7
:102A20000AD8D0F8F821934206D22A4600F033FAA9
:102A3000C4F8F8512B46DEE7D4F81432DB682BB12A
:102A400094F8FC21032A01D120469847204600F043
:102A50004CFAD5E7D0F814325B69002BD7D090F848
:102A6000FC21032AD3D19847D1E738B50022044688
:102A700011464025402309F0A6F92B46C4F8105111
:102A800000228021204609F09EF9012384F8FC31C0
:102A9000D4F8183225622BB1D4F8143221795B684E
:102AA00020469847002038BD01740020704790F8F8
:102AB000FC3180F8FD31042380F8FC3100207047A0
:102AC00090F8FD3180F8FC310020704708B590F88F
:102AD000FC21032A04D1D0F81432DB6903B19847F2
:102AE000002008BD0020704700207047002070477C
:102AF00008B5012280F8FC21D0F81422017952682F
:102B00009047002008BD10B58021044609F073F9F4
:102B100020460021BDE8104009F06DB937B54B786B
:102B200004460D46092B79D8DFE813F0C900E5000B
:102B30007800D90078006D000A007800B9008D0097
:102B40004B881A0A013A062A68D8DFE802F0041C0A
:102B5000296767495200D0F810321B68207C0DF1BC
:102B600006019847BDF80620002A67D0EB88002BA5
:102B700064D09A4228BF1A46ADF806200146204686
:102B800000F07CF95AE0027CD0F8143232B99B6A2A
:102B90000DF10600984702234370E3E7DB6AF7E78D
:102BA000DBB2052B3AD8DFE803F003070B0F13174E
:102BB000D0F810325B68D1E7D0F810329B68CDE7CF
:102BC000D0F81032DB68C9E7D0F810321B69C5E7CE
:102BD000D0F810325B69C1E7D0F810329B69BDE7CD
:102BE000037CDBB9D0F814320DF106005B6B98471B
:102BF000B8E7037C93B9D0F814320DF106001B6BD3
:102C000098470723C8E78B8843B9CB8833B990F836
:102C1000FC318D78032B05F07F0503D12046FFF7AB
:102C200072FF0BE080F8FE51294609F005F92046B5
:102C300000F050F92DB1022384F8FC31002003B0DC
:102C400030BD0123F8E78978304D01292970E5D896
:102C500090F8FC31022B0CD0032BDFD1B1B9022349
:102C600080F8FC314160FFF74BFE204600F032F95E
:102C7000E4E70029F9D001210323416080F8FC3109
:102C80002046FFF732FE0228EFD1C7E7416801294D
:102C9000EBD0C9B2FFF734FE29786160F0E7CA884B
:102CA000012ABBD190F8FC31022B03D0032BB5D104
:102CB000011D64E70146002341F8083F5FE790F8F3
:102CC000FC31023B012BA9D80123C360D0F80432A8
:102CD0000BB10323C360022204F10C014FE74B88C0
:102CE000012BABD1C4F80432D4F8143229469B68C6
:102CF00020469847B9E790F8FC31023B012B8DD86C
:102D00004B88012B9AD10023ECE700BF0805002077
:102D100038B590F8FC31032B04460D460DD10B79E4
:102D2000012B0AD8D0F814329B689847EB8813B966
:102D3000204600F0CFF8002038BDFFF7E4FEFAE7A8
:102D400070B50A788E8802F06002202A04460D468B
:102D5000F3B205D1D0F814329B689847002070BDBB
:102D60004A78012A1CD02AD3032AF7D190F8FC21F3
:102D7000022A40D0032A02D0FFF7C5FEEEE74A88B8
:102D800022B95E0602D0194609F035F8D4F814329B
:102D900029469B6820469847204600F09BF8DDE7CF
:102DA00090F8FC21022A26D0032AE5D14A88002A7D
:102DB000D4D15906F0D0194609F024F8E6E790F886
:102DC000FC21022A17D0032AD6D103F07F0516F082
:102DD000800F00EB0515194614BF143505F58275F3
:102DE00009F017F868B101232B600222294620461A
:102DF00000F044F8B2E75A06B0D0194608F0FBFFDD
:102E0000ACE72860F1E70B7803704B784370CA7821
:102E10008B7803EB022343804A790B7903EB02237F
:102E20008380CA798B7903EB0223C380704710B586
:102E30008021044608F0DFFF20460021BDE8104055
:102E400008F0D9BF30B588B105462B1A15F8014BEB
:102E5000DBB2002CF9D15B00023313800B7003232B
:102E60004B700138022310F8015F05B930BD5A1CC0
:102E7000D2B2CD540233DBB28C54F4E710B5134612
:102E80000222C0F8F42183610A46C361002108F0E0
:102E9000DAFF002010BD08B513460A46002108F0ED
:102EA000D2FF002008BD10B513460322C0F8F4215C
:102EB000C0F808310A46C0F80C31002108F0CAFFFA
:102EC000002010BD08B513460A46002108F0C2FFD5
:102ED000002008BD08B50423C0F8F43100231A46C9
:102EE000194608F0B0FF002008BD08B50523C0F85A
:102EF000F43100231A46194608F0ACFF002008BD43
:102F000020230380004870475C00002020230380BA
:102F1000004870473C000020202303800048704791
:102F2000880000200A230380004870477C000020AE
:102F3000037C10B50446C3B94FF40073022201218B
:102F400008F041FF4FF4007302228121204608F06F
:102F50003AFF42F26C0009F06FFDC4F8180258B154
:102F6000204600F0BEF8002010BD402302220121BF
:102F700008F029FF4023E7E7012010BD10B501212B
:102F8000044608F02AFF8121204608F026FF20464B
:102F900000F0D6F8D4F8180220B109F055FD00234E
:102FA000C4F81832002010BD2DE9F0410B78D0F89C
:102FB000188213F0600406460D462DD0202C4AD10D
:102FC0004A78FE2A05D0FF2A19D0FFF730FF0224E5
:102FD0001FE04C8884B9CF88012F0DD11A060BD57C
:102FE000D0F81C329B6998473A46C8F80000414621
:102FF0003046FFF743FF0CE029463046E5E74A88B4
:10300000002AF9D1CC88002CF6D11B06F4D400F0AC
:103010008BF82046BDE8F0814F780A2F1DD00B2F8A
:103020001FD0012FF5D1097908F0DEFE297930464D
:1030300008F0D3FE95F90430002B337C17DAA3B9DE
:103040004FF4007302228121304608F0BCFE29793A
:10305000304600F031F90024DBE7012208F10401D9
:10306000C7E78B78C8F80430D3E74023EAE723B9F1
:103070004FF4007302223946E6E74023FAE708B529
:1030800000F082F8002008BD08B500F09BF8002091
:1030900008BD09B1C0F81C120020704770B542F29B
:1030A0001803D0F81842E35C054643B942F2140312
:1030B000E35823B1637A13B9012108F09CFE812102
:1030C000284608F098FE637A022B09D104F50052D5
:1030D00028461F230C320121BDE8704008F0BABE1B
:1030E00070BD70B542F25D03D0F81852044600205E
:1030F00028726872E85442F25C03E854D4F81C3237
:103100001B6898470121204608F06EFE8121204669
:1031100008F06AFE05F5005220461F230C320121FB
:10312000BDE8704008F096BED0F8182200230121B7
:103130001372517202F500521F230C3208F08ABE3E
:10314000D0F8183200221A727047000070B542F2AF
:103150002C02D0F818420B4BA35042F23803224401
:10316000E1540023237281210D23054608F06BFEF4
:1031700004F5005228461F230C320121BDE870409F
:1031800008F068BE5553425310B5D0F818321A7A79
:10319000022A044603D014D3042A10D910BD42F2E7
:1031A000190103F500521B32595C00F0B3F80028F6
:1031B00007DA01212046BDE81040FFF7C7BF002114
:1031C000F9E710BD2DE9F041D0F81842267A0546FE
:1031D0001EB1012E62D0BDE8F08142F2100342F22E
:1031E0001408E25842F2300342F23407E25054F835
:1031F0000830E351012108F034FE1F2810D142F2BB
:103200000C03E2582B4B9A420AD142F21903E15CBB
:10321000012905D842F21A03E35C013B0F2B0ED9BA
:1032200042F2190120230522615C284600F0C2FA0F
:10323000022363722846BDE8F041FFF72FBF04F573
:1032400000521B32284600F065F80028237A07DA7E
:10325000052BEFD101212846BDE8F041FFF776BFED
:10326000013B022B24D961890029F4D0D5F818221A
:1032700052F80830994228BF1946D3595B1AD351E6
:1032800042F238032846D654042313728BB204F159
:103290000C028121BDE8F04108F0D5BD42F21903CE
:1032A00004F500521B32E15C00F034F80028D1DB59
:1032B000BDE8F0815553424310B5D0F81842637A07
:1032C000022B05D1812108F096FD0023637210BD09
:1032D0000A0606D5012B04D00121BDE81040FFF7F6
:1032E00035BF10BD70B5D0F8180242F25D0542F24C
:1032F0003C06435D00EBC3040133DBB2A155042B54
:1033000004F501544FEA022208BF0023226043550E
:1033100070BD00002DE9F74F13781E2B05460C46B3
:1033200017460FD013D8122B00F0B48005D8002B0D
:1033300060D0032B7BD020224AE11A2B00F0C880FA
:103340001B2BF8D1D5F8183200245C816BE0282BB8
:1033500000F00B8128D8232B00F0D880252BEAD150
:10336000D0F81862D0F81C3242F25E0742F26008D0
:1033700020465B68F21906EB0801984704460028CE
:1033800040F0D98056F80830013B1A0E32731A0CFF
:1033900072731A0AB273F373F35BF3741A0A30741C
:1033A0007074B2740823DEE02F2B00F0AC815A2B2E
:1033B00000F09D802A2BBED1D0F81862337A002B02
:1033C00040F05E8142F21803F356002BB3DBD0F8D5
:1033D0001C3208469B689847002840F0AC80D5F81E
:1033E0001C322046DB6898470446002800F00D8117
:1033F0002722A1E0D0F8186242F21403F358002B00
:1034000099D1D0F81C3208469B689847044648B1C9
:103410003A2202212846FFF765FF052333724FF059
:10342000FF3400E07081204603B0BDE8F08FD0F893
:103430001832002403F10C0203F11E0102F8014BC3
:103440008A42FBD170221A7342F25C000C2242F2D3
:103450005D01DA741A5C595C914213D003EBC2012E
:1034600042F23C0501324D5D9D7342F24105D2B2FC
:103470004D5D1D7601F50151042A0978597614BF76
:103480001A541C5412225A813A79122A98BF5A812E
:103490000024C8E77B78D0F81822DB0715D4D0F8D1
:1034A0001C32DB6901EBC10403EB84043979237915
:1034B00005338B4228BF0B465381002BE8D0013BDC
:1034C0009BB2D118E05C0873F7E70723B64CF3E72B
:1034D000D0F81832B54908225A8103F113020B3390
:1034E00011F8010D02F801099342F9D1D0E7D0F8A3
:1034F0001832AF4908225A8103F113020B3311F835
:10350000010D02F801099A42F9D1C1E7D0F8186219
:10351000002106F10C0306F1180203F8011B9A4280
:10352000FBD1D5F81C3220465B680DF1020201A9DF
:103530009847044618B13A2202212846EBE00823B6
:10354000F373019B7075013B1A0E32741A0C72747E
:10355000F3741A0A02233375BDF80230B2741A0AE2
:10356000F375B2750C2373815DE7D0F81862337A76
:10357000002B40F0F18042F21803F356002BBFF607
:10358000DAAED0F81C3208469B6898470028D2D1A2
:10359000FB78BA781B0443EA02637A7913433A79D9
:1035A00042F2640E43EA022346F80E30FA79397A81
:1035B00042F2600C41EA0221D5F8182252F80C20A0
:1035C00042F268005F189742315040F2B5802122E4
:1035D0000521B2E7BBB252468121284608F033FCF0
:1035E00056F8093056F8084042F234023B4446F897
:1035F0000930B358E41BDF1B46F80840B750002CD5
:103600007FF446AF032333720DE7FA78BB781204D8
:1036100042EA03627B791A433B7942F2640E42EA42
:10362000032246F80E203B7AF97942F2600C43EA15
:103630000121D5F8183253F80C3042F268005718BF
:103640009F423150C3D842F25E03F35A5A4346F8C0
:103650000E2042F214024B43B258335093427FF48F
:103660006AAEB3F5005F4FF0010128BF4FF400537D
:1036700031729BB206F10C02284608F0EBFBD2E651
:1036800042F26809D0F81C0256F80970D0F814B05C
:1036900042F25E0342F2640AB7F5005F06F10C08DD
:1036A00028BF4FF40057F25A56F80A10B7FBF2F34E
:1036B0002046B1FBF2F29BB24146D847002801DA1E
:1036C00003226EE056F80A3042F234013B4446F8D9
:1036D0000A30725856F80930DB1BD71B46F8093000
:1036E000775023B900212846FFF730FDD0E6B3F527
:1036F000005F28BF4FF400539BB242460121284689
:1037000008F0A8FBC4E65478D0F8183214F002048C
:1037100004D024220521FFF7E5FD80E642F268028D
:1037200042F264019A5A59580A4442F260015958C7
:103730008A427FF60AAE4AE70222327242F25E0203
:10374000B25A5143534342F2140246F80E30B25873
:10375000315091427FF4EFAD4FF40053738142F248
:103760006808D5F81862D5F81C0256F80870D0F829
:1037700010B09F4228BF1F4642F2640942F25E0326
:1037800006F10C0AF25A56F80910B7FBF2F320467C
:10379000B1FBF2F29BB25146D8470028BFF61AAFF0
:1037A00011220421C9E600BF7FE300087FE300087F
:1037B00077E3000870B5D0F8180242F25D0542F2D6
:1037C0003C06415D00EBC1040131A255C9B204F5CC
:1037D00001541B02042923600ABF002341554355AD
:1037E00070BD000010B5084B044618684FF47A739A
:1037F000B0FBF3F000F092F8002221464FF0FF30CA
:1038000000F04CF8002010BDF800002008B503209F
:1038100000F032F80020FFF7E5FF07F0E3FF00209B
:1038200008BD0000024A136801331360704700BFEF
:1038300088890020014B1868704700BF88890020E4
:1038400038B50446FFF7F6FF0546FFF7F3FF401BC8
:10385000A042FAD338BD0000024A136823F00203E5
:103860001360704710E000E0024A136843F002035F
:103870001360704710E000E0074AD36823F4E06368
:103880001B041B0C43F0BF63000243F4003300F43D
:10389000E0600343D360704700ED00E0174B30B5A4
:1038A000DC68C4F30224C4F10703251D042B28BFE0
:1038B0000423062D4FF0010505FA03F303F1FF334E
:1038C0008CBF033C00241940A14005FA04F4013CDC
:1038D0002240002842EA01024FEA0212AFBF00F183
:1038E000604000F00F00064BD2B2A5BF00F561406A
:1038F000D2B21A5480F8002330BD00BF00ED00E0C2
:1039000014ED00E04209012300F01F0003FA00F06B
:10391000014B43F82200704700E100E00138B0F1AC
:10392000807F0AD2064B074A5860F02182F82310A4
:103930000020072298601A6070470120704700BF7E
:1039400010E000E000ED00E0704708B5FFF7FCFF75
:1039500008BD000030B500285BD001682E4B9942AD
:103960004FF0140441D82D4A0A44B2FBF4F29200FD
:103970004264A3F207430364022380F8253084687D
:10398000C36805690A6823432B4345692B4385694E
:103990002B43C5692B43056A22F47F5222F0300283
:1039A0002B431343B4F5804F0B6011D01C4B026CBA
:1039B000446C9A424FF00F031FD11A490A68A34082
:1039C00022EA03030B6042680B68A2401A430A60B4
:1039D00000230122C363C36203634363836380F8EC
:1039E000252080F82430184630BD0F4B0B44B3FB24
:1039F000F4F39B0043640D4BBDE70D490A68A340F7
:103A000022EA03030B6043680A68A34013430B6078
:103A1000DEE7012030BD00BF07040240F8FFFDBF14
:103A200000000240A8000240F8FBFDBF0004024075
:103A3000A804024010B5002834D001680B6823F0B8
:103A400001030B6000230B60174B99424FF01404E5
:103A500020D8164A0A44B2FBF4F292004264A3F260
:103A600007430364416C026C01238B405360104B8D
:103A70009A420CBF0F4C104C0F2322688B4022EA55
:103A8000030323600023C36380F8243080F82530CB
:103A9000184610BD094B0B44B3FBF4F39B00436481
:103AA000074BDEE7012010BD07040240F8FFFDBF11
:103AB00000000240A8000240A8040240F8FBFDBF3D
:103AC00000040240F0B590F82440012C36D090F864
:103AD00025500124EDB2A54280F824404FF00006A5
:103AE0004FF0020428D180F825400468C663266898
:103AF000476C26F001062660066CBD407560636069
:103B000083680568102B036B0BBFA260A160E160A6
:103B1000E2604BB1236843F00E0323602B6843F04F
:103B200001032B600020F0BD236823F00403236011
:103B3000236843F00A03F0E780F824600220F0BD18
:103B400090F82530022B03D00423C3630120704773
:103B50000368016C1A6822F00E021A601A6822F0DB
:103B600001021A60436C012202FA03F34B60002346
:103B700080F8252080F8243018467047016C426C8C
:103B8000036870B40E681D680424944026420ED069
:103B900015F0040F0BD01A6892065EBF1A6822F067
:103BA00004021A60036B4C6073B370BC18470224A4
:103BB0009440264212D015F0020F0FD01A689506D5
:103BC00006D41A6822F00A021A60012380F8253010
:103BD00000234C6080F82430C36AE5E70824944051
:103BE000344211D02C070FD51C6824F00E041C6041
:103BF000012303FA02F24A60C36380F825300023F0
:103C000080F82430436BCFE770BC70472DE9F04F4C
:103C100085B00B68DFF8A881674C01930023019AF7
:103C2000DA4002D105B0BDE8F08F0126019A9E402E
:103C300012EA060E00F0B1804A6822F01007022F47
:103C400016D14FEAD30900EB890903F0070AD9F826
:103C500020504FEA8A0A4FF00F0C0CFA0AFC25EAB2
:103C60000C0C0D6905FA0AF545EA0C05C9F8205057
:103C70004FEA430C0325D0F800B005FA0CF5ED43EC
:103C800002F0030A0BEA050B0AFA0CF9013F49EAB4
:103C90000B09012FC0F8009011D8876805EA0709C1
:103CA000CF6807FA0CF747EA09078760476827EAF1
:103CB0000609C2F300179F4047EA09074760BAF1B7
:103CC000030F07D1C76A27EA0606C2F3C0079F4061
:103CD0003E43C662C66835408E6806FA0CF6354328
:103CE000C560D50059D5D8F8605045F00105C8F831
:103CF0006050D8F8605023F0030606F1804605F0C6
:103D0000010506F58036039503F0030C039DB568A5
:103D10004FEA8C0C0F2707FA0CF7B0F1904F25EA09
:103D200007073CD0254DA8423BD005F58065A84249
:103D300039D005F58065A84237D005F58065A842E1
:103D400035D005F58065A84233D005F58065A842D9
:103D500014BF0725062505FA0CF53D43B560256817
:103D60006FEA0E06D70354BF35404EEA05052560BD
:103D70006568970354BF35404EEA05056560A56840
:103D8000D70254BF35404EEA0505A560E5689202AA
:103D900054BF35404EEA0505E56001333FE7002595
:103DA000D9E70125D7E70225D5E70325D3E7042581
:103DB000D1E70525CFE700BF00040140000400481B
:103DC000001002402DE9F04104468AB000287CD062
:103DD00090F8853303F0FF021BB980F8842307F0C5
:103DE00025FF2546032355F8100B84F8853302F090
:103DF000A6FD0FCD6E460FC60FCD0FC695E803008A
:103E000086E8030004F1040898E80E00206802F038
:103E10007CFD0021206802F098FD0022606804F11A
:103E20003C0304F1100501261146824203F11C03F4
:103E30003BD100222346174683F8E021A3F8422015
:103E400001320F2A83F8E17183F8E371C3F8E87156
:103E5000C3F8EC71C3F8F47103F11C03ECD10FCD7E
:103E60006E460FC60FCD0FC695E8030086E8030027
:103E700098E80E00206802F07FFD012384F8387076
:103E800084F88533636A012B02D1204600F0B3FC2D
:103E9000A36A012B02D1204600F0C0FC206803F089
:103EA0004BF800200AB0BDE8F08103F81C2C23F881
:103EB000162C03F81B6C03F8191C43F8141C43F868
:103EC000101C43F8081C0132AFE70120EAE790F824
:103ED0008433012B10B504460CD0012380F88433C1
:103EE000006803F01DF8206802F023FD002084F82C
:103EF000840310BD022010BD90F88433012B10B54F
:103F000004460FD0012380F88433006802F017FDC7
:103F1000206802F0D4FF206803F00EF8002084F837
:103F2000840310BD022010BD10B5044658B1032310
:103F300080F88533FFF7E0FF204607F0B5FE00204C
:103F400084F8850310BD012010BD00002DE9F04F5D
:103F5000076887B00446384603F028F80290002826
:103F600040F05581206802F0F3FF002800F04F81F7
:103F7000206802F0EDFF800748BF2268206842BF3A
:103F8000536903F00203536102F0E2FF10F40025CD
:103F90000CD0206802F0E0FF07F530698046A346A8
:103FA0004E460025B8F1000F40F03481206802F041
:103FB000CFFF42030BD5206802F0D6FF264683468A
:103FC00007F510690025BBF1000F40F0A1812068C2
:103FD00002F0BEFF002815DAD7F8043823F00103F9
:103FE000C7F8043894F8B833012B40F02C82002134
:103FF00084F8B813204600F01BFC2268536903F0D4
:1040000000435361206802F0A3FF03050BD5D7F8E6
:104010000838DE0702D5204607F07AFE2268536989
:1040200003F400635361206802F092FF000114D58D
:1040300023685A6902F000625A6194F8B823002A92
:1040400040F005825B6D0121C3F3830384F8B8134C
:10405000C4F8BC33204600F0EBFB206802F078FF88
:10406000C10437D507F500667368206823F00103A3
:104070007360002102F018FD616807F51063FF22EC
:104080000298884240F0E7814FF0FF33B361F36953
:1040900043F00113F361236B002B00F0E481D6F8A9
:1040A000843043F00B03C6F88430736C43F00B0389
:1040B0007364D7F80038217C206823F4FE63C7F8C6
:1040C000003804F5627202F090FF2268536903F42D
:1040D00080535361206802F03BFF820420D52068A2
:1040E00002F068FF2268D36823F47053D36003237F
:1040F000E3604023636100F0BBFE824B824A0344CD
:104100009342236800F2B881DA6842F47052DA60B0
:10411000204607F0F0FD2268536903F40053536111
:10412000206802F015FFC3062BD52268936923F09F
:10413000100393613E6AC6F34343022B06F00F0956
:1041400040F0EA8147F6F0731E4215D04FF01C088C
:1041500008FB0948C6F30A163246D8F8EC1138466F
:1041600002F065FED8F8EC313344C8F8EC31D8F8E9
:10417000F8311E44C8F8F8612268936943F01003CF
:104180009361206802F0E4FE070707D5204607F098
:10419000AEFD2268536903F008035361206802F002
:1041A000D7FEC60208D5E9B2204607F0BDFD226859
:1041B000536903F480135361206802F0C9FE800242
:1041C00008D5E9B2204607F0ABFD2268536903F435
:1041D00000135361206802F0BBFE410007D5204662
:1041E00007F0A6FD2268536903F0804353612068FD
:1041F00002F0AEFE42070AD523685D686B0702D560
:10420000204607F099FD23685A6815435D6007B0A2
:10421000BDE8F08F18F0010F49D0EAB211462068CE
:10422000039202F0A9FE10F0010F824632D0012164
:10423000B160396C354B039A99423FD1D9F80810D7
:1042400009041FD4216901290CD13169DBF8E80187
:10425000C1F31201411ACBF8F811DBF8EC11084454
:10426000CBF8EC011146204607F030FD2169012909
:1042700008D13DB9D4F8F42122B904F5627220685E
:1042800002F0B3FED9F8082042F4004242F02002C6
:10429000C9F808201AF0080F04D0204607F010FDD6
:1042A0000823B3601AF0100F1CBF1023B360013550
:1042B0004FEA580820360BF11C0B73E621690129DF
:1042C0000CD13169DBF8E801C1F31201411ACBF8D6
:1042D000F811DBF8EC110844CBF8EC01114620464C
:1042E00007F0F4FC21690129D4D1002DD2D1D4F8F2
:1042F000F421002ACED104F56272206802F075FE26
:10430000C8E700BF405327FFFF340C000A31544F69
:104310001BF0010F74D05FFA85FA5146206802F055
:1043200035FE10F0010F804620D0D7F83438012137
:10433000A94023EA0103C7F834380123C9F808303B
:104340002369012B01BFB36C726C9B18B364514697
:10435000204607F0C4FC2169012907D135B9236D36
:1043600023B904F56272206802F03FFE18F0080FCE
:104370001CBF0823C9F8083018F0100F1CBF102309
:10438000C9F8083018F0400F1CBF4023C9F80830A6
:1043900018F0020F1CBF0223C9F8083018F0800F74
:1043A0002ED023680393726D336DA3EB0208736CF8
:1043B000984528BF984608F10303042293FBF2F3C3
:1043C0000493039B03F5106303EB45130593059BCF
:1043D000049A9B699BB2934204D9726D336D9342E8
:1043E00000D9A3B9B8F1000F0ADC039B012203F541
:1043F000006AD3F83438AA4023EA0203CAF83430FA
:1044000001354FEA5B0B1C3609F12009DBE5A3EB14
:104410000208736C0398984528BF9846042208F157
:10442000030393FBF2F30493237C009352461FFA99
:1044300088F3B16C02F0EAFCB36C4344B364736D6F
:1044400043447365C3E7204607F066FCD5E5204684
:1044500007F05EFC01E602989A600130C3F808227A
:10446000029020330CE6736943F00B0373613369E8
:1044700043F00B0333611CE62F4A304902448A4261
:1044800003D8DA6842F4605241E6A0F574022C4980
:10449000A2F510528A4203D8DA6842F4505236E646
:1044A000A0F183722749A2F5E7428A4203D8DA686D
:1044B00042F440522BE6244A244902448A4203D85B
:1044C000DA6842F4305222E6214A224902448A4202
:1044D00003D8DA6842F4205219E61F4A1F49024401
:1044E0008A4203D8DA6842F4105210E6A0F1B7729B
:1044F0001B49A2F558528A4203D8DA6842F40052A6
:1045000005E6184A184902448A42DA6894BF42F420
:10451000E05242F4C052FAE5062B7FF42DAE082299
:1045200004F5627138464FF01C0802F080FC08FB6D
:104530000948C6F30A161AE6401E1BFF3F420F0049
:104540007F4F12001FD6130060B6E5FE5FE3160032
:1045500000D3CEFE3F771B00C05BB3FEBF912100AE
:104560001F753800E05459FEDF9C410090F8842309
:10457000012A10B504460BD0012280F8842384F868
:104580003810006802F0BCFC002084F8840310BDE1
:10459000022010BD70B5044648B2002801F07F0625
:1045A0004FF01C05B5BF05FB064105FB01413C3141
:1045B00001F5F071C00F0E704870CB7094F8843321
:1045C0008A60012B09D0012384F88433206802F02B
:1045D00094FA002084F8840370BD022070BD4BB2B1
:1045E000002B10B54FF01C02044601F07F00B5BF50
:1045F00002FB004102FB01413C3101F5F071DB0F90
:1046000008704B7094F88433012B09D0012384F88F
:104610008433206802F0B0FA002084F8840310BDCF
:10462000022010BD70B5044601F07F061C2000FB7F
:104630000645C5F8F4310023C5F8F83185F8E131B5
:1046400094F88433C5F8EC21012B85F8E06111D092
:1046500022692068012305F5F07184F88433D2B211
:104660002EB902F06FFB002084F8840370BD02F0C5
:10467000B1FAF8E7022070BD1C2301F07F0103FBB3
:104680000101B1F8F801704770B5044601F07F06EA
:104690001C2000FB0645AA642B6594F8842385F84A
:1046A0003C6000236B6501239A4285F83D3010D0B1
:1046B000226984F8843305F13C01D2B220682EB916
:1046C00002F040FB002084F8840370BD02F082FAFF
:1046D000F8E7022070BD38B54BB2002B01F07F0522
:1046E0004FF01C02B5BF02FB050102FB01013C318A
:1046F00001F5F0710122DB0FEDB28A700D704B7085
:1047000090F88433934204460FD080F884230068E5
:1047100002F09DFB2DB904F56272217C206802F045
:1047200064FC002084F8840338BD022038BD38B50D
:104730004BB2002B05464FF01C0201F07F00B5BFC5
:1047400002FB005102FB01513C3101F5F071DB0F1E
:1047500000248C7008704B7095F88433012B09D0BD
:10476000012385F88433286802F090FB85F88443A0
:10477000204638BD022038BD90F88433012B10B597
:10478000044611D0012380F884330B0608D501F0CC
:104790007F01006802F088F9002084F8840310BDCE
:1047A000006802F093F9F7E7022010BD006870B5C9
:1047B000436A21B943EA02438362002070BD846AE0
:1047C000002503EB14434E1EECB2B44205F1010583
:1047D00006DB3F3100EB810043EA02434360ECE734
:1047E000403400EB8404646803EB1443ECE7036893
:1047F000002059627047026803460121C0F8C013C7
:10480000002083F8B803936943F000639361536D0C
:1048100043F0805343F0030353657047026801235C
:10482000C0F8C433936B43F40033936300207047A4
:1048300070470000024B186800F4C060704700BF6A
:104840000070004037B51E4DAB6DDA00044618D538
:10485000FFF7F0FFB0F5007F23D1802C29D9A02CE1
:104860008CBF02200120174A136823F0070303437B
:104870001360136803F00703181A18BF012003B070
:1048800030BDAB6D43F08053AB65AB6D03F080532F
:104890000193019BFFF7CEFFAB6D23F08053AB6517
:1048A000D8E7802C07D808D0A4F1700358425841AB
:1048B000D9E70020D7E70320D5E70220D3E700BFE0
:1048C0000010024000200240464B9A6812F00C0F84
:1048D00010B509D09A6802F00C020C2A48D1DA68A7
:1048E00002F00302012A43D11A68120737D4D3F821
:1048F00094204FF4706191FAA1F1B1FA81F102F4C0
:104900007062CA40384951F822409A6812F00C0F80
:104910000CBF204600209A6802F00C020C2A54D1E9
:10492000DA68D868702191FAA1F1B1FA81F100F04A
:104930007000C840411C02F0030002284FF4FE4200
:1049400028D0032842D0D86892FAA2F2B2FA82F2B2
:1049500000F4FE40D040B4FBF1F1484327E01A6870
:10496000F02191FAA1F1B1FA81F102F0F002C8E769
:104970009A6802F00C02042A07D09A6802F00C022E
:10498000082A04D119480024C5E71948FBE700208C
:104990000446C0E7D86892FAA2F200F4FE40B2FAE8
:1049A00082F220FA02F21248B0FBF1F05043DB68C9
:1049B0004FF0C06292FAA2F2B2FA82F203F0C06340
:1049C000D34001335B00B0FBF3F010BDD86892FA1E
:1049D000A2F200F4FE40B2FA82F220FA02F2034898
:1049E000E2E700BF0010024048F0000800127A0021
:1049F0000024F40003682DE9F3410546D80641D5AB
:104A0000A54CA36813F00C0F66D12368990705D550
:104A1000AB691BB9012002B0BDE8F0812368286AA8
:104A20001A0756BFD4F8943023681B0903F0F0032B
:104A300083423CD2FFF706FF0028EBD1236843F006
:104A40000803236023682A6A23F0F00313432360DA
:104A50006368EA6923F47F4343EA02236360FFF754
:104A600033FFA368F02292FAA2F2B2FA82F203F0C4
:104A7000F003D340894AD35CD840894B18600020AA
:104A8000FEF7B0FE2B68DE075BD42B689C0700F1B5
:104A9000A3802B68190700F1E7802B685A0700F103
:104AA0001581AA6A002A40F07C810020B3E72368C0
:104AB00043F008032360236823F0F00303432360DB
:104AC0006368EA6923F47F4343EA02236360FFF7E4
:104AD000B9FE0028C3D09DE7AB6913B3236843F048
:104AE00001032360FEF7A6FE064623689B0711D547
:104AF000236843F00803236023682A6A23F0F00345
:104B0000134323606368EA6923F47F4343EA022383
:104B10006360B7E7FEF78EFE801B0228E5D903200D
:104B200079E7236823F001032360FEF783FE06463E
:104B300023689F07A6D5FEF77DFE801B0228F7D9C4
:104B4000EDE7554CA36803F00C03082B09D0A368CC
:104B500003F00C030C2B0BD1E36803F00303032BCE
:104B600006D12368980390D56B68002B8DD151E74F
:104B70006B68B3F5803F10D1236843F48033236022
:104B8000FEF758FE0646236899033FF57EAFFEF711
:104B900051FE801B6428F6D9C1E7B3F5A02F04D1DC
:104BA000236843F480232360E6E7226822F48032FE
:104BB0002260226822F480222260002BE0D1FEF7DE
:104BC00039FE064623689A037FF55FAFFEF732FE93
:104BD000801B6428F6D9A2E72F4CA36803F00C03CE
:104BE000042B09D0A36803F00C030C2B19D1E36844
:104BF00003F00303022B14D123685B0503D5EB6894
:104C0000002B3FF407AF61684FF0F85393FAA3F31A
:104C1000B3FA83F22B69934021F0F8521343636097
:104C200037E7EB687BB1236843F480732360FEF7BA
:104C300001FE064623685F05E5D4FEF7FBFD801BF9
:104C40000228F7D96BE7236823F480732360FEF70B
:104C5000F1FD0646236858057FF51BAFFEF7EAFD18
:104C6000801B0228F6D95AE76B690B4CD3B1D4F8F4
:104C7000943043F00103C4F89430FEF7DBFD0646A0
:104C8000D4F894309B073FF508AFFEF7D3FD801BA7
:104C90000228F5D943E700BF001002402FF00008BA
:104CA000F8000020D4F8943023F00103C4F89430C5
:104CB000FEF7C0FD0646D4F894309F077FF5EDAEB1
:104CC000FEF7B8FD801B0228F5D928E7664CA36DD6
:104CD000DE0027D4A36D43F08053A365A36D03F0DA
:104CE00080530193019B0127604E3368D8051BD583
:104CF000AB68012B29D1D4F8903043F00103C4F8FC
:104D00009030FEF797FD41F288380646D4F890308F
:104D10009A0740D5002F3FF4C4AEA36D23F0805313
:104D2000A365BEE60027DFE7336843F48073336092
:104D3000FEF780FD80463368D905D9D4FEF77AFDA9
:104D4000A0EB08000228F6D9E9E6052B06D1D4F835
:104D5000903043F00403C4F89030CCE7D4F89020AE
:104D600022F00102C4F89020D4F8902022F004022E
:104D7000C4F89020002BC4D1FEF75CFD41F28838C6
:104D80000646D4F890309B07C4D5FEF753FD801B30
:104D90004045F6D9C3E6FEF74DFD801B4045B5D929
:104DA000BDE6314CA36803F00C030C2B3FF432AE8C
:104DB0002368022A23F08073236037D1FEF73AFD7F
:104DC000064623689F012BD46A6BEB6A43EA0223F1
:104DD0002A6B013A43EA0213AA6B120943EA4243DF
:104DE000EA6B5208013A43EA42532A6C5208013AEC
:104DF00043EA4263E360236843F080732360E3681F
:104E000043F08073E360FEF715FD054623689801C3
:104E10003FF54BAEFEF70EFD401B0228F6D97EE6AD
:104E2000FEF708FD801B0228CBD978E6236819011C
:104E300006D423689A005EBFE36823F00303E360AF
:104E4000E36823F0887323F48033E360FEF7F2FC19
:104E5000054623689B017FF528AEFEF7EBFC401B5F
:104E60000228F6D95BE600BF001002400070004047
:104E7000014B1868704700BFF8000020084B4FF442
:104E8000E0629B6892FAA2F2B2FA82F203F4E06363
:104E9000D340044AD35C044A1068D840704700BF2E
:104EA000001002403FF00008F8000020084B4FF4CB
:104EB00060529B6892FAA2F2B2FA82F203F4605353
:104EC000D340044AD35C044A1068D840704700BFFE
:104ED000001002403FF00008F8000020024A13686A
:104EE00043F00403136070470010024003685A6BDC
:104EF00012F0450FFBD05A6B520703D504229A6378
:104F000003207047586B10F0010015BF012040F2DC
:104F1000FF5298639A63704770B5054600680E4665
:104F2000436B13F0450FFBD0436B5B0703D50423A2
:104F30008363032070BD446B14F0010403D001238C
:104F40008363184670BD01F094FCB04201D010207C
:104F500070BD286840F2FF538363214601F08CFC4A
:104F6000274B0340002BECD0002827DB450027D43B
:104F7000840027D4C10027D4020127D4430127D4B9
:104F8000C60127D4050227D44402E0D4810225D4E7
:104F9000C20225D4030325D4460325D4850325D492
:104FA000C40325D4010425D4420425D4830425D484
:104FB00010F0080F0CBF00201A2070BD1C2070BD1F
:104FC000092070BD0A2070BD0B2070BD0C2070BD83
:104FD0000D2070BD0E2070BD0F2070BD112070BD62
:104FE000122070BD132070BD142070BD152070BD3F
:104FF000162070BD172070BD182070BD192070BD1F
:1050000008E0FFFD2DE9F0418EB00023102440227E
:1050100006460193029306930D464FF4806303A95D
:1050200008270068049405920793039701F00FFC8A
:1050300021463046FFF770FF0446002838D1736AD6
:1050400030681B04372403A90393049401F0FFFB89
:1050500021463046FFF760FF044648BB4FF0FF3360
:10506000089330230A9302230B930C90012308A981
:1050700030680D93099701F009FC039403A93324C8
:105080003068049401F0E3FB21463046FFF744FF0B
:10509000044668B96F4640F22A483068436B13EA09
:1050A000080F436B08D019070DD508238363042428
:1050B00020460EB0BDE8F0819B02EFD501F0BCFBAD
:1050C00047F8040FE9E7436B9A0702D5022484638B
:1050D000EEE7436B9B0603D5202383630624E7E7B3
:1050E00040F2FF538363019B1BBA6B60029B1BBAA8
:1050F0002B60DDE72DE9F0438DB00668159F149D08
:10510000012F99464FF00003F36283640365C36483
:1051100088BF01234365F36B43F49573F363F36A2C
:10512000044643F00803806DF3622D4BC362904642
:105130002C4B0268436300238360136823F0100341
:10514000136005FB07F30A469B0806F18001FEF792
:10515000B9FC236A2068022B4FF0400303934FF001
:10516000000304BF4FEA58284FF400754FF01006B3
:10517000049301A94FF4806308BF48EAC958019518
:105180000296059301F063FB31462046FFF7C4FE0B
:1051900010BB4FF0FF3206929022012308920A9032
:1051A000022206A97D4320680B930992079501F01E
:1051B0006DFB012F8CBF1223112301A920680293DC
:1051C000CDF8048001F043FB012F8CBF1221112187
:1051D0002046FFF7A1FEE0640DB0BDE8F08300BFFC
:1051E00057530008735300082DE9F0418CB017465F
:1051F000139E0268DDF84880012E1D464FF0000323
:10520000D36283640365C3648CBF032302234365B5
:10521000D36B044643F48D73C06DD3632F4BD0F82A
:1052200000E0C3622E4B436310238360DEF800303E
:1052300043F01003CEF8003008FB06F380329B08E1
:10524000FEF740FC2068C36A43F00803C362236A88
:10525000022B4FF0400308BF7F0A03934FF0000377
:1052600004BF47EAC5574FF400781025049301A9FD
:105270004FF4806302950593CDF8048001F0E7FABE
:1052800029462046FFF748FE054618BB012E94BF6D
:105290001823192301A920680293019701F0D7FA76
:1052A000012E8CBF192118212046FFF735FE054637
:1052B00080B94FF0FF3306939023089309900A902A
:1052C000012306FB08F606A9206807960B9301F058
:1052D000DDFAE56428460CB0BDE8F0818153000892
:1052E0009D5300087047704703685A6BD20510B58C
:1052F000044610D54FF480729A630123836400231F
:10530000C364FFF7EFFF2268D36B23F4414323F01C
:105310003A03D36310BD5A6B910705D502229A63F5
:10532000C264FFF7E0FFEEE75A6B120704D50822CC
:105330009A630423E364F4E75A6B910603D52022B1
:105340009A630623F6E75A6BD206DCD510229A63DD
:105350000523EFE7704710B5846A01232365A36C2A
:10536000002BFCD0FEF7ECFBA06DFFF7F3FF10BDA8
:10537000704708B5836A986DFFF7FAFF08BD70475C
:1053800010B5846A01232365A36C002BFCD0FEF7C3
:10539000D7FBE06DFFF7F3FF10BD704708B5836AD8
:1053A000D86DFFF7FAFF08BD2DE9F043056A81F8D3
:1053B0005650436AA1F85430836A9A0F0A70C3F3B7
:1053C00083624A70C3F301628A70C3F30742CA70F2
:1053D000C3F30722DBB20A714B71C26A130E1B01C1
:1053E000CB80CB8804469BB2C2F303500343CB80EF
:1053F000C2F303430B72C2F30723D8094872C3F305
:1054000080108872C3F34010C872C3F30010087391
:10541000012D4FF00000487300F2DC809B0203F482
:1054200040630B610B69920002F47F721A430A61B8
:105430000B69226B43EA92730B61C2F3C2630B7573
:10544000C2F302634B75C2F342538B75C2F38243BE
:10545000CB75D30B03F006030B760D7EC2F3072347
:10546000C2F3C0322A430A760D690F7E0A7A0126FA
:10547000023706FA02F2BE404FEAE679A6FB02675F
:1054800002FB09770A656A1CA6FB028902FB0799E1
:10549000C1E91289C3F380125B0003F07E034A76F0
:1054A0008B76236B8A7EC3F3C0152A4303F07F03F8
:1054B0008A76CB76636BDA0F0A77C3F341724A7749
:1054C000C3F382628A779A0D02F00C02CA77CA7F10
:1054D000C3F381552A43CA77C3F3405281F8202091
:1054E000002281F82120C3F3004281F82220C3F377
:1054F000C03281F82320C3F3803281F82420C3F323
:10550000403281F82520C3F3003281F82620C3F30E
:10551000812281F827200125C3F30122C3F346032A
:1055200081F8282081F8293081F82A50A36B1A0EBF
:1055300081F82C20C3F307421202CA85CA8DC3F337
:10554000072692B232431B06CA850B63E36B0A6BD4
:105550001E0E42EA06420A630E6B1A0A02F47F42EA
:1055600032430A630E6BC3F307223243DBB20A6392
:1055700081F83430236C1A0E81F835201A0C12068B
:105580008A638E6B1A0202F47F0232438A638A6B4B
:105590001B029BB213438B638A6B636C42EA1362F8
:1055A0008A6391F83C20C3F30354224381F83C20E2
:1055B0001A0A02F47062CA87CA8FC3F3072492B230
:1055C0002243C3F34603CA8781F8403081F8415033
:1055D000BDE8F083022D1FD1120402F47C12236B6C
:1055E0000A610A691D0E42EA05220A610D69C3F3C8
:1055F00007422A430A610E690027013647F1000776
:10560000FA0442EA5632CA64F6044FF40072C3F355
:1056100007238E640A653DE729203BE72DE9F04F1B
:1056200091B0002504460E468DF8125006F020F980
:1056300076230F930D950E9510AB13E907008DE8B7
:1056400007000A950B950C950AAB0ECB206801F06C
:10565000D7F820688DF81350436823F480734360B3
:1056600001F0EDF80120FEF7EBF82068436843F401
:105670008073436005A94FF48063099305950695EF
:105680000795089501F0E3F82068436B4FF48032EA
:10569000C3F3C01323B140F2FF538363002305E03B
:1056A000436B013AC3F3C013F4D103238DF81330D5
:1056B0009DF813308BB19DF81330DBB28DF81230AA
:1056C0009DF8123003F0FF05002B00F0B1809DF82B
:1056D0001200C0B211B0BDE8F08F4FF4D57305933E
:1056E0000823069305A94023079301F0B0F820682A
:1056F000436B13F0450F14BF012300234FF4803296
:105700000BB9002A7CD1436B12B113F004037FD094
:105710000423836303238DF813309DF813200023A3
:10572000002A7CD1012222624FF08047372505A94B
:105730000593069501F08BF829462046FFF7ECFB10
:105740008DF813009DF8133003F0FF05002BB2D144
:1057500047F00047A84647F480174FF0370B05A9DC
:105760004FF0400A4FF480692068CDF81480CDF8DE
:1057700018B0CDF81CA0CDF82080CDF8249001F011
:1057800066F859462046FFF7C7FB8DF813009DF8D1
:10579000133003F0FF02002B8DD1292305A92068C7
:1057A00005970693CDF81CA00892CDF8249001F03F
:1057B0004EF82068436B13F0450FFBD0436B13F09A
:1057C00004031BBF0423836340F2FF52032308BF7B
:1057D00082638DF813309DF8133003F0FF01002B26
:1057E0007FF469AF01F048F8002805F101054FF694
:1057F000FF7316DB9D42B0D11B238DF813305AE79F
:10580000436B13F0450F14BF01230023013A77E7E0
:10581000426B520646BF4022826329237BE71F4624
:1058200084E79D42E8D0470044BF0223236242E759
:10583000206801F008F8002800F0C280236A042BD9
:1058400026D002230693C023079305A94FF4806353
:10585000206805950895099300F0F9FF2046FFF7A9
:1058600045FB0546002855D10146206801F004F8A3
:105870000421A063206800F0FFFF0821E063206896
:1058800000F0FAFF0C212064206800F0F5FF60644E
:10589000236A022B2BD9062B29D00120236A042B43
:1058A00000F092806062092300040590069305A928
:1058B000C0232068079300F0CAFF2046FFF716FBBD
:1058C000054638BB0146206800F0D6FF0421A062DF
:1058D000206800F0D1FF0821E062206800F0CCFFD2
:1058E0000C212063206800F0C7FF606312E00323EF
:1058F000069305A940232068079300F0A8FF2068BD
:10590000436B13F0450FFBD0436B5D0736D5042383
:10591000836303258DF812509DF81230002B7FF41D
:10592000D6AE31462046FFF73FFD8DF812009DF8B8
:10593000123003F0FF02ABB9B6F854302068089279
:105940001B04059340230725079305A94FF48063A3
:105950000993069500F07BFF29462046FFF7DCFA05
:105960008DF8120004F1100393E807008DE807009A
:10597000231D0ECB206800F043FFA8E6456B15F011
:10598000010502D001258563C4E700F072FF0328FA
:1059900001D01025BEE7206840F2FF5383632946FB
:1059A00000F06AFF10F4604F01D1000C76E781042B
:1059B00008D44204EDD403047FF56FAF0F25A9E7A7
:1059C0002525A7E71325A5E70025A3E7F0B5036A7A
:1059D000032B8DB005460E4600F08880022B00F2A6
:1059E0008380B1F5805F00F08180B1F5006F4CD10C
:1059F000002100680491059100F03EFF80016DD404
:105A000004A92846FFF7FEFA0446002867D1059B43
:105A1000590367D56B6A09901B0406934023372707
:105A2000089306A94FF4806328680A93079700F04B
:105A30000EFF39462846FFF76FFA044600284ED17C
:105A400002230693062406A92868079400F0FFFEA7
:105A500021462846FFF760FA044600283FD16B68CC
:105A60000693AB680793EB6808936B690A93AB697D
:105A70000B9309960CAB13E907008DE8070006AB02
:105A80000ECB286800F0BCFE29E0002930D1006868
:105A90000491059100F0F0FE82011FD404A928466C
:105AA000FFF7B0FA0446D0B9059BDB031AD56B6A41
:105AB00009901B04069340233727089306A94FF447
:105AC000806328680A93079700F0C1FE394628468C
:105AD000FFF722FA044610B90690B3E70E242046D9
