:020000040800F2
:100000000080012099830008B9630008C7630008D5
:10001000CD630008D3630008D96300080000000026
:10002000000000000000000000000000DF63000886
:10003000ED63000800000000FB630008096400088D
:10004000018400080184000801840008018400087C
:10005000018400080184000801840008018400086C
:10006000018400080184000801840008018400085C
:10007000018400080184000801840008018400084C
:10008000018400080184000801840008018400083C
:10009000018400080184000801840008092A00087E
:1000A000018400080184000801840008018400081C
:1000B000018400080184000801840008018400080C
:1000C00001840008018400080184000801840008FC
:1000D00001840008018400080184000801840008EC
:1000E00001840008018400080184000801840008DC
:1000F00001840008018400080184000801840008CC
:100100000184000855640008018400080184000887
:1001100001840008018400080184000801840008AB
:100120000184000801840008018400082D6400088F
:10013000018400080184000801840008018400088B
:100140000184000801840008E129000819640008FE
:10015000018400080184000801840008018400086B
:10016000018400080184000801840008018400085B
:1001700001840008018400080184000800000000D8
:0801800001840008018400085D
:1001900010B5054C237833B9044B13B10448AFF3C1
:1001A00000800123237010BD8004002000000000A7
:1001B0008079010808B5034B1BB103490348AFF32D
:1001C000008008BD00000000840400208079010840
:1001D000034613F8012B002AFBD1181A0138704787
:1001E00001F0FF01102A2BDB10F0070F08D010F8E8
:1001F000013B013A8B422DD010F0070F42B3F6D1EC
:10020000F0B441EA012141EA014122F007047FF004
:1002100000070023F0E80256083C85EA010586EA5B
:10022000010685FA47F5A3FA87F586FA47F6A5FA97
:1002300087F68EB9EED1F0BC01F0FF0102F00702A3
:1002400032B110F8013B013A83EA010313B1F8D14E
:100250000020704701387047002D06BF354603382F
:10026000073815F0010F07D1013015F4807F02BF68
:10027000013015F4C03F0130F0BC0138704700BFB9
:1002800081F0004102E000BF83F0004330B54FEA47
:1002900041044FEA430594EA050F08BF90EA020FB4
:1002A0001FBF54EA000C55EA020C7FEA645C7FEA47
:1002B000655C00F0E2804FEA5454D4EB5555B8BF6A
:1002C0006D420CDD2C4480EA020281EA030382EADB
:1002D000000083EA010180EA020281EA0303362D6D
:1002E00088BF30BD11F0004F4FEA01314FF4801C40
:1002F0004CEA113102D0404261EB410113F0004F52
:100300004FEA03334CEA133302D0524263EB430308
:1003100094EA050F00F0A780A4F10104D5F1200EA6
:100320000DDB02FA0EFC22FA05F2801841F1000101
:1003300003FA0EF2801843FA05F359410EE0A5F1D5
:1003400020050EF1200E012A03FA0EFC28BF4CF006
:10035000020C43FA05F3C01851EBE37101F00045BC
:1003600007D54FF0000EDCF1000C7EEB00006EEBC9
:100370000101B1F5801F1BD3B1F5001F0CD3490853
:100380005FEA30004FEA3C0C04F101044FEA4452AA
:1003900012F5800F80F09A80BCF1004F08BF5FEA31
:1003A000500C50F1000041EB045141EA050130BD11
:1003B0005FEA4C0C404141EB010111F4801FA4F1B4
:1003C0000104E9D191F0000F04BF01460020B1FA09
:1003D00081F308BF2033A3F10B03B3F120020CDA41
:1003E0000C3208DD02F1140CC2F10C0201FA0CF01F
:1003F00021FA02F10CE002F11402D8BFC2F1200C84
:1004000001FA02F120FA0CFCDCBF41EA0C01904039
:10041000E41AA2BF01EB0451294330BD6FEA040482
:100420001F3C1CDA0C340EDC04F11404C4F120026D
:1004300020FA04F001FA02F340EA030021FA04F37F
:1004400045EA030130BDC4F10C04C4F1200220FAD6
:1004500002F001FA04F340EA0300294630BD21FA14
:1004600004F0294630BD94F0000F83F4801306BFDA
:1004700081F480110134013D4EE77FEA645C18BFCE
:100480007FEA655C29D094EA050F08BF90EA020F65
:1004900005D054EA000C04BF1946104630BD91EA5D
:1004A000030F1EBF0021002030BD5FEA545C05D160
:1004B0004000494128BF41F0004130BD14F580049F
:1004C0003CBF01F5801130BD01F0004545F0FE4113
:1004D00041F470014FF0000030BD7FEA645C1ABF48
:1004E000194610467FEA655C1CBF0B46024650EA7F
:1004F000013406BF52EA033591EA030F41F40021AB
:1005000030BD00BF90F0000F04BF0021704730B530
:100510004FF4806404F132044FF000054FF0000105
:1005200050E700BF90F0000F04BF0021704730B5C6
:100530004FF4806404F1320410F0004548BF40429B
:100540004FF000013EE700BF42004FEAE2014FEAF0
:1005500031014FEA02701FBF12F07F4393F07F4FCB
:1005600081F06051704792F0000F14BF93F07F4FFD
:10057000704730B54FF4607401F0004521F0004140
:1005800020E700BF50EA010208BF704730B54FF0C6
:1005900000050AE050EA010208BF704730B511F0CB
:1005A000004502D5404261EB41014FF4806404F103
:1005B00032045FEA915C3FF4DCAE4FF003025FEA85
:1005C000DC0C18BF03325FEADC0C18BF033202EB0D
:1005D000DC02C2F1200300FA03FC20FA02F001FA67
:1005E00003FE40EA0E0021FA02F11444C1E600BF06
:1005F00070B54FF0FF0C4CF4E06C1CEA11541DBFB9
:100600001CEA135594EA0C0F95EA0C0F00F0DEF883
:100610002C4481EA030621EA4C5123EA4C5350EA68
:10062000013518BF52EA033541F4801143F48013B9
:1006300038D0A0FB02CE4FF00005E1FB02E506F04A
:100640000042E0FB03E54FF00006E1FB03569CF09F
:10065000000F18BF4EF0010EA4F1FF04B6F5007FA5
:1006600064F5407404D25FEA4E0E6D4146EB060617
:1006700042EAC62141EA55514FEAC52040EA5E50A0
:100680004FEACE2EB4F1FD0C88BFBCF5E06F1ED84A
:10069000BEF1004F08BF5FEA500E50F1000041EB81
:1006A000045170BD06F0004646EA010140EA02002E
:1006B00081EA0301B4EB5C04C2BFD4EB0C0541EA50
:1006C000045170BD41F480114FF0000E013C00F365
:1006D000AB8014F1360FDEBF002001F0004170BD89
:1006E000C4F10004203C35DA0C341BDC04F11404A2
:1006F000C4F1200500FA05F320FA04F001FA05F22E
:1007000040EA020001F0004221F0004110EBD370FA
:1007100021FA04F642EB06015EEA430E08BF20EA26
:10072000D37070BDC4F10C04C4F1200500FA04F3C9
:1007300020FA05F001FA04F240EA020001F000415B
:1007400010EBD37041F100015EEA430E08BF20EACE
:10075000D37070BDC4F1200500FA05F24EEA020E16
:1007600020FA04F301FA05F243EA020321FA04F045
:1007700001F0004121FA04F220EA020000EBD370FC
:100780005EEA430E08BF20EAD37070BD94F0000FFC
:100790000FD101F00046400041EB010111F4801F30
:1007A00008BF013CF7D041EA060195F0000F18BFE1
:1007B000704703F00046520043EB030313F4801F1D
:1007C00008BF013DF7D043EA0603704794EA0C0FD7
:1007D0000CEA135518BF95EA0C0F0CD050EA4106ED
:1007E00018BF52EA4306D1D181EA030101F000416A
:1007F0004FF0000070BD50EA410606BF1046194692
:1008000052EA430619D094EA0C0F02D150EA01369D
:1008100013D195EA0C0F05D152EA03361CBF1046DE
:1008200019460AD181EA030101F0004141F0FE417D
:1008300041F470014FF0000070BD41F0FE4141F401
:10084000780170BD70B54FF0FF0C4CF4E06C1CEA01
:1008500011541DBF1CEA135594EA0C0F95EA0C0FB6
:1008600000F0A7F8A4EB050481EA030E52EA033571
:100870004FEA013100F088804FEA03334FF0805592
:1008800045EA131343EA12634FEA022245EA1115BF
:1008900045EA10654FEA00260EF000419D4208BF70
:1008A000964244F1FD0404F5407402D25B084FEA1D
:1008B0003202B61A65EB03055B084FEA32024FF4C9
:1008C00080104FF4002CB6EB020E75EB030E22BF26
:1008D000B61A754640EA0C005B084FEA3202B6EBE6
:1008E000020E75EB030E22BFB61A754640EA5C0095
:1008F0005B084FEA3202B6EB020E75EB030E22BF25
:10090000B61A754640EA9C005B084FEA3202B6EB25
:10091000020E75EB030E22BFB61A754640EADC00E4
:1009200055EA060E18D04FEA051545EA16754FEA46
:1009300006164FEAC30343EA52734FEAC2025FEA64
:100940001C1CC0D111F4801F0BD141EA00014FF0F3
:1009500000004FF0004CB6E711F4801F04BF0143C4
:100960000020B4F1FD0C88BFBCF5E06F3FF6AFAEE0
:10097000B5EB030C04BFB6EB020C5FEA500C50F170
:10098000000041EB045170BD0EF0004E4EEA1131F3
:1009900014EB5C04C2BFD4EB0C0541EA045170BDFA
:1009A00041F480114FF0000E013C90E645EA060E3E
:1009B0008DE60CEA135594EA0C0F08BF95EA0C0F6C
:1009C0003FF43BAF94EA0C0F0AD150EA01347FF4B4
:1009D00034AF95EA0C0F7FF425AF104619462CE78B
:1009E00095EA0C0F06D152EA03353FF4FDAE1046EE
:1009F000194622E750EA410618BF52EA43067FF43F
:100A0000C5AE50EA41047FF40DAF52EA43057FF4CE
:100A1000EBAE12E74FF0FF3C06E000BF4FF0010CD9
:100A200002E000BF4FF0010C4DF804CD4FEA410C3D
:100A30007FEA6C5C4FEA430C18BF7FEA6C5C1BD00A
:100A400001B050EA410C0CBF52EA430C91EA030F8B
:100A500002BF90EA020F0020704710F1000F91EAE8
:100A6000030F58BF994208BF90422CBFD8176FEAB6
:100A7000E37040F0010070474FEA410C7FEA6C5C84
:100A800002D150EA013C07D14FEA430C7FEA6C5C8B
:100A9000D6D152EA033CD3D05DF8040B704700BFB7
:100AA0008446104662468C461946634600E000BF05
:100AB00001B5FFF7B7FF002848BF10F1000F01BDD7
:100AC0004DF808EDFFF7F4FF0CBF012000205DF8A2
:100AD00008FB00BF4DF808EDFFF7EAFF34BF012027
:100AE00000205DF808FB00BF4DF808EDFFF7E0FFC0
:100AF00094BF012000205DF808FB00BF4DF808ED11
:100B0000FFF7CEFF94BF012000205DF808FB00BF77
:100B10004DF808EDFFF7C4FF34BF012000205DF859
:100B200008FB00BF4FEA410C7FEA6C5C02D150EA3F
:100B3000013C0AD14FEA430C7FEA6C5C02D152EAD5
:100B4000033C02D14FF0000070474FF001007047A6
:100B50004FEA410212F5001215D211D56FF47873E5
:100B6000B3EB625212D94FEAC12343F0004343EA88
:100B7000505311F0004F23FA02F018BF4042704763
:100B80004FF00000704750EA013005D111F00040ED
:100B900008BF6FF0004070474FF00000704700BF83
:100BA0004FEA4102B2F1E04324BFB3F5001CDCF18F
:100BB000FE5C0DD901F0004C4FEAC0024CEA5070C7
:100BC000B2F1004F40EB830008BF20F001007047F6
:100BD00011F0804F21D113F13872BCBF01F00040F9
:100BE000704741F480114FEA5252C2F11802C2F12B
:100BF000200C10FA0CF320FA02F018BF40F00100AC
:100C00004FEAC1234FEAD32303FA0CFC40EA0C005D
:100C100023FA02F34FEA4303CCE77FEA625307D19A
:100C200050EA01331EBF4FF0FE4040F440007047D1
:100C300001F0004040F0FE4040F40000704700BF6B
:100C400053B94AB9002908BF00281CBF4FF0FF3133
:100C50004FF0FF3000F07AB9ADF1080C6DE904CE29
:100C600000F006F8DDF804E0DDE9022304B0704787
:100C70002DE9F0478C460D460446089E002B51D1C5
:100C80008A4217466DD9B2FA82FEBEF1000F0BD030
:100C9000CEF1200C01FA0EF520FA0CFC02FA0EF748
:100CA0004CEA050C00FA0EF44FEA174A250CBCFB7F
:100CB000FAF81FFA87F90AFB18CC45EA0C4508FB3D
:100CC00009F3AB420AD9ED1908F1FF3280F0238114
:100CD000AB4240F22081A8F102083D44ED1AA4B2D3
:100CE000B5FBFAF00AFB105544EA054400FB09F98C
:100CF000A14509D9E41900F1FF3380F00A81A1452B
:100D000040F2078102383C44A4EB090440EA084061
:100D10000021002E61D024FA0EF4002334607360A9
:100D2000BDE8F0878B4207D9002E54D0002186E819
:100D300021000846BDE8F087B3FA83F1002940F0AE
:100D40008E80AB4202D3824200F2FA80841A65EBB5
:100D500003050120AC46002E3FD086E81010BDE808
:100D6000F08712B90127B7FBF2F7B7FA87FEBEF199
:100D7000000F34D1EB1B3A0C1FFA87FC0121B3FBA7
:100D8000F2F8250C02FB183345EA03450CFB08F387
:100D9000AB4207D9ED1908F1FF3002D2AB4200F2A5
:100DA000D1808046ED1AA3B2B5FBF2F002FB1055DC
:100DB00043EA05440CFB00FCA44507D9E41900F103
:100DC000FF3302D2A44500F2B8801846A4EB0C040D
:100DD00040EA08409DE731463046BDE8F087CEF155
:100DE000200405FA0EF307FA0EF720FA04F83A0C7D
:100DF00025FA04F448EA0308B4FBF2F14FEA184577
:100E000002FB11441FFA87FC45EA044501FB0CF381
:100E1000AB4200FA0EF409D9ED1901F1FF3080F070
:100E20008A80AB4240F2878002393D44EB1A1FFAB8
:100E300088F5B3FBF2F002FB103345EA034500FBF3
:100E40000CF3AB4207D9ED1900F1FF386FD2AB427A
:100E50006DD902383D44EB1A40EA01418FE7C1F1F8
:100E6000200722FA07F88B4005FA01F448EA030349
:100E700020FA07FE4FEA134CFD404EEA040EB5FB84
:100E8000FCF94FEA1E440CFB19551FFA83F844EA9B
:100E9000054509FB08F4AC4202FA01F200FA01FA36
:100EA00008D9ED1809F1FF3043D2AC4241D9A9F17C
:100EB00002091D442D1B1FFA8EFEB5FBFCF00CFB36
:100EC00010554EEA054400FB08F8A04507D9E41880
:100ED00000F1FF3529D2A04527D902381C4440EA49
:100EE0000940A4EB0804A0FB02894C45C6464D46C8
:100EF00015D312D056B1BAEB0E0364EB050404FA15
:100F000007F7CB401F43CC40376074600021BDE839
:100F1000F0871846F8E69046E0E6C245EAD2B8EB1C
:100F2000020E69EB03050138E4E72846D7E740469F
:100F300091E78146BEE7014678E702383C4445E741
:100F4000084608E7A8F102083D442BE7704700BFB8
:100F500080B485B000AFF8607B600B467B811346A0
:100F60007B72FB6822221A70FB6801337A89D2B245
:100F70001A70FB6802337A89120A92B2D2B21A70DE
:100F8000FB6803337A7A1A70FB6804337A68D2B24A
:100F90001A70FB6805337A68120AD2B21A70FB68BD
:100FA00006337A68120CD2B21A70FB6807337A687B
:100FB000120ED2B21A7000BF1437BD465DF8047B22
:100FC000704780B584B000AF03463960FB8007F1FD
:100FD00008003B68002246F26001FFF7B9FF07F105
:100FE0000802FB880821184601F0D3FE42F2107077
:100FF00005F030FC00BF1037BD4680BD80B584B021
:1010000000AF0346FB8007F108000623002246F2EA
:101010004001FFF79DFF07F10802FB8808211846F1
:1010200001F0B7FE42F2107005F014FCFB88184680
:1010300000F004F800BF1037BD4680BD80B584B015
:1010400000AF0346FB8007F108000F23002246F2A1
:101050004001FFF77DFF07F10802FB8808211846D1
:1010600001F097FE42F2107005F0F4FB00BF10375C
:10107000BD4680BD80B584B000AF03463960FB80BB
:1010800007F108003B68002246F27101FFF760FF9C
:1010900007F10802FB880821184601F07AFE322089
:1010A00005F0D8FB00BF1037BD4680BD80B584B0C9
:1010B00000AF0346FB8007F108008023002246F2C0
:1010C0004001FFF745FF07F10802FB880821184699
:1010D00001F05FFE00BF1037BD4680BD2DE9B04373
:1010E0008AB000AF87ED080B87ED061B87ED042B58
:1010F00087ED023B87ED004BD7E90823D7E90001D4
:10110000FFF7C2F802460B4610461946D7E90423FA
:10111000FFF76EFA02460B4690469946D7E906233A
:10112000D7E90201FFF764FA02460B4640464946FA
:10113000FFF7AAF802460B46144683F0004545EC3B
:10114000174BB0EE470AF0EE670A2837BD46BDE8F8
:10115000B083000080B483B000AF0346FB7109493F
:1011600097F907305B09FA7902F01F02012000FAB3
:1011700002F241F8232000BF0C37BD465DF8047B26
:10118000704700BF00E100E080B483B000AF0346C9
:101190003960FB7197F90730002B0BDA0D49FB79A9
:1011A00003F00F03043B3A68D2B21201D2B20B44EF
:1011B0001A7609E0084997F907303A68D2B2120165
:1011C000D2B20B4483F8002300BF0C37BD465DF854
:1011D000047B704700ED00E000E100E080B582B0E4
:1011E00000AF0023FB711E4B1E4A1A601C4B0022ED
:1011F0005A601B4B00229A60194B0022DA60184B90
:1012000000221A61164B00225A61154B01229A6185
:1012100000F0F4F800F02AF80346012B01D0012376
:1012200019E011490E4809F06FFE0346002B01D06A
:101230000123FB71FB79002B0CD14FF400610848AE
:101240000AF0F4FC0346002B02D00123FB7101E0FD
:101250000023FB71FB7918460837BD4680BD00BFEF
:10126000B888002000280140A004002080B483B08A
:1012700000AF0123FB71FB79DBB218460C37BD468A
:101280005DF8047B7047000080B588B002AFF8605D
:10129000C7E900230023FB75194B0022DA651848C3
:1012A00000F024F90346002B14BF01230023DBB216
:1012B000FB75FB7D002B1ED17B6A01933B6A00937B
:1012C000D7E90023F9680E4809F092FE0346002B87
:1012D00014BF01230023DBB2FB75FB7D002B0AD179
:1012E000084907480AF02EF80346002B14BF0123D3
:1012F0000023DBB2FB75FB7D18461837BD4680BD69
:10130000B88800208096980080B588B002AFF86059
:10131000C7E900230023FB75194B00229A65184882
:1013200000F02CF90346002B14BF01230023DBB28D
:10133000FB75FB7D002B1ED17B6A01933B6A0093FA
:10134000D7E90023F9680E4809F024FF0346002B73
:1013500014BF01230023DBB2FB75FB7D002B0AD1F8
:10136000084907480AF04BF80346002B14BF012335
:101370000023DBB2FB75FB7D18461837BD4680BDE8
:10138000B88800208096980080B500AF02480AF027
:101390009AF800BF80BD00BFB888002080B500AFBC
:1013A000034BDB6D184607F094FB00BF80BD00BF08
:1013B000B888002080B500AF034B9B6D184607F03E
:1013C00088FB00BF80BD00BFB888002080B500AF9B
:1013D00002480AF0B7FC0346184680BDB8880020D2
:1013E00080B582B000AF7860796803480AF016F9DA
:1013F00000BF0837BD4680BDB888002080B58AB0E0
:1014000000AF07F1140300221A605A609A60DA6094
:101410001A61324A314B1B6E43F4806313662F4BC3
:101420001B6E03F480633B613B692C4A2B4B9B6C26
:1014300043F002039364294B9B6C03F00203FB60AF
:10144000FB68264A254BDB6C43F00403D364234B33
:10145000DB6C03F00403BB60BB68204A1F4BDB6CF2
:1014600043F00803D3641D4BDB6C03F008037B607F
:101470007B681A4A194BDB6C43F00103D364174BAA
:10148000DB6C03F001033B603B680223BB6101237B
:10149000FB6103233B620C237B624FF4F8537B61B7
:1014A00007F1140319460E4807F0E4FB04237B619F
:1014B00007F1140319460B4807F0DCFB3120FFF756
:1014C00049FE094800F05AF80346002B02D13120AA
:1014D000FFF740FE00BF2837BD4680BD0010024028
:1014E00000080048000C0048B888002080B584B08F
:1014F00000AF78600123FB731E4B07225A601D4B1F
:1015000000229A601B4B0022DA601A4B80221A617B
:10151000184B4FF400725A61164B4FF400629A61F7
:10152000144B4FF440521A62124B134A1A607B68F4
:10153000104A9A650F4A7B6893620E4807F090FA4A
:101540000C4807F0ADF90B4807F0ECF80346FB73C5
:1015500003213B20FFF718FE3B20FFF7FBFDFB7B41
:10156000002B01D0292300E0002318461037BD4688
:1015700080BD00BFF80400204404024080B584B060
:1015800000AF78601E4B07225A601D4B10229A60F4
:101590001B4B0022DA601A4B80221A61184B4FF461
:1015A00000725A61164B4FF400629A61144B4FF46B
:1015B00040521A62124B134A1A607B68104ADA656D
:1015C0000F4A7B6893620E4807F04AFA0C4807F00E
:1015D00067F90B4807F0A6F80346FB7303213B208D
:1015E000FFF7D2FD3B20FFF7B5FDFB7B002B01D0C1
:1015F000292300E0002318461037BD4680BD00BFF8
:101600004005002044040240B0B588B000AFF86146
:1016100087ED060AC7ED050A87ED041AC7ED031A20
:1016200087ED022AC7ED012A6F4B1B78002B02D0F1
:10163000012B51D0A1E0B869FEF786FF04460D46A4
:101640007869FEF781FF02460B469FED594B9FEDEF
:101650005A3B9FED5B2B43EC112B45EC104BFFF7F6
:101660003DFDB0EE407AF0EE607A604B83ED007B9A
:101670005E4BD3E9000154A3D3E90023FFF7E2F85E
:1016800003460C46184621464FF00002584BFEF721
:10169000AFFF03460C4618462146FFF759FA0246AB
:1016A000544B1A60534B1B68B3F5966F04DB514BD8
:1016B0004FF496621A6007E04E4B1B6813F5966F65
:1016C00002DA4C4B4C4A1A604A4B1B68194640F2EE
:1016D0000160FFF7CFFC50E0B869FEF735FF044624
:1016E0000D467869FEF730FF02460B469FED384BFA
:1016F0009FED393B9FED3A2B43EC112B45EC104B02
:10170000FFF7ECFCB0EE407AF0EE607A374B83EDF9
:10171000007B364BD3E900012BA3D3E90023FFF76D
:1017200091F803460C46184621464FF00002304B14
:10173000FEF75EFF03460C4618462146FFF708FAFF
:1017400002462C4B1A602B4B1B68B3F5966F04DBDB
:10175000284B4FF496621A6007E0264B1B6813F57E
:10176000966F02DA234B244A1A60224B1B681946F3
:1017700040F20160FFF77EFC00BF1B4B1B781A464E
:101780001E4B1A60194B18CB18462146FFF708FA72
:1017900002461A4B5A60174B1B68184A9360FB6944
:1017A000164A07CA83E80700F8692037BD46B0BD6E
:1017B000F6285C8FC2F513C0000000000000000096
:1017C00000000000000004406666666666663E40F3
:1017D00000000000008041C09A9999999999A93F09
:1017E000CDCCCCCCCCCCDC3F000000208805002048
:1017F00000408F409005002050FBFFFF188900201B
:1018000080B400AF00231846BD465DF8047B7047E6
:1018100080B485B000AF78600849084BDA6C7B680B
:101820001343CB64054BDA6C7B681340FB60FB68A9
:1018300000BF1437BD465DF8047B704700100240BE
:1018400080B483B000AF786039607B683A689A6191
:1018500000BF0C37BD465DF8047B704780B483B091
:1018600000AF786039607B683A689A6200BF0C37D5
:10187000BD465DF8047B704780B500AF0420FFF7DC
:10188000C7FF8020FFF7C4FF0120FFF7C1FF022040
:10189000FFF7BEFF0820FFF7BBFFA64B0C221A6024
:1018A000A44B01225A60A34B00229A60A14B002254
:1018B000DA60A04B00221A619E494FF090400CF074
:1018C000DBF80C214FF09040FFF7C8FF994B4FF425
:1018D00080421A60974B01225A60964B00229A6010
:1018E000944B0022DA60934B00221A61914992488E
:1018F0000CF0C2F84FF480418F48FFF7AFFF8D4BDB
:101900004FF400721A608B4B00225A60894B0222FE
:101910001A6188494FF090400CF0AEF8854B402298
:101920001A60844B01225A60824B03229A60814BD9
:101930000022DA607F4B00221A617E497F480CF05A
:101940009BF87C4B80221A607A4B00225A60794BBC
:1019500002221A61774979480CF08EF8754B802283
:101960001A60744B01225A60724B03229A60714BC9
:101970000022DA606F4B00221A616E496E480CF04B
:101980007BF86C4B4FF480721A606A4B01225A60EC
:10199000684B03229A60674B0022DA60654B002295
:1019A0001A6164494FF090400CF066F84FF4807172
:1019B0004FF09040FFF744FF5E4B4FF480521A60A7
:1019C0005C4B01225A605B4B03229A60594B002208
:1019D000DA60584B00221A61564957480CF04CF80F
:1019E0004FF480515448FFF72BFF524B01221A60ED
:1019F000504B01225A604F4B03229A604D4B0022FC
:101A0000DA604C4B00221A614A494D480CF034F818
:101A100001214B48FFF714FF464B4FF400421A6078
:101A2000444B01225A60434B03229A60414B0022EF
:101A3000DA60404B00221A613E494FF090400CF0B2
:101A40001BF84FF400414FF09040FFF7F9FE394B7F
:101A500002221A60374B01225A60364B03229A60E9
:101A6000344B0022DA60334B00221A61314934488A
:101A70000CF002F802213248FFF7E2FE2D4B102253
:101A80001A602C4B00225A602A4B02221A61294903
:101A90002A480BF0F1FF274B4FF480621A60254B68
:101AA00000225A60234B01221A6122494FF09040D4
:101AB0000BF0E2FF1F4B40221A601E4B01225A60BE
:101AC0001C4B03229A601B4B0022DA60194B002248
:101AD0001A61184918480BF0CFFF40211648FFF74C
:101AE000AFFE144B10221A60124B01225A60114BA8
:101AF00003229A600F4B0022DA600E4B00221A611B
:101B00000C490E480BF0B8FF10210C48FFF798FE67
:101B1000084B4FF400621A60064B01225A60054BD5
:101B200003229A60034B0022DA60024B00221A6102
:101B300008E000BF24890020000400480008004895
:101B4000001C0048024903480BF096FF00BF80BD0F
:101B5000248900200004004880B500AF4FF4804184
:101B60000248FFF76DFE00BF80BD00BF00040048C3
:101B700080B500AF4FF480410748FFF761FE0421B4
:101B80004FF09040FFF75CFE08214FF09040FFF7C8
:101B900057FE00BF80BD00BF0004004880B500AF05
:101BA0004FF480410748FFF759FE04214FF0904061
:101BB000FFF754FE08214FF09040FFF74FFE00BFA3
:101BC00080BD00BF0004004880B500AF04214FF085
:101BD0009040FFF743FE4FF480410548FFF730FE89
:101BE00008214FF09040FFF72BFE00BF80BD00BFE3
:101BF0000004004880B400AF00BFBD465DF8047B20
:101C0000704780B400AF00BFBD465DF8047B7047ED
:101C100080B500AF08214FF09040FFF71FFE4FF452
:101C200080410548FFF70CFE04214FF09040FFF77C
:101C300007FE00BF80BD00BF0004004880B500AFB4
:101C40004FF480410748FFF709FE04214FF0904010
:101C5000FFF7F6FD08214FF09040FFF7F1FD00BFC0
:101C600080BD00BF0004004880B500AF4FF4804144
:101C70000748FFF7F3FD04214FF09040FFF7E0FD28
:101C800008214FF09040FFF7E9FD00BF80BD00BF85
:101C90000004004880B500AF4FF480410748FFF7CB
:101CA000DDFD04214FF09040FFF7D8FD08214FF0F3
:101CB0009040FFF7D3FD00BF80BD00BF0004004887
:101CC00080B400AF00BFBD465DF8047B704780B4B0
:101CD00000AF00BFBD465DF8047B704780B483B0A1
:101CE00000AF786039607B683A689A6100BF0C3752
:101CF000BD465DF8047B704780B483B000AF786068
:101D000039607B683A689A6200BF0C37BD465DF85F
:101D1000047B704700000000F0B589B002AF5E4B55
:101D20001B78012B40F05D8304F066F887ED050A0F
:101D30005A4B1B78012B13D1594A7B691360786980
:101D4000FEF702FC52A3D3E90023FEF77BFD034616
:101D50000C4618462146FEF723FF0246514B1A60F7
:101D60004F4BD3ED007A97ED057A77EE677A37EE31
:101D7000A77A4D4BD3ED007A77EEA76A4B4BD3EDA4
:101D8000007A76EEE76A4A4BD3ED007A66EEA77AE0
:101D900077EE276A444BD3ED007A37EEA77A434BB0
:101DA000D3ED007A37EE277AC6EE877A404BC3ED43
:101DB000007A3B4A7B69136003F0FEF903467B829D
:101DC00003F03AFA03463B82344B1B78012B2CD1AB
:101DD0007B8A07EE903AF8EE677A364BC3ED007ACD
:101DE000354A7B8A13807B8A07EE903AF8EE677A51
:101DF000324BC3ED007A3B8A07EE903AF8EE677AF1
:101E00002F4BC3ED007A2F4A3B8A13803B8A07EEA3
:101E1000903AF8EE677A2C4BC3ED007A1F4B1B7893
:101E20000133DAB21D4B1A7039E11C4B1B78022BBF
:101E300054D17B8A07EE903AF8EE677A1D4BC3EDDA
:101E4000007A224A7B8A13807B8A07EE903AF8EE6A
:101E5000677A1F4BC3ED007A3B8A07EE903AF8EEA3
:101E6000677A174BC3ED007A1A4A3B8A13803B8A84
:101E700007EE903AF8EE677A174BC3ED007A074BFE
:101E80001B780133DAB2054B1A7008E1AFF300801A
:101E9000144C77B6D7A54C40718900200100002072
:101EA000980500204489002004000020080000203C
:101EB0009C050020548900203C890020588900207E
:101EC000408900203E890020608900205C89002034
:101ED000648900205E8900206C890020C84BD3ED06
:101EE000007A9FEDC87A67EE877A17EE900AFEF7C0
:101EF0002BFB04460D46C44B1B681846FEF724FB1B
:101F0000B5A3D3E90023FEF773FB02460B46204638
:101F10002946FEF7B9F903460C4625461C467B8A3E
:101F20001846FEF7FFFAAEA3D3E90023FEF760FBE5
:101F300002460B4620462946FEF7A8F903460C4602
:101F400025461C46B14B1B881846FEF7EBFAA6A3A4
:101F5000D3E90023FEF74CFB02460B4620462946F8
:101F6000FEF794F903460C4625461C46A84B1B88F1
:101F70001846FEF7D7FA9AA3D3E90023FEF738FBF9
:101F800002460B4620462946FEF780F903460C46DA
:101F900018462146FEF704FE02469E4B1A609B4BF4
:101FA0001A889B4B1A80994A7B8A1380944B1B6832
:101FB000954A1360974B1B68914A1360964B1B68B8
:101FC0001846FEF7C1FA8AA3D3E90023FEF710FBF7
:101FD00003460C4625461C46904B1B681846FEF7E8
:101FE000B3FA7DA3D3E90023FEF702FB02460B46BA
:101FF00020462946FEF748F903460C4625461C466E
:102000003B8A1846FEF78EFA75A3D3E90023FEF744
:10201000EFFA02460B4620462946FEF737F90346FB
:102020000C4625461C467E4B1B881846FEF77AFA5E
:102030006DA3D3E90023FEF7DBFA02460B462046E8
:102040002946FEF723F903460C4625461C46754BE8
:102050001B881846FEF766FA61A3D3E90023FEF752
:10206000C7FA02460B4620462946FEF70FF90346FB
:102070000C4618462146FEF793FD02466A4B1A604D
:10208000674B1A88674B1A80654A3B8A1380624BFC
:102090001B68624A1360644B1B685F4A1360634CA1
:1020A0003B46184603F0B0FB22463B461868596889
:1020B0009B681060516093605C4E38465B4B1A68B9
:1020C000002111465A68002515469B6800241C46CD
:1020D0002A46234600F0A8F932463B46186859685C
:1020E0009B68106051609360504BB3F906309BB20F
:1020F0003C339BB21AB24D4BDA804C4BB3F90830EB
:102100009BB21D339BB21AB2484B1A81474BB3F9AD
:102110000A309BB2103B9BB21AB2444B5A81434BDC
:10212000B3F902305B4207EE903AF8EEE77A404BA3
:10213000C3ED007A3F4BD3ED007A9FED3F7A3B4BE6
:102140001A68002010465A68002111469B68002238
:102150001A46F0EE470AB0EE670A03F071FEF0EEA1
:10216000407A364BC3ED007A344B1B68314A13601A
:10217000324BD3ED007A9FED327A67EE877A17EE15
:10218000900AFEF7E1F91CA3D3E90023FEF75AFBFE
:1021900003460C4625461C467869FEF7D5F90246EB
:1021A0000B4620462946FEF76FF803460C461846B4
:1021B0002146FEF7F5FC0246224B1A604FF40061FF
:1021C0002148FFF78BFD214BD3ED007A164B93EDA1
:1021D000007A3DE0AFF3008075029A081B9EE63F4F
:1021E0002D431CEBE2368A3F2D431CEBE2369A3F2F
:1021F000211FF46C567DFA3FA7E8482EFF210940C5
:1022000064890020B3EAD33F588900205C8900200C
:102210003C890020548900206C89002060890020BE
:102220005E8900203E8900204089002048890020E6
:10223000A0050020448900200000003B68890020A0
:102240000000344394050020000400489C05002051
:10225000664BD3ED006A664B93ED006A654BD3ED98
:10226000005A654C3B46F0EE652AB0EE462AF0EE89
:10227000661AB0EE471AF0EE670A97ED050A18469F
:10228000FFF7C2F93B4693E8070084E807004FF4E4
:1022900000615A48FFF730FD594BB3F9003018463A
:1022A000574BB3F902301946554BB3F904301C466D
:1022B000534BB3F906301D46514BB3F908301A465B
:1022C0004F4BB3F90A30019300922B46224603F09C
:1022D000EFFAD7ED057A9FED4B7A67EE877AFDEE40
:1022E000E76A444BD3ED007A9FED467A67EE877A32
:1022F000BDEEE77A7A8A3D4BD3ED007AFDEEE77AC0
:1023000017EE903A17EE101A16EE900A03F046FBFD
:10231000388A3D4BD3ED007AFDEEE76A364BD3EDBC
:10232000017A9FED387A67EE877ABDEEE76A374B20
:10233000D3ED007A9FED337A67EE877AFDEEE77A88
:1023400017EE903A16EE102A16EE901A03F07EFB66
:102350002F4B1B68052B21D12E4B1B78DBB2184667
:102360002D4B1B6803F07F3222F0FE422B49830382
:102370000B4403F57F5338331A60264B1B78DBB2CE
:102380001846254B5B6823F07F4222F0C0022349A8
:1023900083030B4403F57F533C331A601C4B1B68CB
:1023A000B3F5F07F18D11A4B00221A601C4B0122A2
:1023B0001A70184B1B78DBB2002B06D1194B002288
:1023C0001A70144B01221A700BE0164B01221A707E
:1023D000104B00221A7004E00D4B1B6801330C4AAD
:1023E000136000BF1C37BD46F0BD00BF54890020FC
:1023F000A005002094050020188900200004004852
:10240000488900200000C842408900209C05002027
:10241000A8050020AC05002000280040740800201A
:10242000788900201000002090B494B000AF78614B
:1024300007F1080080E80E00B7F9083007EE903A7F
:10244000F8EEE77AC7ED137AB7F90A3007EE903A5B
:10245000F8EEE77AC7ED127AB7F90C3007EE903A4A
:10246000F8EEE77AC7ED117A714B3B64714BFB6371
:10247000714BBB63714B7B63714B3B63714BFB6275
:10248000714BBB62714B7B62714B3B62714BFB6169
:1024900097ED0D7AD7ED0B7A27EE277AD7ED0C6AF8
:1024A000D7ED0A7A66EEA76AD7ED087A66EEA77AC4
:1024B00037EE677AD7ED137A27EE277AD7ED0B7AC6
:1024C000F1EE676AD7ED0A7A66EEA76A97ED0D6AB4
:1024D000D7ED0C7A26EE276AD7ED087A66EE277AD2
:1024E00076EEE76AD7ED127A66EEA77A37EE277AAC
:1024F000D7ED096AD7ED087A66EEA76AD7ED117AAB
:1025000066EEA77A37EE277AD7ED077A27EE277A95
:10251000D7ED107A77EE677AFDEEE77AC7ED017AAC
:10252000BB881BB23B8197ED0D7AD7ED087A27EE79
:10253000277AD7ED0C6AD7ED0B7A66EEA76AD7ED4E
:102540000A7A66EEA77A37EE277AD7ED137A27EE66
:10255000277AD7ED0D6AD7ED0C7A66EEA76AD7ED2C
:102560000B7A66EEA76A97ED0A6AD7ED087A66EEEF
:10257000277A76EEE76AD7ED127A66EEA77A37EE1B
:10258000277AD7ED0B7AF1EE676AD7ED097A66EE16
:10259000A76AD7ED117A66EEA77A37EE277AD7EDDC
:1025A000077A27EE277AD7ED0F7A77EE677AFDEE76
:1025B000E77AC7ED017ABB881BB27B8197ED0A7A77
:1025C000D7ED097A27EE277AD7ED137A27EE277A07
:1025D000D7ED0D6AD7ED097A66EEA76AD7ED127AC4
:1025E00066EEA77A37EE277AD7ED116AD7ED0C7A27
:1025F00066EEA77A37EE277AD7ED077A27EE277AA5
:10260000D7ED0E7A77EE677AFDEEE77AC7ED017ABD
:10261000BB881BB2BB817B691C4607F1080307CB53
:1026200020606160A26078695037BD4690BC7047F9
:10263000C03BA2427514B742E399F242C7FC7F3F08
:1026400083FF7F3FC6FC7F3F0E7022BC57CE7CBB12
:10265000FA8922BC15A7803F80B483B000AF03463F
:10266000FB71094997F907305B09FA7902F01F02FB
:10267000012000FA02F2203341F8232000BF0C377A
:10268000BD465DF8047B704700E100E080B483B094
:1026900000AF7860074B5A697B681A407B689A42A2
:1026A0000CBF01230023DBB218460C37BD465DF892
:1026B000047B70470004014080B483B000AF7860B1
:1026C000044A7B68536100BF0C37BD465DF8047B4C
:1026D000704700BF0004014080B483B000AF786051
:1026E0007B685B6843F002027B685A6000BF0C376E
:1026F000BD465DF8047B704780B483B000AF78605E
:102700007B681B6803F00203022B0CBF012300232C
:10271000DBB218460C37BD465DF8047B704780B4C9
:1027200083B000AF78607B689B6823F002027B680F
:102730009A6000BF0C37BD465DF8047B704700000F
:1027400080B483B000AF78600649064BDA6C7B68D2
:10275000DB431340CB6400BF0C37BD465DF8047B00
:10276000704700BF0010024080B582B000AF904BB0
:1027700001221A7004F0C8F801218E4802F078F99D
:10278000024643F2F2239A4201D002F0C9F8FFF761
:1027900073F805F036FE01F0D3FB02F02DFE864BF8
:1027A000864A1068186092889A803221824802F026
:1027B00067FE02F0CBFB02F085F900F033FB804BA3
:1027C0001B689BB21846FEF719FC7D4B1B689BB239
:1027D0000A211846FEF7F5FB794B1B689BB2184699
:1027E000FEF764FC40F2DC5004F034F8744B1B68D4
:1027F0009BB21846FEF702FC01237B6002E07B6877
:1028000001337B607B68B3F57A7FF8DB02F042F935
:1028100004F0EAF801F0FEF901F0EAF902F0C6FF6F
:10282000FFF7D2F9674B1B78002B04D0FFF774FA3F
:10283000644B00221A705E4B1B78013B062B00F2A2
:10284000B58001A252F823F065280008B7280008D7
:10285000AD2900087F2900080D29000885290008F6
:102860002B29000804F044F8574B1B78DBB2012BEE
:1028700006D14F4B04221A70534B00221A7096E077
:10288000524B1B78012B06D1504B00221A70484B3B
:1028900007221A708BE04E4B1B78DBB2012B06D15E
:1028A000434B02221A704A4B00221A707FE0404BC1
:1028B00001221A707BE0474B40F6C4121A80454B48
:1028C0001B8840F65102934203D8394B05221A70F7
:1028D0006DE001F0A5FE3C4B1B78DBB2012B06D16D
:1028E000334B04221A70384B00221A705FE0374BCA
:1028F0001B78012B06D1354B00221A702C4B072276
:102900001A7054E02A4B01221A7050E04220FFF75F
:10291000A3FEFFF72DF901F053FA01F04FFC01F08F
:1029200041FC234B06221A7041E0FFF771F901F0D8
:10293000D3FD294B00221A70254B00221A70422029
:10294000FFF78AFE2548FFF7EAFEFFF7C0F94FF4CC
:102950000050FFF7F5FE03F0CBFF1B4B1B78DBB2FB
:10296000012B08D1124B04221A70174B00221A7047
:10297000FFF7A6F91BE00E4B06221A7017E001F0D4
:1029800061FB14E003F0B4FF0F4B1B78DBB2012BAB
:1029900008D1074B04221A700B4B00221A70FFF764
:1029A0008FF904E0024B06221A7000E000BF39E7FD
:1029B000B488002000280040DC8B002098790108B2
:1029C0000C000020AE050020A4050020708F002020
:1029D000788900204C8F00207189002000940040ED
:1029E00080B500AF0648FFF787FE0346012B05D1EF
:1029F000044B01221A700248FFF76EFE00BF80BD33
:102A000000940040AE05002080B500AF4FF4007088
:102A1000FFF73CFE0346002B06D0044B01221A7040
:102A20004FF40070FFF748FE00BF80BDA4050020F2
:102A300080B483B000AF78600B46FB707B680C33CA
:102A4000FA781A7000BF0C37BD465DF8047B7047FA
:102A500080B483B000AF786039607B683A689A616F
:102A600000BF0C37BD465DF8047B704780B483B06F
:102A700000AF786039607B683A689A6200BF0C37B3
:102A8000BD465DF8047B704780B500AF4FF48051C0
:102A90000248FFF7DDFF00BF80BD00BF0004004813
:102AA00080B500AF4FF480510248FFF7DFFF00BF51
:102AB00080BD00BF0004004880B582B000AFFFF7C2
:102AC000EFFFC0210E48FFF7B3FF00BF0C4B9B6820
:102AD00003F08003002BF9D1FFF7D6FF02E0084B8B
:102AE000DB68FB71064B9B6803F4C063002BF6D1D7
:102AF000322003F0AFFE00BF0837BD4680BD00BFE7
:102B00000038004080B584B000AF03460A46FB7130
:102B10001346BB71FFF7C4FF02211548FFF788FF7A
:102B2000FB7919461248FFF783FFBB791946104815
:102B3000FFF77EFF00BF0E4B9B6803F4C053002BD2
:102B4000F9D100BF0A4B9B6803F08003002BF9D139
:102B5000FFF79AFF02E0064BDB68FB73044B9B68B0
:102B600003F4C063002BF6D100BF1037BD4680BD13
:102B70000038004080B584B000AF0346FB710023ED
:102B8000FB73FFF78DFF03211448FFF751FFFB791B
:102B900019461248FFF74CFF00211048FFF748FF85
:102BA00000BF0E4B9B6803F4C053002BF9D100BF4C
:102BB0000A4B9B6803F08003002BF9D1074BDB68BD
:102BC000BB73064BDB68BB73044BDB68FB73FFF71F
:102BD0005BFFFB7B18461037BD4680BD00380040C8
:102BE00080B584B000AF03463A60FB710B46BB7101
:102BF000FFF756FFFB7919461C48FFF719FF002322
:102C0000FB7311E000BF194B9B6803F00203002B1C
:102C1000F9D0FB7B3A6813441B7819461348FFF739
:102C200007FFFB7B0133FB73FA7BBB799A42E9D345
:102C300000BF0E4B9B6803F4C053002BF9D100BFBB
:102C40000A4B9B6803F08003002BF9D1FFF71CFFB0
:102C500002E0064BDB68BB73044B9B6803F4C06364
:102C6000002BF6D100BF1037BD4680BD00380040B4
:102C700080B500AF3020FFF77DFF0346184680BDCA
:102C800080B500AF4020FFF775FF0346184680BDB2
:102C900080B500AF5020FFF76DFF0346184680BD9A
:102CA00080B582B000AF78607A680D214420FFF7CC
:102CB00097FF00BF0837BD4680BD80B582B000AF2A
:102CC00078607A680D214220FFF78AFF00BF08373D
:102CD000BD4680BD80B582B000AF78607A680D21B6
:102CE0004020FFF77DFF00BF0837BD4680BD80B59F
:102CF00000AF0B215020FFF705FF00BF80BD80B55E
:102D000000AF0B214020FFF7FDFE00BF80BD80B566
:102D100000AF0B213020FFF7F5FE00BF80BD80B56E
:102D200084B000AF7860FFF7B3FF03463B733B7B93
:102D300003F01003DBB2002B06D17B681846FFF7C7
:102D4000AFFFFFF7D4FF21E0FFF79AFF03463B7385
:102D50003B7B03F01003DBB2002B06D17B681846E7
:102D6000FFF7ABFFFFF7CBFF10E0FFF781FF034654
:102D70003B733B7B03F01003DBB2002B06D17B6877
:102D80001846FFF7A7FFFFF7C2FF00BF1037BD4689
:102D900080BD80B586B000AF03463A60FB800B462D
:102DA0007B7107F108030D220021184612F049FA41
:102DB000FB88DB089BB2DBB23B72FB885B01DBB2BA
:102DC0007B727B793B730023FB750CE0FB7DFA7D06
:102DD00039680A44127807F118010B4403F80B2CE8
:102DE000FB7D0133FB75FA7D7B799A42EED307F1C7
:102DF00008031846FFF793FF00BF1837BD4680BD94
:102E000080B500AF40F276220021054812F019FA91
:102E100003F0C8F9FFF738FEFFF74EFE00BF80BD94
:102E2000B005002080B584B000AFC0233B73892378
:102E30003B7204233B7108233B70FFF7E1FF3B7BB0
:102E400019462A20FFF75EFE3B7A19462920FFF734
:102E500059FE3B7919462820FFF754FE3B78194666
:102E60000F20FFF74FFE00BF1037BD4680BD0000AA
:102E700080B485B000AF78607B6803F00703FB6027
:102E80000C4BDB68BB60BA684FF6FF031340BB60B6
:102E9000FB681A02BB68134343F0BF6343F400337B
:102EA000BB60044ABB68D36000BF1437BD465DF801
:102EB000047B704700ED00E080B483B000AF0346B0
:102EC000FB71094997F907305B09FA7902F01F0293
:102ED000012000FA02F241F8232000BF0C37BD4662
:102EE0005DF8047B704700BF00E100E080B483B070
:102EF00000AF0346FB71094997F907305B09FA797E
:102F000002F01F02012000FA02F2203341F82320D0
:102F100000BF0C37BD465DF8047B704700E100E060
:102F200080B483B000AF03463960FB7197F9073076
:102F3000002B0BDA0D49FB7903F00F03043B3A68D1
:102F4000D2B21201D2B20B441A7609E0084997F9BD
:102F500007303A68D2B21201D2B20B4483F8002390
:102F600000BF0C37BD465DF8047B704700ED00E004
:102F700000E100E080B400AFBFF34F8F0549054B7F
:102F8000DB6803F4E062044B1343CB60BFF34F8F65
:102F900000BFFDE700ED00E00400FA0580B483B057
:102FA00000AF786039607B689B6823F47C123B68D3
:102FB0001A437B689A6000BF0C37BD465DF8047BFE
:102FC000704780B483B000AF786039607B68DB689D
:102FD00023F480423B681A437B68DA6000BF0C37F9
:102FE000BD465DF8047B704780B483B000AF786065
:102FF00039607B68DB6823F47C623B681A437B683A
:10300000DA6000BF0C37BD465DF8047B704780B4C2
:1030100083B000AF786039607B681B6B23F00F02D0
:103020003B681A437B681A6300BF0C37BD465DF8E6
:10303000047B704790B486B000AFF860B9607A60E6
:10304000FB6830331946BB6803F440724FF4407399
:103050007B617B6993FAA3F33B613B69B3FA83F32A
:1030600022FA03F39B000B441C462268BB6803F062
:103070001F031F2101FA03F3DB431A407B6803F0AF
:10308000F841BB6803F01F03C3F11A0321FA03F3ED
:103090001343236000BF1837BD4690BC704780B40F
:1030A00083B000AF786039607B68DB6823F400523E
:1030B0003B681A437B68DA6000BF0C37BD465DF899
:1030C000047B704780B483B000AF786039607B6860
:1030D000DB6823F480523B681A437B68DA6000BFE8
:1030E0000C37BD465DF8047B704790B48AB000AFE2
:1030F000F860B9607A60FB6814331946BB6803F066
:1031000000724FF000737B617B6993FAA3F33B611C
:103110003B69B3FA83F322FA03F39B000B441C468A
:103120002268BB6803F0F8714FF0F873FB61FB692C
:1031300093FAA3F3BB61BB69B3FA83F321FA03F3F8
:10314000072101FA03F3DB431A40BB6803F0F8716F
:103150004FF0F8737B627B6A93FAA3F33B623B6A9E
:10316000B3FA83F321FA03F3796801FA03F3134303
:10317000236000BF2837BD4690BC704780B483B041
:1031800000AF78607B689B6823F0204323F03F0307
:103190007A68936000BF0C37BD465DF8047B7047CA
:1031A00080B483B000AF78607B689B6823F01043E5
:1031B00023F03F0343F080527B689A6000BF0C37D6
:1031C000BD465DF8047B704780B483B000AF786083
:1031D0007B689B6823F0004323F03F0343F0010228
:1031E0007B689A6000BF0C37BD465DF8047B704772
:1031F00080B483B000AF786039607B689B6823F04F
:10320000404323F03F033A6802F08042134343F007
:1032100000427B689A6000BF0C37BD465DF8047BB6
:10322000704780B483B000AF78607B689B6803F020
:103230000043B3F1004F0CBF01230023DBB218465B
:103240000C37BD465DF8047B704780B483B000AF97
:1032500078607B689B6823F0004323F03F0343F0D2
:1032600004027B689A6000BF0C37BD465DF8047BA2
:10327000704780B483B000AF78607B681B6C9BB2F2
:1032800018460C37BD465DF8047B704780B483B0A8
:1032900000AF78607B681B6803F00103012B0CBF53
:1032A00001230023DBB218460C37BD465DF8047BD2
:1032B000704780B483B000AF78607B681B6803F010
:1032C0000403042B0CBF01230023DBB218460C3788
:1032D000BD465DF8047B704780B483B000AF786072
:1032E0007B6804221A6000BF0C37BD465DF8047B82
:1032F0007047000080B483B000AF78600549054B8B
:103300001A687B6813430B6000BF0C37BD465DF83D
:10331000047B70470004014080B483B000AF786044
:103320000549054B9A687B6813438B6000BF0C37D7
:10333000BD465DF8047B70470004014080B483B053
:1033400000AF78607B689B6843F002027B689A60FC
:1033500000BF0C37BD465DF8047B704780B483B076
:1033600000AF78607B689B6823F002027B689A60FC
:1033700000BF0C37BD465DF8047B704780B400AFDA
:10338000064A064BD3F8903043F00103C2F8903060
:1033900000BFBD465DF8047B704700BF00100240CF
:1033A00080B400AF074BD3F8903003F00203022B38
:1033B0000CBF01230023DBB21846BD465DF8047B39
:1033C000704700BF0010024080B483B000AF786047
:1033D0000749074BD3F8903023F440727B681343BE
:1033E000C1F8903000BF0C37BD465DF8047B7047D4
:1033F0000010024080B400AF064A064BD3F890306C
:1034000043F40043C2F8903000BFBD465DF8047B32
:10341000704700BF0010024080B400AF064A064B60
:10342000D3F8903043F48033C2F8903000BFBD46EB
:103430005DF8047B704700BF0010024080B400AF0D
:10344000064A064BD3F8903023F48033C2F890300C
:1034500000BFBD465DF8047B704700BF001002400E
:1034600080B485B000AF78600849084BDA6C7B689F
:103470001343CB64054BDA6C7B681340FB60FB683D
:1034800000BF1437BD465DF8047B70470010024052
:1034900080B483B000AF78600549054BDA6A7B6879
:1034A0001343CB6200BF0C37BD465DF8047B704709
:1034B0000010024080B483B000AF78600649064B2C
:1034C000DA6A7B68DB431340CB6200BF0C37BD4632
:1034D0005DF8047B704700BF0010024080B485B0E7
:1034E00000AF78600849084B1A6E7B6813430B667F
:1034F000054B1A6E7B681340FB60FB6800BF1437F6
:10350000BD465DF8047B70470010024090B484B063
:1035100000AF78603960114C3B68DBB20F493A6804
:10352000D2B2023251F822103A68120CD243114042
:103530003A68120CFA60FA6892FAA2F2BA60BA68B3
:10354000B2FA82F2786800FA02F20A43023344F8CF
:10355000232000BF1037BD4690BC704700000140DB
:1035600080B400AF054A054B5B6843F48063536049
:1035700000BFBD465DF8047B704700BF007000408F
:1035800080B400AF054A054B5B6823F48063536049
:1035900000BFBD465DF8047B704700BF007000406F
:1035A00080B400AF074B5B6803F48063B3F5806FB2
:1035B0000CBF01230023DBB21846BD465DF8047B37
:1035C000704700BF0070004080B483B000AF7860E7
:1035D0007B68FF225A6200BF0C37BD465DF8047B52
:1035E000704780B483B000AF78607B68CA225A62AB
:1035F0007B6853225A6200BF0C37BD465DF8047BDE
:10360000704790B486B000AF786000247B681B6878
:1036100003F47C1404F440134FF44012FA60FA6887
:1036200092FAA2F2BA60BA68B2FA82F2D3401A01F0
:1036300004F470234FF470217961796991FAA1F152
:1036400039613969B1FA81F1CB4013431846183713
:10365000BD4690BC704790B486B000AF786000243F
:103660007B681B6803F4FE4404F4E0434FF4E0423B
:10367000FA60FA6892FAA2F2BA60BA68B2FA82F212
:10368000D3401A0104F470634FF470617961796971
:1036900091FAA1F139613969B1FA81F1CB40134353
:1036A00018461837BD4690BC704790B486B000AF3E
:1036B000786000247B681B6803F07F0404F07003CB
:1036C0007022FA60FA6892FAA2F2BA60BA68B2FAA4
:1036D00082F2D3401A0104F00F030F217961796956
:1036E00091FAA1F139613969B1FA81F1CB40134303
:1036F00018461837BD4690BC704790B486B000AFEE
:10370000786000247B685B6803F47F0404F4700332
:103710004FF47002FA60FA6892FAA2F2BA60BA68DC
:10372000B2FA82F2D3401A0104F470234FF47021EC
:103730007961796991FAA1F139613969B1FA81F157
:10374000CB40134318461837BD4690BC704790B421
:1037500086B000AF786000247B685B6803F4F8549F
:1037600004F480534FF48052FA60FA6892FAA2F29D
:10377000BA60BA68B2FA82F2D3401A0104F47063F4
:103780004FF470617961796991FAA1F13961396910
:10379000B1FA81F1CB40134318461837BD4690BCAF
:1037A000704790B486B000AF786000247B685B6897
:1037B00003F03F0404F030033022FA60FA6892FA12
:1037C000A2F2BA60BA68B2FA82F2D3401A0104F0E7
:1037D0000F030F217961796991FAA1F13961396992
:1037E000B1FA81F1CB40134318461837BD4690BC5F
:1037F000704780B483B000AF78607B681B6843F08B
:1038000040027B681A6000BF0C37BD465DF8047B40
:10381000704780B483B000AF786039607B681B6804
:1038200023F482723B681A437B681A6000BF0C372E
:10383000BD465DF8047B704780B483B000AF78600C
:1038400039607B681B6823F001023B681A437B6880
:103850001A6000BF0C37BD465DF8047B704780B42A
:1038600083B000AF786039607B681B6823F0020288
:103870003B681A437B681A6000BF0C37BD465DF891
:10388000047B704780B483B000AF786039607B6898
:103890001B6823F038023B681A437B681A6000BF3C
:1038A0000C37BD465DF8047B704780B483B000AF31
:1038B000786039607B681B6823F080023B681A439C
:1038C0007B681A6000BF0C37BD465DF8047B70470B
:1038D00080B483B000AF786039607B681B6823F4E4
:1038E00044423B681A437B681A6000BF0C37BD46F0
:1038F0005DF8047B704780B483B000AF78603960B6
:103900007B685B6823F470623B681A437B685A608B
:1039100000BF0C37BD465DF8047B704780B483B0B0
:1039200000AF786039607B685B6823F480523B6845
:103930001A437B685A6000BF0C37BD465DF8047BB4
:10394000704780B483B000AF786039607B681B68D3
:1039500023F400723B681A437B681A607B685B68DB
:1039600023F004023B681B0C1A437B685A6000BFBB
:103970000C37BD465DF8047B704780B483B000AF60
:1039800078607B685B6843F008027B685A6000BF20
:103990000C37BD465DF8047B704780B483B000AF40
:1039A00078607B68DB68DBB218460C37BD465DF893
:1039B000047B704780B483B000AF78600B46FB7027
:1039C0007B680C33FA781A7000BF0C37BD465DF87F
:1039D000047B704780B489B000AFF860B9607A604A
:1039E000FB681A68BB687B617B6993FAA3F33B6150
:1039F0003B69B3FA83F35B00032101FA03F3DB4372
:103A00001A40BB68FB61FB6993FAA3F3BB61BB6916
:103A1000B3FA83F35B00796801FA03F31A43FB6896
:103A20001A6000BF2437BD465DF8047B704780B440
:103A300085B000AFF860B9607A60FB685A68BB680F
:103A4000DB431A40BB68796801FB03F31A43FB6848
:103A50005A6000BF1437BD465DF8047B704780B4E0
:103A600089B000AFF860B9607A60FB689A68BB689B
:103A70007B617B6993FAA3F33B613B69B3FA83F300
:103A80005B00032101FA03F3DB431A40BB68FB61CF
:103A9000FB6993FAA3F3BB61BB69B3FA83F35B00E1
:103AA000796801FA03F31A43FB689A6000BF243770
:103AB000BD465DF8047B704780B489B000AFF86004
:103AC000B9607A60FB68DA68BB687B617B6993FAEE
:103AD000A3F33B613B69B3FA83F35B00032101FA73
:103AE00003F3DB431A40BB68FB61FB6993FAA3F362
:103AF000BB61BB69B3FA83F35B00796801FA03F336
:103B00001A43FB68DA6000BF2437BD465DF8047BCA
:103B1000704780B489B000AFF860B9607A60FB6824
:103B20001A6ABB687B617B6993FAA3F33B613B69CB
:103B3000B3FA83F39B000F2101FA03F3DB431A402E
:103B4000BB68FB61FB6993FAA3F3BB61BB69B3FA82
:103B500083F39B00796801FA03F31A43FB681A6246
:103B600000BF2437BD465DF8047B704780B483B046
:103B700000AF786039607B68DA6A3B681A437B681B
:103B8000DA6200BF0C37BD465DF8047B704780B435
:103B900083B000AF786039607B681A693B681A406F
:103BA0003B689A420CBF01230023DBB218460C3756
:103BB000BD465DF8047B704780B483B000AF786089
:103BC00039607B683A689A6100BF0C37BD465DF882
:103BD000047B704780B483B000AF786039607B6845
:103BE0003A689A6200BF0C37BD465DF8047B7047A7
:103BF00080B500AF054B1B68054A934204D0034BC8
:103C0000034A1A60FFF7B6F900BF80BDF07E0120BD
:103C1000EFBEADDE80B500AF0020FFF729F900212F
:103C20001720FFF77DF902213120FFF779F90121F3
:103C30004220FFF775F900BF80BD000080B500AFDE
:103C40000F49104811F068FA0346002B0BD10122EE
:103C50000B490D4810F0BCF80346002B06D00B4B67
:103C600001221A6002E0094B01221A60074B1B680F
:103C7000012B02D1032001F0D5FC00BF80BD00BFA5
:103C8000108D0020FC7C01081C8D0020108C002071
:103C900080B500AF3C4B00221A703C493C4811F003
:103CA0003BFA0346002B62D101223849394810F013
:103CB0008FF80346002B03D0374B01221A6059E0DE
:103CC00001223649364810F0CBF80346002B32D09B
:103CD00001223449324810F0C3F80346002B1DD0AE
:103CE000314B1B68012B06D12F4B00221A602F4845
:103CF00011F076F832E001222C49294810F0B0F892
:103D00000346002B03D0204B00221A7026E01E4BE6
:103D100001221A70224810F015FD1FE01A4B0022F4
:103D20001A70234B00221A701D4810F00BFD1D481D
:103D300011F056F812E01A4810F004FD174811F07F
:103D40004FF800221B49002010F042F80F4811F0F4
:103D50002BFA194B194A1A60FFF70CF90022154982
:103D6000002010F035F8094811F01EFA02E00A4B65
:103D700001221A60084B1B68012B02D1032001F0BD
:103D800051FC00BF80BD00BF71890020108D002054
:103D9000FC7C01081C8D0020108C0020A0790108FB
:103DA0007C8F0020B079010814970020C0790108A9
:103DB00040920020D0790108F07F0120EFBEADDEF7
:103DC00080B500AF074810F0BDFC00F0E7FB002213
:103DD000054900200FF0FCFF044811F0E5F900BF91
:103DE00080BD00BF7C8F0020D0790108108D00209D
:103DF00080B500AFFFF7C4FB084B00221A700848DB
:103E00000DF05AF806480DF014F8064A054BDB6C25
:103E100023F48053D36400BF80BD00BFA4050020FD
:103E2000808900200010024080B500AF074810F0E4
:103E300089FC00F0B3FB0022054900200FF0C8FF09
:103E4000044811F0B1F900BF80BD00BF7C8F002095
:103E5000D0790108108D002080B582B000AFFFF747
:103E60007FFB00BFFFF79CFB0346002BFAD0084AFC
:103E7000074BDB6C43F48053D364054BDB6C03F4DA
:103E800080537B607B6800BF0837BD4680BD00BFA4
:103E90000010024080B500AFFFF7D0FE00F0D6FA68
:103EA000034B1B78002B01D100F094F900BF80BDBB
:103EB000718F002080B500AF1B4B1B78002B30D1D9
:103EC0001A4B40F6C4121A80184B1B8840F6911208
:103ED000934203D8164B05221A7022E0154B1B782B
:103EE000012B0CD1FFF7D6FF0F4B1B78002B18D1FD
:103EF0001148FFF723FA4220FEF7DEFF11E00F4BD7
:103F00001B78012B06D10D4B00221A70084B0122A1
:103F10001A7006E001F0E6FA00F044F9044B0622BC
:103F20001A7000BF80BD00BF718F00204C8F002031
:103F3000B48800207189002000940040198D002071
:103F400080B582B000AF00237B604FF400714FF06A
:103F50009040FFF71CFE03461A461B4B1A6000BF39
:103F60004FF400714FF09040FFF711FE0346002B15
:103F7000F6D1164B1B68164A934220D0134B144AB5
:103F80001A60114B1B68012B19D100237B6013E0D1
:103F9000C8200BF071FC4FF400714FF09040FFF718
:103FA000F6FD0346002B04D00A4B094A1A60FEF7BF
:103FB000E1FF7B6801337B607B68042BE8D900BF9D
:103FC0000837BD4680BD00BF008D0020F07C012079
:103FD000EFBEADDEF07F012080B500AF134B0022B5
:103FE0001A70134B1B68012B04D1114B00221A606D
:103FF000FEF7C0FF0F4B1B68012B07D10D4B0022B2
:104000001A600D4B0D4A1A60FEF7B4FF0C4B1B688B
:10401000012B09D10A4B00221A6000F089FA034BE8
:1040200001221A70FFF734FE00BF80BD71890020A5
:1040300000A00020F0AB0020F07F0120EFBEADDE3D
:104040009097002080B500AFFDF73AFE4C4B01225F
:104050001A704220FEF74AFFFFF7FEFE1720FEF718
:1040600045FF484B1B78012B01D1FFF7DDFE454B87
:1040700000221A7004F02EFA434B1B78012B2CD12E
:10408000FDF7F2FD404B00221A7000F01DFB3F4B84
:1040900000221A7000BF4FF400714FF09040FFF7FC
:1040A00076FD0346002BF6D1FDF762FDFFF7A0FE7B
:1040B000374B00221A70364B1B78012B07D1344B3B
:1040C00000221A70334B344A1A60FEF753FFFFF791
:1040D000F1FE1720FEF7F0FE50E0FDF7DBFD00F0EB
:1040E00015FB2E480CF093FE0346002B18D1274BEE
:1040F00000221A7000BF4FF400714FF09040FFF79C
:1041000046FD0346002BF6D1FFF772FEFDF730FDAA
:10411000FFF7BEFDFFF7CEFE1720FEF7CDFE2DE028
:104120001A4B00221A7000BF4FF400714FF09040FC
:10413000FFF72DFD0346002BF6D1FFF759FEFDF7E3
:1041400017FD174B01221A70154B1B78012B0AD152
:10415000134B00221A70FFF73FFFFFF7ABFE17204B
:10416000FEF7AAFE0AE0FDF703FD074B00221A70D6
:10417000044B00221A70024B04221A7000BF80BD4B
:10418000B48800207189002040920020708F0020A8
:104190001A8D0020F07F0120EFBEADDE8089002067
:1041A000A08C002080B500AF0348FFF7D7F8FDF7DB
:1041B0008EFD00BF80BD00BF0094004080B400AF02
:1041C000034B00221A7000BFBD465DF8047B7047A8
:1041D0007889002080B582B000AF164B00221A60AB
:1041E000154B00221A60154B01221A70144B002245
:1041F0001A70144B00221A70134B00221A7001F02F
:1042000079F900237B600EE0104A7B68134400229A
:104210001A700E4A7B6802339B00134400225A60D6
:104220007B6801337B607B68092BEDDD00BF0837BD
:10423000BD4680BD748F0020A8050020100000201E
:10424000AC05002078890020AD050020788800208A
:1042500080B5ADF5127D00AF3B1D18604FF0FF3308
:10426000C7F844323B1D07F124021968104610F0CC
:10427000EFFC0346002B32D107F10C0207F12403B7
:104280001146184610F066FD0346002B27D107F1B2
:104290000C035B7A002B22D007F10C03093314497D
:1042A000184611F0E3F80346002BE5D007F10802A9
:1042B00007F10C0309330F49184611F0ABF8034618
:1042C000012BD9D107F108031A68D7F844329A4272
:1042D000D2DD07F108031B68C7F84432CCE7D7F8F2
:1042E00044320133184607F51277BD4680BD00BF42
:1042F000D4790108DC79010880B500AF144B1B6844
:10430000012B23D1124B00221A60FDF7E0FC42F290
:10431000107002F09FFAFDF7D3FC0E4802F09AFAF3
:104320000D490E4810F0F8FE0346002B0BD1012278
:1043300009490B480FF04CFD0346002B06D0094BF2
:1043400001221A7002E0074B01221A7000BF80BDE3
:10435000108C002040420F00108D0020FC7C0108D2
:104360001C8D0020718F002080B500AF084810F030
:10437000E9F91222074906480FF072FD064B1B7837
:10438000002B02D0054B01221A6000BF80BD00BF88
:104390007C8F0020588C002002920020188C002076
:1043A00080B500AF084810F0CDF912220749064841
:1043B0000FF056FD064B1B78002B02D0054B012257
:1043C0001A6000BF80BD00BF7C8F0020588C002089
:1043D00002920020148C002080B500AF14491548CB
:1043E00010F09AFE0346002B1CD1012210491248FE
:1043F0000FF0EEFC0346002B03D0104B01221A6095
:1044000013E012220E490F480FF02AFD03461A4608
:104410000D4B1A700C4B1B78002B06D0074B01225A
:104420001A6002E0054B01221A6000BF80BD00BF88
:10443000108D0020FC7C01081C8D0020C48C002005
:10444000588C00207C8F00200292002080B500AFA5
:104450001A4B1B78002B2FD11948FFF7F9FE0246A3
:10446000184B1A60174B1B681A461749174810F06B
:10447000ADFF1222154916480FF0F2FC03461A460A
:10448000144B1A70134B1B78002B03D0012001F042
:10449000C9F80DE00E4BD3F80C3219460C4810F059
:1044A00079F90B4810F094F803461A46094B1A7034
:1044B0004FF47A7002F0CEF900BF80BD718F0020FA
:1044C000D0790108748F0020E8790108588C002009
:1044D0007C8F00200292002080B500AF0F49104869
:1044E00010F01AFE0346002B0DD101220B490D4896
:1044F0000FF06EFC0346002B02D10B4810F070FC4D
:10450000642002F0A7F90022084900200FF060FCA7
:10451000024810F049FE00BF80BD00BF108D002092
:10452000FC7C01081C8D0020C0790108D0790108AD
:1045300080B500AF1349144810F0EEFD0346002B80
:1045400015D101220F4911480FF042FC0346002B00
:104550000AD112220E490F480FF082FC0346002BAD
:1045600002D10C4810F0EEF8642002F073F900223A
:10457000094900200FF02CFC024810F015FE00BF86
:1045800080BD00BF108D0020FC7C01081C8D002028
:10459000C07901087C8F0020D079010880B500AF78
:1045A00000F0D6F8164B1B7814335B021AB2154B89
:1045B0001B785B011BB213431AB2134B1B781BB25F
:1045C00013431BB29AB2114B9A80114B1B78DB023A
:1045D0001AB2104B1B785B011BB213431AB20E4B7D
:1045E0001B785B08DBB21BB213431BB29AB2074BBA
:1045F000DA800649094810F0CCFC00BF80BD00BF3E
:10460000798F0020608F00204E8F00203C8C00208E
:104610006A8C0020288C0020748C0020588C00208C
:1046200080B500AF204B1B78DBB29B031F4A991863
:104630001F4B4FF480421F480FF01DFE03461A46E1
:104640001D4B1A701C4B1B78002B03D0052000F06B
:10465000E9FF01E0FDF7D5FA184B1B78002B20D1BC
:10466000174B1B78DBB21A46164B1B689A4211D1C6
:1046700010480FF0ADFF03461A460F4B1A700E4B51
:104680001B78002B02D0042000F0CCFF0C4B002242
:104690001A7006E00A4B1B78DBB20133DAB2084B22
:1046A0001A7000BF80BD00BF1000002074080020F9
:1046B000708C00207C8F002002920020348C00201F
:1046C000AD050020DA8B002080B500AF00220A493A
:1046D0000A480CF071FB0A4908480CF0C7FB09496D
:1046E00006480BF06DFA05480CF0DAFB064802F0BC
:1046F000B1F800BF80BD00BF1800002080890020F5
:1047000004020020BC00002040420F0080B500AF32
:1047100000220A490A480CF04FFB0A4908480CF0ED
:10472000A5FB0949064803F005F905480CF0B8FB5C
:10473000064802F08FF800BF80BD00BF34000020A3
:1047400080890020E8000020F401002040420F0092
:1047500098B500AF5348FEF754FF0346DBB21B1178
:10476000DBB203F00F03DBB21A46920013445B0086
:10477000DCB24C48FEF745FF0346DBB203F00F0303
:10478000DBB22344DAB2484B1A704648FEF763FFA7
:104790000346DBB21B11DBB203F00F03DBB21A4698
:1047A000920013445B00DCB23E48FEF754FF034620
:1047B000DBB203F00F03DBB22344DAB23B4B1A70D7
:1047C0003848FEF772FF0346DBB21B11DBB203F081
:1047D0000F03DBB21A46920013445B00DCB231488F
:1047E000FEF763FF0346DBB203F00F03DBB22344A3
:1047F000DAB22F4B1A702B48FEF7A9FF0346DBB243
:104800001B11DBB203F00F03DBB21A469200134414
:104810005B00DCB22348FEF79AFF0346DBB203F0ED
:104820000F03DBB22344DAB2224B1A701D48FEF7A5
:10483000B8FF0346DBB21B11DBB203F00F03DBB2A0
:104840001A46920013445B00DCB21648FEF7A9FF3B
:104850000346DBB203F00F03DBB22344DAB2164B9C
:104860001A701048FEF749FF0346DBB21B11DBB29A
:1048700003F00F03DBB21A46920013445B00DCB274
:104880000848FEF73AFF0346DBB203F00F03DBB242
:104890002344DAB2094B1A70024B5B68014B1B6868
:1048A00000BF98BD002800406A8C0020288C0020A2
:1048B000748C0020608F00204E8F0020798F0020A4
:1048C00080B400AF074B4FF0FF32DA6000BF054BFA
:1048D000DB6803F04003402BF9D100BFBD465DF813
:1048E000047B70470028004080B400AF0B4B6FF092
:1048F0008002DA60094A094BDB6803F0800363F049
:10490000A003D36000BF054BDB6803F02003202B1E
:10491000F9D100BFBD465DF8047B70470028004018
:1049200080B586B000AFFEF777FDFEF787FDFEF796
:1049300025FD00BFFEF734FD0346012BFAD14FF4ED
:104940008070FEF741FDFEF755FD00237B603B1DA7
:1049500019461A4809F0EEFA1848FEF742FEFFF72A
:10496000AFFF1649154B1B6923F4FE034FF4FE02FB
:104970007A617A6992FAA2F23A613A69B2FA82F2FB
:1049800010467F22824013430B610C4A0B4B1B697C
:1049900023F4FF4323F07F0343F0FF031361FFF78A
:1049A000A3FF0648FEF710FE43F2F222012103485E
:1049B00000F04AF800BF1837BD4680BD002800400F
:1049C00090B587B000AF0446084611461A46234604
:1049D000FB710346BB710B467B7113463B71194853
:1049E000FEF7FFFDFFF76CFF3B793B7597F828302A
:1049F0007B7597F82C30BB7507F110031A46002120
:104A0000104809F0C7FA01233B73BB797B73FB792C
:104A1000FB737B79BB7307F10C031A46002109482D
:104A200009F060FBFFF760FF0648FEF7CDFD43F29B
:104A3000F2220121034800F007F800BF1C37BD46F1
:104A400090BD00BF0028004090B484B000AFF86073
:104A5000B9607A60FB6850331C46BB689B001C44FD
:104A600022467B68136000BF1037BD4690BC70477C
:104A700090B482B000AF786039607B6850331C46D8
:104A80003B689B001C4423461B6818460837BD46FC
:104A900090BC704780B500AF1720FEF70DFA0120DB
:104AA000FEF71CFD06490020FEF730FD4FF40070B4
:104AB000FEF720FC4FF40070FEF72EFC00BF80BD17
:104AC0000200F00080B500AF0420FEF7C9FC03220D
:104AD00004211348FEF77EFF04211148FFF746F832
:104AE000032208210E48FEF775FF08210C48FFF746
:104AF0003DF8032202210A48FEF76CFF0221084814
:104B0000FFF734F8032201210548FEF763FF012176
:104B10000348FFF72BF800F005F800BF80BD00BF89
:104B20000008004880B500AF4FF40050FEF7B0FC1D
:104B30004FF40050FEF7BEFC4FF40050FEF790FC1F
:104B40004FF400313F48FEF729FA4FF480413E48C8
:104B5000FEF737FA00213C48FEF746FA00213A48B2
:104B6000FEF79DFA4FF480513748FEF7ABFA00216B
:104B70003548FEF74CFA354A06213348FEF75AFA13
:104B8000072232493048FEF7B0FA4FF400312D4881
:104B9000FEF704FA4FF480412D48FEF712FA002187
:104BA0002B48FEF721FA00212948FEF778FA4FF446
:104BB00080512748FEF786FA00212548FEF727FA9C
:104BC000244A06212248FEF735FA072221492048C7
:104BD000FEF78BFA4FF400311A48FEF7DFF94FF475
:104BE00080411D48FEF7EDF900211B48FEF7FCF956
:104BF00000211948FEF753FA4FF480511648FEF78A
:104C000061FA00211448FEF702FA144A06211248FC
:104C1000FEF710FA072211490F48FEF766FA104A0C
:104C200006210D48FEF706FA07220D490A48FEF74D
:104C30005CFA00F017F800F091F800F00BF900BFF3
:104C400080BD00BF00030450000004500800900C19
:104C5000000104501000C01000020450040060085D
:104C60000200300480B582B000AF00237B6035487D
:104C7000FEF784FA3348FEF793FA334B1B685B095F
:104C8000324AA2FB0323DA0913469B0013445B005C
:104C90001A462F4BA3FB0223DB087B6002E07B68F4
:104CA000013B7B607B68002BF9D17F212548FEF713
:104CB0009FFA284B00221A60274B00221A7001E04D
:104CC00000F070F91F48FEF7ACFA0346002B0CD138
:104CD0004FF400714FF09040FEF759FF0346002B50
:104CE00003D11D4B1B78002BEAD080237B6002E0B0
:104CF0007B68013B7B607B68002BF9D11148FEF794
:104D000063FA144B00221A60134B00221A7001E060
:104D100000F048F90B48FEF7B9FA0346002B0CD116
:104D20004FF400714FF09040FEF731FF0346002B27
:104D300003D1094B1B78002BEAD000BF0837BD46D2
:104D400080BD00BF0002045014000020C55A7C0A38
:104D5000CDCCCCCC04920020FA91002080B582B05A
:104D600000AF00237B603548FEF708FA3348FEF7B2
:104D700017FA334B1B685B09324AA2FB0323DA099B
:104D800013469B0013445B001A462F4BA3FB0223E0
:104D9000DB087B6002E07B68013B7B607B68002B6B
:104DA000F9D17F212548FEF723FA284B00221A600B
:104DB000274B00221A7001E000F0F4F81F48FEF7BC
:104DC00030FA0346002B0CD14FF400714FF09040A5
:104DD000FEF7DDFE0346002B03D11D4B1B78002B95
:104DE000EAD080237B6002E07B68013B7B607B68CC
:104DF000002BF9D11148FEF7E7F9144B00221A6095
:104E0000134B00221A7001E000F0CCF80B48FEF7BB
:104E10003DFA0346002B0CD14FF400714FF0904047
:104E2000FEF7B5FE0346002B03D1094B1B78002B80
:104E3000EAD000BF0837BD4680BD00BF0001045066
:104E400014000020C55A7C0ACDCCCCCC04920020A2
:104E5000FA91002080B582B000AF00237B60354816
:104E6000FEF78CF93348FEF79BF9334B1B685B095F
:104E7000324AA2FB0323DA0913469B0013445B006A
:104E80001A462F4BA3FB0223DB087B6002E07B6802
:104E9000013B7B607B68002BF9D17F212548FEF721
:104EA000A7F9284B00221A60274B00221A7001E054
:104EB00000F078F81F48FEF7B4F90346002B0CD138
:104EC0004FF400714FF09040FEF761FE0346002B57
:104ED00003D11D4B1B78002BEAD080237B6002E0BE
:104EE0007B68013B7B607B68002BF9D11148FEF7A2
:104EF0006BF9144B00221A60134B00221A7001E068
:104F000000F050F80B48FEF7C1F90346002B0CD116
:104F10004FF400714FF09040FEF739FE0346002B2E
:104F200003D1094B1B78002BEAD000BF0837BD46E0
:104F300080BD00BF0000045014000020C55A7C0A48
:104F4000CDCCCCCC04920020FA91002080B500AFEB
:104F500000F018FA41F6583001F07CFC00F0D0FD6A
:104F600000F04EFE00BF80BD80B400AF0A4B1B684E
:104F70000133094A1360084B1B68084A934205D95C
:104F8000054B00221A60064B01221A7000BFBD4675
:104F90005DF8047B704700BF388C0020003E49005C
:104FA0000392002080B400AF0A4B1B680133094A0A
:104FB0001360084B1B68084A934205D9054B002231
:104FC0001A60064B01221A7000BFBD465DF8047BD3
:104FD000704700BF04920020003E4900FA91002073
:104FE00080B584B000AF03460A46FB711346BB711F
:104FF0004FF480714FF09040FEF7ECFD00BF1C4B6A
:105000009B6803F00203002BF9D0FB79194618487E
:10501000FEF7D0FC00BF164B9B6803F00103002B8A
:10502000F9D01348FEF7B9FC00BF114B9B6803F0A1
:105030000203002BF9D0BB7919460D48FEF7BAFCE4
:1050400000BF0B4B9B6803F00103002BF9D008480D
:10505000FEF7A3FC0346FB604FF480714FF09040D5
:10506000FEF7AAFDFB6818461037BD4680BD00BF9D
:105070000030014080B584B000AF03460A46FB71A2
:105080001346BB714FF400414FF09040FEF7A2FD74
:1050900000BF1C4B9B6803F00203002BF9D0FB7987
:1050A00019461848FEF786FC00BF164B9B6803F0B4
:1050B0000103002BF9D01348FEF76FFC00BF114B22
:1050C0009B6803F00203002BF9D0BB7919460D4809
:1050D000FEF770FC00BF0B4B9B6803F00103002B35
:1050E000F9D00848FEF759FC0346FB604FF4004135
:1050F0004FF09040FEF760FDFB6818461037BD4644
:1051000080BD00BF0030014090B587B000AF0346BE
:10511000B9607A60FB7300237B614FF480714FF0BC
:105120009040FEF757FD00BF224B9B6803F002033F
:10513000002BF9D0FB7B63F07F03DBB219461D48DF
:10514000FEF738FC00BF1B4B9B6803F00103002BEC
:10515000F9D01848FEF721FC00237B611CE000BF5A
:10516000144B9B6803F00203002BF9D00021114877
:10517000FEF720FC00BF0F4B9B6803F00103002BE0
:10518000F9D0BA687B69D4180A48FEF706FC0346D2
:1051900023707B6901337B617A697B689A42DED335
:1051A0004FF480714FF09040FEF706FD00BF1C37B2
:1051B000BD4690BD0030014080B582B000AF184AB6
:1051C00006211848FDF736FF1748FEF73EF8174B43
:1051D00000221A60164B00221A7001E0FFF7C4FE8D
:1051E0001148FEF766F80346002BF7D00E48FEF78D
:1051F00073F80D48FEF73DF803461A464FF42F6347
:1052000003FB02F20B4BA3FB0213D21A5208134406
:10521000DB0A7B607B6818460837BD4680BD00BF4F
:10522000020030040002045000010450388C0020B9
:10523000039200200101100080B582B000AF184A2F
:1052400006211848FDF7F6FE1748FDF7FEFF174B3D
:1052500000221A60164B00221A7001E0FFF784FE4C
:105260001148FEF726F80346002BF7D00E48FEF74C
:1052700033F80D48FDF7FDFF03461A464FF42F6340
:1052800003FB02F20B4BA3FB0213D21A5208134486
:10529000DB0A7B607B6818460837BD4680BD00BFCF
:1052A000020030040002045000000450388C00203A
:1052B000039200200101100080B400AF00BFBD4682
:1052C0005DF8047B704780B500AF022220214FF0CB
:1052D0009040FEF77FFB052220214FF09040FEF723
:1052E00018FC032220214FF09040FEF7B8FB00226B
:1052F00020214FF09040FEF79AFB002220214FF032
:105300009040FEF7D9FB022240214FF09040FEF77B
:1053100061FB052240214FF09040FEF7FAFB03228B
:1053200040214FF09040FEF79AFB002240214FF0C1
:105330009040FEF77CFB002240214FF09040FEF7AA
:10534000BBFB022280214FF09040FEF743FB052279
:1053500080214FF09040FEF7DCFB032280214FF0CC
:105360009040FEF77CFB002280214FF09040FEF73A
:105370005EFB002280214FF09040FEF79DFB00BFB6
:1053800080BD000080B500AF4FF48050FEF7A6F856
:10539000FFF799FF08211748FEF774FA0021154816
:1053A000FEF796FA01211348FEF746FA022111484A
:1053B000FEF755FA00210F48FEF777FA4FF4E06147
:1053C0000C48FEF798FA4FF400710A48FEF7B9FA54
:1053D0004FF480510748FEF7A1FA4FF48271054857
:1053E000FEF717FA0348FEF704FA0248FEF7C5FA7B
:1053F00000BF80BD0030014080B500AF02224021D7
:105400001A48FEF7E7FA072240211848FEF781FB09
:10541000032240211548FEF722FB002240211348B9
:10542000FEF705FB012240211048FEF745FB104A1C
:105430000F4B1B6E43F4804313660E4A0D4B1B68E3
:1054400043F00C0313600B4A0B4B1B6803F56143DD
:105450000A49A1FB03131B0C9BB2D360054A054B01
:105460001B6843F00103136000BF80BD00040048C7
:10547000001002400038014014000020C5B3A29182
:1054800080B485B000AF786039600023FB601DE018
:1054900000BF134BDB6903F08003002BF9D01049E8
:1054A000FB687A6813441B789BB20B8500BF0C4BDA
:1054B000DB6903F04003002BF9D0094A084BDB6994
:1054C00023F04003D361FB680133FB60FA683B685B
:1054D0009A42DDD300BF1437BD465DF8047B7047A8
:1054E0000038014080B400AF00BFBD465DF8047BCA
:1054F0007047000080B400AF054B00221A70054BC6
:1055000000221A6000BFBD465DF8047B704700BFF3
:10551000798900207C890020B0B582B000AF0346B5
:10552000FB713B4AFB7913703A48FEF76AF8034671
:10553000DBB21B11DBB203F00F03DBB21A469200A1
:1055400013445B00DCB23348FEF75BF80346DBB282
:1055500003F00F03DBB22344DBB21A4642F21073AE
:1055600003FB02F42B48FEF776F80346DBB21B116F
:10557000DBB203F00F03DBB21A46920013445B0068
:10558000DDB22448FEF767F80346DBB203F00F03F1
:10559000DBB22B44DBB21A46642303FB02F31C4448
:1055A0001C48FEF782F80346DBB21B11DBB203F0A6
:1055B0000F03DBB21A46920013445B00DDB21548BC
:1055C000FEF773F80346DBB203F00F03DBB22B44A4
:1055D000DBB223441A46104B1A60104B1B78194655
:1055E0000F4AFB7953540D4B1B7818460A4B1A6827
:1055F0000B49831C9B000B445A60084B1B780133FA
:10560000DAB2064B1A7000BF0837BD46B0BD00BF06
:1056100079890020002800407C8900206E8C0020C1
:105620007888002080B582B000AF78607B68013B4D
:105630000F2B00F29C8001A252F823F0B156000813
:105640006F570008D7560008F15600088B5600081F
:105650006F5700086F570008175700086F5700086A
:105660006F5700086F570008415700086F57000830
:105670006F5700086F5700087D5600081020FFF78D
:105680004BFF414B01221A707AE0FEF789FE3F4B37
:105690001B68012B6DD13E4B00221A600520FFF7DD
:1056A0003BFF3C4B01221A70374B01221A7060E01D
:1056B000FEF792FE364B1B68012B5CD1344B002267
:1056C0001A600120FFF728FF2F4B01221A70324B7E
:1056D00001221A704FE0FEF70FFE2F4B1B78012BB3
:1056E0004BD10320FFF718FF274B01221A7044E02B
:1056F000FEF73AFE294B1B68012B40D1274B0022B5
:105700001A600420FFF708FF254B01221A701E4B78
:1057100001221A7033E0234B1B78032B09D9214B4C
:1057200000221A70184B01221A700820FFF7F4FEAD
:1057300026E01C4B1B780133DAB21A4B1A701FE0BB
:10574000FFF7BAFD184B1B78032B09D9164B002223
:105750001A700D4B01221A700C20FFF7DDFE0FE0CE
:10576000114B1B780133DAB20F4B1A7008E000BFFF
:1057700006E000BF04E000BF02E000BF00E000BFA1
:1057800000BF0837BD4680BD708F0020148C0020FC
:10579000C48C0020348C0020718F0020188C0020D5
:1057A000068D002008920020788F002080B500AF81
:1057B000FCF786FA0F4B03221A600F4B01221A7076
:1057C000FEF73CFAFEF742FEFEF704FD402001F032
:1057D0005FF80A48FDF7B2FD4220FDF76DFB084B6C
:1057E00001221A70074B01221A701720FDF764FB83
:1057F00000BF80BDDA8B002071890020009400403A
:10580000B48800204092002090B58DB000AF786041
:105810008C212520FFF7E4FB03212620FFF7E0FB86
:1058200087212720FFF7DCFB07F10C03152219461F
:105830003B20FFF769FC3B7B1B021AB27B7B1BB250
:1058400013431BB2BB84BB7B1B021AB2FB7B1BB294
:1058500013431BB2FB843B7C1B021AB27B7C1BB242
:1058600013431BB23B853B7D1B021AB27B7D1BB2EF
:1058700013431BB27B85BB7D1B021AB2FB7D1BB29F
:1058800013431BB2BB853B7E1B021AB27B7E1BB24D
:1058900013431BB2FB857B681C4607F1240307CB2F
:1058A00020606160A26078683437BD4690BD00001A
:1058B00080B485B000AFF860B9607A603B60344B6B
:1058C0001B78DBB21A46334B1B68F96808B23249C1
:1058D0005203134408335B000B440246DA802C4B1E
:1058E0001B78DBB21A462B4B1B68B96808B22A49F1
:1058F0005203134403F5F673024621F81320244B98
:105900001B78DBB21A46234B1B68796808B2224920
:105910005203134403F573735B000B4402465A8031
:105920001B4B1B78DBB21A461A4B1B68396808B24E
:1059300019495203134403F2AC535B000B44024673
:105940009A80134B1B78DBB21A46124B1B68B9695D
:1059500008B211495203134403F28C735B000B44E9
:105960000246DA800A4B1B78DBB21A46094B1B68E9
:10597000F96908B208495203134403F51763024654
:1059800021F8132000BF1437BD465DF8047B704733
:10599000AC050020A80500207408002080B485B064
:1059A00000AFF860B9607A603B60254B1B78DBB2D2
:1059B0001A46244B1B68F96808B223495203134462
:1059C00003F535635B000B4402465A801C4B1B7881
:1059D000DBB21A461B4B1B68B96808B21A4952035E
:1059E000134403F553635B000B4402469A80144B47
:1059F0001B78DBB21A46134B1B68796808B2124950
:105A00005203134403F571635B000B440246DA80D2
:105A10000B4B1B78DBB21A460A4B1B68396808B27D
:105A200009495203134403F587531433024621F8FE
:105A3000132000BF1437BD465DF8047B704700BFDC
:105A4000AC050020A80500207408002080B485B0B3
:105A500000AFF860B9607A603B60264B1B78DBB220
:105A60001A46254B1B68F96808B2244952031344AF
:105A700003F5965314335B000B4402465A801D4BCA
:105A80001B78DBB21A461C4B1B68B96808B21B496D
:105A90005203134403F5A55314335B000B44024631
:105AA0009A80144B1B78DBB21A46134B1B6879683B
:105AB00008B212495203134403F5B45314335B0084
:105AC0000B440246DA800B4B1B78DBB21A460A4BBA
:105AD0001B68396808B209495203134403F5C353DC
